{
  "_format": "hh-sol-artifact-1",
  "contractName": "Hashies",
  "sourceName": "contracts/Hashies.sol",
  "abi": [
    {
      "inputs": [],
      "stateMutability": "nonpayable",
      "type": "constructor"
    },
    {
      "inputs": [],
      "name": "EmptyName",
      "type": "error"
    },
    {
      "inputs": [
        {
          "internalType": "address",
          "name": "minter",
          "type": "address"
        },
        {
          "internalType": "uint256",
          "name": "collectionId",
          "type": "uint256"
        }
      ],
      "name": "OnlyOneAllowedPerAddress",
      "type": "error"
    },
    {
      "inputs": [],
      "name": "UnknownCollection",
      "type": "error"
    },
    {
      "anonymous": false,
      "inputs": [
        {
          "indexed": true,
          "internalType": "address",
          "name": "account",
          "type": "address"
        },
        {
          "indexed": true,
          "internalType": "address",
          "name": "operator",
          "type": "address"
        },
        {
          "indexed": false,
          "internalType": "bool",
          "name": "approved",
          "type": "bool"
        }
      ],
      "name": "ApprovalForAll",
      "type": "event"
    },
    {
      "anonymous": false,
      "inputs": [
        {
          "indexed": false,
          "internalType": "address",
          "name": "owner",
          "type": "address"
        },
        {
          "indexed": false,
          "internalType": "uint256",
          "name": "collectionId",
          "type": "uint256"
        }
      ],
      "name": "CollectionCreated",
      "type": "event"
    },
    {
      "anonymous": false,
      "inputs": [
        {
          "indexed": false,
          "internalType": "uint8",
          "name": "version",
          "type": "uint8"
        }
      ],
      "name": "Initialized",
      "type": "event"
    },
    {
      "anonymous": false,
      "inputs": [
        {
          "indexed": true,
          "internalType": "address",
          "name": "previousOwner",
          "type": "address"
        },
        {
          "indexed": true,
          "internalType": "address",
          "name": "newOwner",
          "type": "address"
        }
      ],
      "name": "OwnershipTransferred",
      "type": "event"
    },
    {
      "anonymous": false,
      "inputs": [
        {
          "indexed": true,
          "internalType": "address",
          "name": "operator",
          "type": "address"
        },
        {
          "indexed": true,
          "internalType": "address",
          "name": "from",
          "type": "address"
        },
        {
          "indexed": true,
          "internalType": "address",
          "name": "to",
          "type": "address"
        },
        {
          "indexed": false,
          "internalType": "uint256[]",
          "name": "ids",
          "type": "uint256[]"
        },
        {
          "indexed": false,
          "internalType": "uint256[]",
          "name": "values",
          "type": "uint256[]"
        }
      ],
      "name": "TransferBatch",
      "type": "event"
    },
    {
      "anonymous": false,
      "inputs": [
        {
          "indexed": true,
          "internalType": "address",
          "name": "operator",
          "type": "address"
        },
        {
          "indexed": true,
          "internalType": "address",
          "name": "from",
          "type": "address"
        },
        {
          "indexed": true,
          "internalType": "address",
          "name": "to",
          "type": "address"
        },
        {
          "indexed": false,
          "internalType": "uint256",
          "name": "id",
          "type": "uint256"
        },
        {
          "indexed": false,
          "internalType": "uint256",
          "name": "value",
          "type": "uint256"
        }
      ],
      "name": "TransferSingle",
      "type": "event"
    },
    {
      "anonymous": false,
      "inputs": [
        {
          "indexed": false,
          "internalType": "string",
          "name": "value",
          "type": "string"
        },
        {
          "indexed": true,
          "internalType": "uint256",
          "name": "id",
          "type": "uint256"
        }
      ],
      "name": "URI",
      "type": "event"
    },
    {
      "inputs": [
        {
          "internalType": "address",
          "name": "account",
          "type": "address"
        },
        {
          "internalType": "uint256",
          "name": "id",
          "type": "uint256"
        }
      ],
      "name": "balanceOf",
      "outputs": [
        {
          "internalType": "uint256",
          "name": "",
          "type": "uint256"
        }
      ],
      "stateMutability": "view",
      "type": "function"
    },
    {
      "inputs": [
        {
          "internalType": "address[]",
          "name": "accounts",
          "type": "address[]"
        },
        {
          "internalType": "uint256[]",
          "name": "ids",
          "type": "uint256[]"
        }
      ],
      "name": "balanceOfBatch",
      "outputs": [
        {
          "internalType": "uint256[]",
          "name": "",
          "type": "uint256[]"
        }
      ],
      "stateMutability": "view",
      "type": "function"
    },
    {
      "inputs": [
        {
          "internalType": "address",
          "name": "account",
          "type": "address"
        },
        {
          "internalType": "uint256",
          "name": "id",
          "type": "uint256"
        },
        {
          "internalType": "uint256",
          "name": "value",
          "type": "uint256"
        }
      ],
      "name": "burn",
      "outputs": [],
      "stateMutability": "nonpayable",
      "type": "function"
    },
    {
      "inputs": [
        {
          "internalType": "address",
          "name": "account",
          "type": "address"
        },
        {
          "internalType": "uint256[]",
          "name": "ids",
          "type": "uint256[]"
        },
        {
          "internalType": "uint256[]",
          "name": "values",
          "type": "uint256[]"
        }
      ],
      "name": "burnBatch",
      "outputs": [],
      "stateMutability": "nonpayable",
      "type": "function"
    },
    {
      "inputs": [
        {
          "internalType": "uint256",
          "name": "",
          "type": "uint256"
        }
      ],
      "name": "collections",
      "outputs": [
        {
          "internalType": "address",
          "name": "owner",
          "type": "address"
        },
        {
          "internalType": "string",
          "name": "name",
          "type": "string"
        },
        {
          "internalType": "string",
          "name": "uri",
          "type": "string"
        },
        {
          "internalType": "uint256",
          "name": "maxSupply",
          "type": "uint256"
        }
      ],
      "stateMutability": "view",
      "type": "function"
    },
    {
      "inputs": [],
      "name": "collectionsCount",
      "outputs": [
        {
          "internalType": "uint256",
          "name": "",
          "type": "uint256"
        }
      ],
      "stateMutability": "view",
      "type": "function"
    },
    {
      "inputs": [
        {
          "internalType": "string",
          "name": "name",
          "type": "string"
        },
        {
          "internalType": "string",
          "name": "uri_",
          "type": "string"
        }
      ],
      "name": "createCollection",
      "outputs": [],
      "stateMutability": "nonpayable",
      "type": "function"
    },
    {
      "inputs": [
        {
          "internalType": "uint256",
          "name": "id",
          "type": "uint256"
        }
      ],
      "name": "exists",
      "outputs": [
        {
          "internalType": "bool",
          "name": "",
          "type": "bool"
        }
      ],
      "stateMutability": "view",
      "type": "function"
    },
    {
      "inputs": [],
      "name": "initialize",
      "outputs": [],
      "stateMutability": "nonpayable",
      "type": "function"
    },
    {
      "inputs": [
        {
          "internalType": "address",
          "name": "account",
          "type": "address"
        },
        {
          "internalType": "address",
          "name": "operator",
          "type": "address"
        }
      ],
      "name": "isApprovedForAll",
      "outputs": [
        {
          "internalType": "bool",
          "name": "",
          "type": "bool"
        }
      ],
      "stateMutability": "view",
      "type": "function"
    },
    {
      "inputs": [
        {
          "internalType": "uint256",
          "name": "collectionId",
          "type": "uint256"
        }
      ],
      "name": "mint",
      "outputs": [],
      "stateMutability": "payable",
      "type": "function"
    },
    {
      "inputs": [],
      "name": "owner",
      "outputs": [
        {
          "internalType": "address",
          "name": "",
          "type": "address"
        }
      ],
      "stateMutability": "view",
      "type": "function"
    },
    {
      "inputs": [],
      "name": "renounceOwnership",
      "outputs": [],
      "stateMutability": "nonpayable",
      "type": "function"
    },
    {
      "inputs": [
        {
          "internalType": "address",
          "name": "from",
          "type": "address"
        },
        {
          "internalType": "address",
          "name": "to",
          "type": "address"
        },
        {
          "internalType": "uint256[]",
          "name": "ids",
          "type": "uint256[]"
        },
        {
          "internalType": "uint256[]",
          "name": "amounts",
          "type": "uint256[]"
        },
        {
          "internalType": "bytes",
          "name": "data",
          "type": "bytes"
        }
      ],
      "name": "safeBatchTransferFrom",
      "outputs": [],
      "stateMutability": "nonpayable",
      "type": "function"
    },
    {
      "inputs": [
        {
          "internalType": "address",
          "name": "from",
          "type": "address"
        },
        {
          "internalType": "address",
          "name": "to",
          "type": "address"
        },
        {
          "internalType": "uint256",
          "name": "id",
          "type": "uint256"
        },
        {
          "internalType": "uint256",
          "name": "amount",
          "type": "uint256"
        },
        {
          "internalType": "bytes",
          "name": "data",
          "type": "bytes"
        }
      ],
      "name": "safeTransferFrom",
      "outputs": [],
      "stateMutability": "nonpayable",
      "type": "function"
    },
    {
      "inputs": [
        {
          "internalType": "address",
          "name": "operator",
          "type": "address"
        },
        {
          "internalType": "bool",
          "name": "approved",
          "type": "bool"
        }
      ],
      "name": "setApprovalForAll",
      "outputs": [],
      "stateMutability": "nonpayable",
      "type": "function"
    },
    {
      "inputs": [
        {
          "internalType": "bytes4",
          "name": "interfaceId",
          "type": "bytes4"
        }
      ],
      "name": "supportsInterface",
      "outputs": [
        {
          "internalType": "bool",
          "name": "",
          "type": "bool"
        }
      ],
      "stateMutability": "view",
      "type": "function"
    },
    {
      "inputs": [
        {
          "internalType": "uint256",
          "name": "id",
          "type": "uint256"
        }
      ],
      "name": "totalSupply",
      "outputs": [
        {
          "internalType": "uint256",
          "name": "",
          "type": "uint256"
        }
      ],
      "stateMutability": "view",
      "type": "function"
    },
    {
      "inputs": [
        {
          "internalType": "address",
          "name": "newOwner",
          "type": "address"
        }
      ],
      "name": "transferOwnership",
      "outputs": [],
      "stateMutability": "nonpayable",
      "type": "function"
    },
    {
      "inputs": [
        {
          "internalType": "uint256",
          "name": "collectionId",
          "type": "uint256"
        }
      ],
      "name": "uri",
      "outputs": [
        {
          "internalType": "string",
          "name": "uri_",
          "type": "string"
        }
      ],
      "stateMutability": "view",
      "type": "function"
    }
  ],
  "bytecode": "0x60806040523480156200001157600080fd5b50620000226200002860201b60201c565b620001d3565b600060019054906101000a900460ff16156200007b576040517f08c379a0000000000000000000000000000000000000000000000000000000008152600401620000729062000176565b60405180910390fd5b60ff801660008054906101000a900460ff1660ff161015620000ed5760ff6000806101000a81548160ff021916908360ff1602179055507f7f26b83ff96e1f2b6a682f133852f6798a09c465da95921460cefb384740249860ff604051620000e49190620001b6565b60405180910390a15b565b600082825260208201905092915050565b7f496e697469616c697a61626c653a20636f6e747261637420697320696e69746960008201527f616c697a696e6700000000000000000000000000000000000000000000000000602082015250565b60006200015e602783620000ef565b91506200016b8262000100565b604082019050919050565b6000602082019050818103600083015262000191816200014f565b9050919050565b600060ff82169050919050565b620001b08162000198565b82525050565b6000602082019050620001cd6000830184620001a5565b92915050565b61445f80620001e36000396000f3fe60806040526004361061011e5760003560e01c80638129fc1c116100a0578063e985e9c511610064578063e985e9c5146103d5578063f242432a14610412578063f2fde38b1461043b578063f5298aca14610464578063fdbda0ec1461048d5761011e565b80638129fc1c146103115780638da5cb5b14610328578063a0712d6814610353578063a22cb4651461036f578063bd85b039146103985761011e565b80632eb2c2d6116100e75780632eb2c2d61461022e5780634e1273f4146102575780634f558e79146102945780636b20c454146102d1578063715018a6146102fa5761011e565b8062fdd58e1461012357806301ffc9a7146101605780630e89341c1461019d578063176b9b75146101da57806324cc066214610203575b600080fd5b34801561012f57600080fd5b5061014a60048036038101906101459190612b53565b6104cd565b6040516101579190612ba2565b60405180910390f35b34801561016c57600080fd5b5061018760048036038101906101829190612c15565b610597565b6040516101949190612c5d565b60405180910390f35b3480156101a957600080fd5b506101c460048036038101906101bf9190612c78565b610679565b6040516101d19190612d3e565b60405180910390f35b3480156101e657600080fd5b5061020160048036038101906101fc9190612e95565b610722565b005b34801561020f57600080fd5b506102186108b7565b6040516102259190612ba2565b60405180910390f35b34801561023a57600080fd5b5061025560048036038101906102509190613076565b6108be565b005b34801561026357600080fd5b5061027e60048036038101906102799190613208565b61095f565b60405161028b919061333e565b60405180910390f35b3480156102a057600080fd5b506102bb60048036038101906102b69190612c78565b610a78565b6040516102c89190612c5d565b60405180910390f35b3480156102dd57600080fd5b506102f860048036038101906102f39190613360565b610a8c565b005b34801561030657600080fd5b5061030f610b29565b005b34801561031d57600080fd5b50610326610b3d565b005b34801561033457600080fd5b5061033d610ca3565b60405161034a91906133fa565b60405180910390f35b61036d60048036038101906103689190612c78565b610ccd565b005b34801561037b57600080fd5b5061039660048036038101906103919190613441565b610d9e565b005b3480156103a457600080fd5b506103bf60048036038101906103ba9190612c78565b610db4565b6040516103cc9190612ba2565b60405180910390f35b3480156103e157600080fd5b506103fc60048036038101906103f79190613481565b610dd1565b6040516104099190612c5d565b60405180910390f35b34801561041e57600080fd5b50610439600480360381019061043491906134c1565b610e65565b005b34801561044757600080fd5b50610462600480360381019061045d9190613558565b610f06565b005b34801561047057600080fd5b5061048b60048036038101906104869190613585565b610f8a565b005b34801561049957600080fd5b506104b460048036038101906104af9190612c78565b611027565b6040516104c494939291906135d8565b60405180910390f35b60008073ffffffffffffffffffffffffffffffffffffffff168373ffffffffffffffffffffffffffffffffffffffff16141561053e576040517f08c379a00000000000000000000000000000000000000000000000000000000081526004016105359061369d565b60405180910390fd5b6065600083815260200190815260200160002060008473ffffffffffffffffffffffffffffffffffffffff1673ffffffffffffffffffffffffffffffffffffffff16815260200190815260200160002054905092915050565b60007fd9b67a26000000000000000000000000000000000000000000000000000000007bffffffffffffffffffffffffffffffffffffffffffffffffffffffff1916827bffffffffffffffffffffffffffffffffffffffffffffffffffffffff1916148061066257507f0e89341c000000000000000000000000000000000000000000000000000000007bffffffffffffffffffffffffffffffffffffffffffffffffffffffff1916827bffffffffffffffffffffffffffffffffffffffffffffffffffffffff1916145b80610672575061067182611188565b5b9050919050565b606061012d6000838152602001908152602001600020600201805461069d906136ec565b80601f01602080910402602001604051908101604052809291908181526020018280546106c9906136ec565b80156107165780601f106106eb57610100808354040283529160200191610716565b820191906000526020600020905b8154815290600101906020018083116106f957829003601f168201915b50505050509050919050565b8160008151141561075f576040517f2ef1310500000000000000000000000000000000000000000000000000000000815260040160405180910390fd5b600061012e54905061076f6129ca565b33816000019073ffffffffffffffffffffffffffffffffffffffff16908173ffffffffffffffffffffffffffffffffffffffff16815250508481602001819052508381604001819052508061012d600084815260200190815260200160002060008201518160000160006101000a81548173ffffffffffffffffffffffffffffffffffffffff021916908373ffffffffffffffffffffffffffffffffffffffff1602179055506020820151816001019080519060200190610831929190612a08565b50604082015181600201908051906020019061084e929190612a08565b5060608201518160030155905050600161012e6000828254610870919061374d565b925050819055507fae66da0f1658d46bfee58255b370697fedca10e984d310c30f2579d377a0425533836040516108a89291906137a3565b60405180910390a15050505050565b61012e5481565b6108c66111f2565b73ffffffffffffffffffffffffffffffffffffffff168573ffffffffffffffffffffffffffffffffffffffff16148061090c575061090b856109066111f2565b610dd1565b5b61094b576040517f08c379a00000000000000000000000000000000000000000000000000000000081526004016109429061383e565b60405180910390fd5b61095885858585856111fa565b5050505050565b606081518351146109a5576040517f08c379a000000000000000000000000000000000000000000000000000000000815260040161099c906138d0565b60405180910390fd5b6000835167ffffffffffffffff8111156109c2576109c1612d6a565b5b6040519080825280602002602001820160405280156109f05781602001602082028036833780820191505090505b50905060005b8451811015610a6d57610a3d858281518110610a1557610a146138f0565b5b6020026020010151858381518110610a3057610a2f6138f0565b5b60200260200101516104cd565b828281518110610a5057610a4f6138f0565b5b60200260200101818152505080610a669061391f565b90506109f6565b508091505092915050565b600080610a8483610db4565b119050919050565b610a946111f2565b73ffffffffffffffffffffffffffffffffffffffff168373ffffffffffffffffffffffffffffffffffffffff161480610ada5750610ad983610ad46111f2565b610dd1565b5b610b19576040517f08c379a0000000000000000000000000000000000000000000000000000000008152600401610b109061383e565b60405180910390fd5b610b2483838361151f565b505050565b610b316117f0565b610b3b600061186e565b565b60008060019054906101000a900460ff16159050808015610b6e5750600160008054906101000a900460ff1660ff16105b80610b9b5750610b7d30611934565b158015610b9a5750600160008054906101000a900460ff1660ff16145b5b610bda576040517f08c379a0000000000000000000000000000000000000000000000000000000008152600401610bd1906139da565b60405180910390fd5b60016000806101000a81548160ff021916908360ff1602179055508015610c17576001600060016101000a81548160ff0219169083151502179055505b610c2f60405180602001604052806000815250611957565b610c376119b2565b610c3f611a03565b610c47611a5c565b8015610ca05760008060016101000a81548160ff0219169083151502179055507f7f26b83ff96e1f2b6a682f133852f6798a09c465da95921460cefb38474024986001604051610c979190613a4c565b60405180910390a15b50565b600060c960009054906101000a900473ffffffffffffffffffffffffffffffffffffffff16905090565b806000610cda33836104cd565b14610d1e5733816040517f6af3345f000000000000000000000000000000000000000000000000000000008152600401610d159291906137a3565b60405180910390fd5b81600061012d60008381526020019081526020016000206001018054610d43906136ec565b90501415610d7d576040517f6f684e7200000000000000000000000000000000000000000000000000000000815260040160405180910390fd5b610d993384600160405180602001604052806000815250611aad565b505050565b610db0610da96111f2565b8383611c5f565b5050565b600060fb6000838152602001908152602001600020549050919050565b6000606660008473ffffffffffffffffffffffffffffffffffffffff1673ffffffffffffffffffffffffffffffffffffffff16815260200190815260200160002060008373ffffffffffffffffffffffffffffffffffffffff1673ffffffffffffffffffffffffffffffffffffffff16815260200190815260200160002060009054906101000a900460ff16905092915050565b610e6d6111f2565b73ffffffffffffffffffffffffffffffffffffffff168573ffffffffffffffffffffffffffffffffffffffff161480610eb35750610eb285610ead6111f2565b610dd1565b5b610ef2576040517f08c379a0000000000000000000000000000000000000000000000000000000008152600401610ee99061383e565b60405180910390fd5b610eff8585858585611dcc565b5050505050565b610f0e6117f0565b600073ffffffffffffffffffffffffffffffffffffffff168173ffffffffffffffffffffffffffffffffffffffff161415610f7e576040517f08c379a0000000000000000000000000000000000000000000000000000000008152600401610f7590613ad9565b60405180910390fd5b610f878161186e565b50565b610f926111f2565b73ffffffffffffffffffffffffffffffffffffffff168373ffffffffffffffffffffffffffffffffffffffff161480610fd85750610fd783610fd26111f2565b610dd1565b5b611017576040517f08c379a000000000000000000000000000000000000000000000000000000000815260040161100e9061383e565b60405180910390fd5b61102283838361206b565b505050565b61012d6020528060005260406000206000915090508060000160009054906101000a900473ffffffffffffffffffffffffffffffffffffffff1690806001018054611071906136ec565b80601f016020809104026020016040519081016040528092919081815260200182805461109d906136ec565b80156110ea5780601f106110bf576101008083540402835291602001916110ea565b820191906000526020600020905b8154815290600101906020018083116110cd57829003601f168201915b5050505050908060020180546110ff906136ec565b80601f016020809104026020016040519081016040528092919081815260200182805461112b906136ec565b80156111785780601f1061114d57610100808354040283529160200191611178565b820191906000526020600020905b81548152906001019060200180831161115b57829003601f168201915b5050505050908060030154905084565b60007f01ffc9a7000000000000000000000000000000000000000000000000000000007bffffffffffffffffffffffffffffffffffffffffffffffffffffffff1916827bffffffffffffffffffffffffffffffffffffffffffffffffffffffff1916149050919050565b600033905090565b815183511461123e576040517f08c379a000000000000000000000000000000000000000000000000000000000815260040161123590613b6b565b60405180910390fd5b600073ffffffffffffffffffffffffffffffffffffffff168473ffffffffffffffffffffffffffffffffffffffff1614156112ae576040517f08c379a00000000000000000000000000000000000000000000000000000000081526004016112a590613bfd565b60405180910390fd5b60006112b86111f2565b90506112c88187878787876122b4565b60005b845181101561147c5760008582815181106112e9576112e86138f0565b5b602002602001015190506000858381518110611308576113076138f0565b5b6020026020010151905060006065600084815260200190815260200160002060008b73ffffffffffffffffffffffffffffffffffffffff1673ffffffffffffffffffffffffffffffffffffffff168152602001908152602001600020549050818110156113aa576040517f08c379a00000000000000000000000000000000000000000000000000000000081526004016113a190613c8f565b60405180910390fd5b8181036065600085815260200190815260200160002060008c73ffffffffffffffffffffffffffffffffffffffff1673ffffffffffffffffffffffffffffffffffffffff16815260200190815260200160002081905550816065600085815260200190815260200160002060008b73ffffffffffffffffffffffffffffffffffffffff1673ffffffffffffffffffffffffffffffffffffffff1681526020019081526020016000206000828254611461919061374d565b92505081905550505050806114759061391f565b90506112cb565b508473ffffffffffffffffffffffffffffffffffffffff168673ffffffffffffffffffffffffffffffffffffffff168273ffffffffffffffffffffffffffffffffffffffff167f4a39dc06d4c0dbc64b70af90fd698a233a518aa5d07e595d983b8c0526c8f7fb87876040516114f3929190613caf565b60405180910390a46115098187878787876122ca565b6115178187878787876122d2565b505050505050565b600073ffffffffffffffffffffffffffffffffffffffff168373ffffffffffffffffffffffffffffffffffffffff16141561158f576040517f08c379a000000000000000000000000000000000000000000000000000000000815260040161158690613d58565b60405180910390fd5b80518251146115d3576040517f08c379a00000000000000000000000000000000000000000000000000000000081526004016115ca90613b6b565b60405180910390fd5b60006115dd6111f2565b90506115fd818560008686604051806020016040528060008152506122b4565b60005b835181101561174c57600084828151811061161e5761161d6138f0565b5b60200260200101519050600084838151811061163d5761163c6138f0565b5b6020026020010151905060006065600084815260200190815260200160002060008973ffffffffffffffffffffffffffffffffffffffff1673ffffffffffffffffffffffffffffffffffffffff168152602001908152602001600020549050818110156116df576040517f08c379a00000000000000000000000000000000000000000000000000000000081526004016116d690613dea565b60405180910390fd5b8181036065600085815260200190815260200160002060008a73ffffffffffffffffffffffffffffffffffffffff1673ffffffffffffffffffffffffffffffffffffffff1681526020019081526020016000208190555050505080806117449061391f565b915050611600565b50600073ffffffffffffffffffffffffffffffffffffffff168473ffffffffffffffffffffffffffffffffffffffff168273ffffffffffffffffffffffffffffffffffffffff167f4a39dc06d4c0dbc64b70af90fd698a233a518aa5d07e595d983b8c0526c8f7fb86866040516117c4929190613caf565b60405180910390a46117ea818560008686604051806020016040528060008152506122ca565b50505050565b6117f86111f2565b73ffffffffffffffffffffffffffffffffffffffff16611816610ca3565b73ffffffffffffffffffffffffffffffffffffffff161461186c576040517f08c379a000000000000000000000000000000000000000000000000000000000815260040161186390613e56565b60405180910390fd5b565b600060c960009054906101000a900473ffffffffffffffffffffffffffffffffffffffff1690508160c960006101000a81548173ffffffffffffffffffffffffffffffffffffffff021916908373ffffffffffffffffffffffffffffffffffffffff1602179055508173ffffffffffffffffffffffffffffffffffffffff168173ffffffffffffffffffffffffffffffffffffffff167f8be0079c531659141344cd1fd0a4f28419497f9722a3daafe3b4186f6b6457e060405160405180910390a35050565b6000808273ffffffffffffffffffffffffffffffffffffffff163b119050919050565b600060019054906101000a900460ff166119a6576040517f08c379a000000000000000000000000000000000000000000000000000000000815260040161199d90613ee8565b60405180910390fd5b6119af816124b9565b50565b600060019054906101000a900460ff16611a01576040517f08c379a00000000000000000000000000000000000000000000000000000000081526004016119f890613ee8565b60405180910390fd5b565b600060019054906101000a900460ff16611a52576040517f08c379a0000000000000000000000000000000000000000000000000000000008152600401611a4990613ee8565b60405180910390fd5b611a5a612514565b565b600060019054906101000a900460ff16611aab576040517f08c379a0000000000000000000000000000000000000000000000000000000008152600401611aa290613ee8565b60405180910390fd5b565b600073ffffffffffffffffffffffffffffffffffffffff168473ffffffffffffffffffffffffffffffffffffffff161415611b1d576040517f08c379a0000000000000000000000000000000000000000000000000000000008152600401611b1490613f7a565b60405180910390fd5b6000611b276111f2565b90506000611b3485612575565b90506000611b4185612575565b9050611b52836000898585896122b4565b846065600088815260200190815260200160002060008973ffffffffffffffffffffffffffffffffffffffff1673ffffffffffffffffffffffffffffffffffffffff1681526020019081526020016000206000828254611bb2919061374d565b925050819055508673ffffffffffffffffffffffffffffffffffffffff16600073ffffffffffffffffffffffffffffffffffffffff168473ffffffffffffffffffffffffffffffffffffffff167fc3d58168c5ae7397731d063d5bbf3d657854427343f4c083240f7aacaa2d0f628989604051611c30929190613f9a565b60405180910390a4611c47836000898585896122ca565b611c56836000898989896125ef565b50505050505050565b8173ffffffffffffffffffffffffffffffffffffffff168373ffffffffffffffffffffffffffffffffffffffff161415611cce576040517f08c379a0000000000000000000000000000000000000000000000000000000008152600401611cc590614035565b60405180910390fd5b80606660008573ffffffffffffffffffffffffffffffffffffffff1673ffffffffffffffffffffffffffffffffffffffff16815260200190815260200160002060008473ffffffffffffffffffffffffffffffffffffffff1673ffffffffffffffffffffffffffffffffffffffff16815260200190815260200160002060006101000a81548160ff0219169083151502179055508173ffffffffffffffffffffffffffffffffffffffff168373ffffffffffffffffffffffffffffffffffffffff167f17307eab39ab6107e8899845ad3d59bd9653f200f220920489ca2b5937696c3183604051611dbf9190612c5d565b60405180910390a3505050565b600073ffffffffffffffffffffffffffffffffffffffff168473ffffffffffffffffffffffffffffffffffffffff161415611e3c576040517f08c379a0000000000000000000000000000000000000000000000000000000008152600401611e3390613bfd565b60405180910390fd5b6000611e466111f2565b90506000611e5385612575565b90506000611e6085612575565b9050611e708389898585896122b4565b60006065600088815260200190815260200160002060008a73ffffffffffffffffffffffffffffffffffffffff1673ffffffffffffffffffffffffffffffffffffffff16815260200190815260200160002054905085811015611f08576040517f08c379a0000000000000000000000000000000000000000000000000000000008152600401611eff90613c8f565b60405180910390fd5b8581036065600089815260200190815260200160002060008b73ffffffffffffffffffffffffffffffffffffffff1673ffffffffffffffffffffffffffffffffffffffff16815260200190815260200160002081905550856065600089815260200190815260200160002060008a73ffffffffffffffffffffffffffffffffffffffff1673ffffffffffffffffffffffffffffffffffffffff1681526020019081526020016000206000828254611fbf919061374d565b925050819055508773ffffffffffffffffffffffffffffffffffffffff168973ffffffffffffffffffffffffffffffffffffffff168573ffffffffffffffffffffffffffffffffffffffff167fc3d58168c5ae7397731d063d5bbf3d657854427343f4c083240f7aacaa2d0f628a8a60405161203c929190613f9a565b60405180910390a4612052848a8a86868a6122ca565b612060848a8a8a8a8a6125ef565b505050505050505050565b600073ffffffffffffffffffffffffffffffffffffffff168373ffffffffffffffffffffffffffffffffffffffff1614156120db576040517f08c379a00000000000000000000000000000000000000000000000000000000081526004016120d290613d58565b60405180910390fd5b60006120e56111f2565b905060006120f284612575565b905060006120ff84612575565b905061211f838760008585604051806020016040528060008152506122b4565b60006065600087815260200190815260200160002060008873ffffffffffffffffffffffffffffffffffffffff1673ffffffffffffffffffffffffffffffffffffffff168152602001908152602001600020549050848110156121b7576040517f08c379a00000000000000000000000000000000000000000000000000000000081526004016121ae90613dea565b60405180910390fd5b8481036065600088815260200190815260200160002060008973ffffffffffffffffffffffffffffffffffffffff1673ffffffffffffffffffffffffffffffffffffffff16815260200190815260200160002081905550600073ffffffffffffffffffffffffffffffffffffffff168773ffffffffffffffffffffffffffffffffffffffff168573ffffffffffffffffffffffffffffffffffffffff167fc3d58168c5ae7397731d063d5bbf3d657854427343f4c083240f7aacaa2d0f628989604051612285929190613f9a565b60405180910390a46122ab848860008686604051806020016040528060008152506122ca565b50505050505050565b6122c28686868686866127d6565b505050505050565b505050505050565b6122f18473ffffffffffffffffffffffffffffffffffffffff16611934565b156124b1578373ffffffffffffffffffffffffffffffffffffffff1663bc197c8187878686866040518663ffffffff1660e01b81526004016123379594939291906140aa565b602060405180830381600087803b15801561235157600080fd5b505af192505050801561238257506040513d601f19601f8201168201806040525081019061237f9190614127565b60015b6124285761238e614161565b806308c379a014156123eb57506123a3614183565b806123ae57506123ed565b806040517f08c379a00000000000000000000000000000000000000000000000000000000081526004016123e29190612d3e565b60405180910390fd5b505b6040517f08c379a000000000000000000000000000000000000000000000000000000000815260040161241f9061428b565b60405180910390fd5b63bc197c8160e01b7bffffffffffffffffffffffffffffffffffffffffffffffffffffffff1916817bffffffffffffffffffffffffffffffffffffffffffffffffffffffff1916146124af576040517f08c379a00000000000000000000000000000000000000000000000000000000081526004016124a69061431d565b60405180910390fd5b505b505050505050565b600060019054906101000a900460ff16612508576040517f08c379a00000000000000000000000000000000000000000000000000000000081526004016124ff90613ee8565b60405180910390fd5b612511816129a8565b50565b600060019054906101000a900460ff16612563576040517f08c379a000000000000000000000000000000000000000000000000000000000815260040161255a90613ee8565b60405180910390fd5b61257361256e6111f2565b61186e565b565b60606000600167ffffffffffffffff81111561259457612593612d6a565b5b6040519080825280602002602001820160405280156125c25781602001602082028036833780820191505090505b50905082816000815181106125da576125d96138f0565b5b60200260200101818152505080915050919050565b61260e8473ffffffffffffffffffffffffffffffffffffffff16611934565b156127ce578373ffffffffffffffffffffffffffffffffffffffff1663f23a6e6187878686866040518663ffffffff1660e01b815260040161265495949392919061433d565b602060405180830381600087803b15801561266e57600080fd5b505af192505050801561269f57506040513d601f19601f8201168201806040525081019061269c9190614127565b60015b612745576126ab614161565b806308c379a0141561270857506126c0614183565b806126cb575061270a565b806040517f08c379a00000000000000000000000000000000000000000000000000000000081526004016126ff9190612d3e565b60405180910390fd5b505b6040517f08c379a000000000000000000000000000000000000000000000000000000000815260040161273c9061428b565b60405180910390fd5b63f23a6e6160e01b7bffffffffffffffffffffffffffffffffffffffffffffffffffffffff1916817bffffffffffffffffffffffffffffffffffffffffffffffffffffffff1916146127cc576040517f08c379a00000000000000000000000000000000000000000000000000000000081526004016127c39061431d565b60405180910390fd5b505b505050505050565b6127e48686868686866129c2565b600073ffffffffffffffffffffffffffffffffffffffff168573ffffffffffffffffffffffffffffffffffffffff1614156128965760005b835181101561289457828181518110612838576128376138f0565b5b602002602001015160fb6000868481518110612857576128566138f0565b5b60200260200101518152602001908152602001600020600082825461287c919061374d565b925050819055508061288d9061391f565b905061281c565b505b600073ffffffffffffffffffffffffffffffffffffffff168473ffffffffffffffffffffffffffffffffffffffff1614156129a05760005b835181101561299e5760008482815181106128ec576128eb6138f0565b5b60200260200101519050600084838151811061290b5761290a6138f0565b5b60200260200101519050600060fb600084815260200190815260200160002054905081811015612970576040517f08c379a000000000000000000000000000000000000000000000000000000000815260040161296790614409565b60405180910390fd5b81810360fb600085815260200190815260200160002081905550505050806129979061391f565b90506128ce565b505b505050505050565b80606790805190602001906129be929190612a08565b5050565b505050505050565b6040518060800160405280600073ffffffffffffffffffffffffffffffffffffffff1681526020016060815260200160608152602001600081525090565b828054612a14906136ec565b90600052602060002090601f016020900481019282612a365760008555612a7d565b82601f10612a4f57805160ff1916838001178555612a7d565b82800160010185558215612a7d579182015b82811115612a7c578251825591602001919060010190612a61565b5b509050612a8a9190612a8e565b5090565b5b80821115612aa7576000816000905550600101612a8f565b5090565b6000604051905090565b600080fd5b600080fd5b600073ffffffffffffffffffffffffffffffffffffffff82169050919050565b6000612aea82612abf565b9050919050565b612afa81612adf565b8114612b0557600080fd5b50565b600081359050612b1781612af1565b92915050565b6000819050919050565b612b3081612b1d565b8114612b3b57600080fd5b50565b600081359050612b4d81612b27565b92915050565b60008060408385031215612b6a57612b69612ab5565b5b6000612b7885828601612b08565b9250506020612b8985828601612b3e565b9150509250929050565b612b9c81612b1d565b82525050565b6000602082019050612bb76000830184612b93565b92915050565b60007fffffffff0000000000000000000000000000000000000000000000000000000082169050919050565b612bf281612bbd565b8114612bfd57600080fd5b50565b600081359050612c0f81612be9565b92915050565b600060208284031215612c2b57612c2a612ab5565b5b6000612c3984828501612c00565b91505092915050565b60008115159050919050565b612c5781612c42565b82525050565b6000602082019050612c726000830184612c4e565b92915050565b600060208284031215612c8e57612c8d612ab5565b5b6000612c9c84828501612b3e565b91505092915050565b600081519050919050565b600082825260208201905092915050565b60005b83811015612cdf578082015181840152602081019050612cc4565b83811115612cee576000848401525b50505050565b6000601f19601f8301169050919050565b6000612d1082612ca5565b612d1a8185612cb0565b9350612d2a818560208601612cc1565b612d3381612cf4565b840191505092915050565b60006020820190508181036000830152612d588184612d05565b905092915050565b600080fd5b600080fd5b7f4e487b7100000000000000000000000000000000000000000000000000000000600052604160045260246000fd5b612da282612cf4565b810181811067ffffffffffffffff82111715612dc157612dc0612d6a565b5b80604052505050565b6000612dd4612aab565b9050612de08282612d99565b919050565b600067ffffffffffffffff821115612e0057612dff612d6a565b5b612e0982612cf4565b9050602081019050919050565b82818337600083830152505050565b6000612e38612e3384612de5565b612dca565b905082815260208101848484011115612e5457612e53612d65565b5b612e5f848285612e16565b509392505050565b600082601f830112612e7c57612e7b612d60565b5b8135612e8c848260208601612e25565b91505092915050565b60008060408385031215612eac57612eab612ab5565b5b600083013567ffffffffffffffff811115612eca57612ec9612aba565b5b612ed685828601612e67565b925050602083013567ffffffffffffffff811115612ef757612ef6612aba565b5b612f0385828601612e67565b9150509250929050565b600067ffffffffffffffff821115612f2857612f27612d6a565b5b602082029050602081019050919050565b600080fd5b6000612f51612f4c84612f0d565b612dca565b90508083825260208201905060208402830185811115612f7457612f73612f39565b5b835b81811015612f9d5780612f898882612b3e565b845260208401935050602081019050612f76565b5050509392505050565b600082601f830112612fbc57612fbb612d60565b5b8135612fcc848260208601612f3e565b91505092915050565b600067ffffffffffffffff821115612ff057612fef612d6a565b5b612ff982612cf4565b9050602081019050919050565b600061301961301484612fd5565b612dca565b90508281526020810184848401111561303557613034612d65565b5b613040848285612e16565b509392505050565b600082601f83011261305d5761305c612d60565b5b813561306d848260208601613006565b91505092915050565b600080600080600060a0868803121561309257613091612ab5565b5b60006130a088828901612b08565b95505060206130b188828901612b08565b945050604086013567ffffffffffffffff8111156130d2576130d1612aba565b5b6130de88828901612fa7565b935050606086013567ffffffffffffffff8111156130ff576130fe612aba565b5b61310b88828901612fa7565b925050608086013567ffffffffffffffff81111561312c5761312b612aba565b5b61313888828901613048565b9150509295509295909350565b600067ffffffffffffffff8211156131605761315f612d6a565b5b602082029050602081019050919050565b600061318461317f84613145565b612dca565b905080838252602082019050602084028301858111156131a7576131a6612f39565b5b835b818110156131d057806131bc8882612b08565b8452602084019350506020810190506131a9565b5050509392505050565b600082601f8301126131ef576131ee612d60565b5b81356131ff848260208601613171565b91505092915050565b6000806040838503121561321f5761321e612ab5565b5b600083013567ffffffffffffffff81111561323d5761323c612aba565b5b613249858286016131da565b925050602083013567ffffffffffffffff81111561326a57613269612aba565b5b61327685828601612fa7565b9150509250929050565b600081519050919050565b600082825260208201905092915050565b6000819050602082019050919050565b6132b581612b1d565b82525050565b60006132c783836132ac565b60208301905092915050565b6000602082019050919050565b60006132eb82613280565b6132f5818561328b565b93506133008361329c565b8060005b8381101561333157815161331888826132bb565b9750613323836132d3565b925050600181019050613304565b5085935050505092915050565b6000602082019050818103600083015261335881846132e0565b905092915050565b60008060006060848603121561337957613378612ab5565b5b600061338786828701612b08565b935050602084013567ffffffffffffffff8111156133a8576133a7612aba565b5b6133b486828701612fa7565b925050604084013567ffffffffffffffff8111156133d5576133d4612aba565b5b6133e186828701612fa7565b9150509250925092565b6133f481612adf565b82525050565b600060208201905061340f60008301846133eb565b92915050565b61341e81612c42565b811461342957600080fd5b50565b60008135905061343b81613415565b92915050565b6000806040838503121561345857613457612ab5565b5b600061346685828601612b08565b92505060206134778582860161342c565b9150509250929050565b6000806040838503121561349857613497612ab5565b5b60006134a685828601612b08565b92505060206134b785828601612b08565b9150509250929050565b600080600080600060a086880312156134dd576134dc612ab5565b5b60006134eb88828901612b08565b95505060206134fc88828901612b08565b945050604061350d88828901612b3e565b935050606061351e88828901612b3e565b925050608086013567ffffffffffffffff81111561353f5761353e612aba565b5b61354b88828901613048565b9150509295509295909350565b60006020828403121561356e5761356d612ab5565b5b600061357c84828501612b08565b91505092915050565b60008060006060848603121561359e5761359d612ab5565b5b60006135ac86828701612b08565b93505060206135bd86828701612b3e565b92505060406135ce86828701612b3e565b9150509250925092565b60006080820190506135ed60008301876133eb565b81810360208301526135ff8186612d05565b905081810360408301526136138185612d05565b90506136226060830184612b93565b95945050505050565b7f455243313135353a2061646472657373207a65726f206973206e6f742061207660008201527f616c6964206f776e657200000000000000000000000000000000000000000000602082015250565b6000613687602a83612cb0565b91506136928261362b565b604082019050919050565b600060208201905081810360008301526136b68161367a565b9050919050565b7f4e487b7100000000000000000000000000000000000000000000000000000000600052602260045260246000fd5b6000600282049050600182168061370457607f821691505b60208210811415613718576137176136bd565b5b50919050565b7f4e487b7100000000000000000000000000000000000000000000000000000000600052601160045260246000fd5b600061375882612b1d565b915061376383612b1d565b9250827fffffffffffffffffffffffffffffffffffffffffffffffffffffffffffffffff038211156137985761379761371e565b5b828201905092915050565b60006040820190506137b860008301856133eb565b6137c56020830184612b93565b9392505050565b7f455243313135353a2063616c6c6572206973206e6f7420746f6b656e206f776e60008201527f6572206f7220617070726f766564000000000000000000000000000000000000602082015250565b6000613828602e83612cb0565b9150613833826137cc565b604082019050919050565b600060208201905081810360008301526138578161381b565b9050919050565b7f455243313135353a206163636f756e747320616e6420696473206c656e67746860008201527f206d69736d617463680000000000000000000000000000000000000000000000602082015250565b60006138ba602983612cb0565b91506138c58261385e565b604082019050919050565b600060208201905081810360008301526138e9816138ad565b9050919050565b7f4e487b7100000000000000000000000000000000000000000000000000000000600052603260045260246000fd5b600061392a82612b1d565b91507fffffffffffffffffffffffffffffffffffffffffffffffffffffffffffffffff82141561395d5761395c61371e565b5b600182019050919050565b7f496e697469616c697a61626c653a20636f6e747261637420697320616c72656160008201527f647920696e697469616c697a6564000000000000000000000000000000000000602082015250565b60006139c4602e83612cb0565b91506139cf82613968565b604082019050919050565b600060208201905081810360008301526139f3816139b7565b9050919050565b6000819050919050565b600060ff82169050919050565b6000819050919050565b6000613a36613a31613a2c846139fa565b613a11565b613a04565b9050919050565b613a4681613a1b565b82525050565b6000602082019050613a616000830184613a3d565b92915050565b7f4f776e61626c653a206e6577206f776e657220697320746865207a65726f206160008201527f6464726573730000000000000000000000000000000000000000000000000000602082015250565b6000613ac3602683612cb0565b9150613ace82613a67565b604082019050919050565b60006020820190508181036000830152613af281613ab6565b9050919050565b7f455243313135353a2069647320616e6420616d6f756e7473206c656e6774682060008201527f6d69736d61746368000000000000000000000000000000000000000000000000602082015250565b6000613b55602883612cb0565b9150613b6082613af9565b604082019050919050565b60006020820190508181036000830152613b8481613b48565b9050919050565b7f455243313135353a207472616e7366657220746f20746865207a65726f20616460008201527f6472657373000000000000000000000000000000000000000000000000000000602082015250565b6000613be7602583612cb0565b9150613bf282613b8b565b604082019050919050565b60006020820190508181036000830152613c1681613bda565b9050919050565b7f455243313135353a20696e73756666696369656e742062616c616e636520666f60008201527f72207472616e7366657200000000000000000000000000000000000000000000602082015250565b6000613c79602a83612cb0565b9150613c8482613c1d565b604082019050919050565b60006020820190508181036000830152613ca881613c6c565b9050919050565b60006040820190508181036000830152613cc981856132e0565b90508181036020830152613cdd81846132e0565b90509392505050565b7f455243313135353a206275726e2066726f6d20746865207a65726f206164647260008201527f6573730000000000000000000000000000000000000000000000000000000000602082015250565b6000613d42602383612cb0565b9150613d4d82613ce6565b604082019050919050565b60006020820190508181036000830152613d7181613d35565b9050919050565b7f455243313135353a206275726e20616d6f756e7420657863656564732062616c60008201527f616e636500000000000000000000000000000000000000000000000000000000602082015250565b6000613dd4602483612cb0565b9150613ddf82613d78565b604082019050919050565b60006020820190508181036000830152613e0381613dc7565b9050919050565b7f4f776e61626c653a2063616c6c6572206973206e6f7420746865206f776e6572600082015250565b6000613e40602083612cb0565b9150613e4b82613e0a565b602082019050919050565b60006020820190508181036000830152613e6f81613e33565b9050919050565b7f496e697469616c697a61626c653a20636f6e7472616374206973206e6f74206960008201527f6e697469616c697a696e67000000000000000000000000000000000000000000602082015250565b6000613ed2602b83612cb0565b9150613edd82613e76565b604082019050919050565b60006020820190508181036000830152613f0181613ec5565b9050919050565b7f455243313135353a206d696e7420746f20746865207a65726f2061646472657360008201527f7300000000000000000000000000000000000000000000000000000000000000602082015250565b6000613f64602183612cb0565b9150613f6f82613f08565b604082019050919050565b60006020820190508181036000830152613f9381613f57565b9050919050565b6000604082019050613faf6000830185612b93565b613fbc6020830184612b93565b9392505050565b7f455243313135353a2073657474696e6720617070726f76616c2073746174757360008201527f20666f722073656c660000000000000000000000000000000000000000000000602082015250565b600061401f602983612cb0565b915061402a82613fc3565b604082019050919050565b6000602082019050818103600083015261404e81614012565b9050919050565b600081519050919050565b600082825260208201905092915050565b600061407c82614055565b6140868185614060565b9350614096818560208601612cc1565b61409f81612cf4565b840191505092915050565b600060a0820190506140bf60008301886133eb565b6140cc60208301876133eb565b81810360408301526140de81866132e0565b905081810360608301526140f281856132e0565b905081810360808301526141068184614071565b90509695505050505050565b60008151905061412181612be9565b92915050565b60006020828403121561413d5761413c612ab5565b5b600061414b84828501614112565b91505092915050565b60008160e01c9050919050565b600060033d11156141805760046000803e61417d600051614154565b90505b90565b600060443d101561419357614216565b61419b612aab565b60043d036004823e80513d602482011167ffffffffffffffff821117156141c3575050614216565b808201805167ffffffffffffffff8111156141e15750505050614216565b80602083010160043d0385018111156141fe575050505050614216565b61420d82602001850186612d99565b82955050505050505b90565b7f455243313135353a207472616e7366657220746f206e6f6e2d4552433131353560008201527f526563656976657220696d706c656d656e746572000000000000000000000000602082015250565b6000614275603483612cb0565b915061428082614219565b604082019050919050565b600060208201905081810360008301526142a481614268565b9050919050565b7f455243313135353a204552433131353552656365697665722072656a6563746560008201527f6420746f6b656e73000000000000000000000000000000000000000000000000602082015250565b6000614307602883612cb0565b9150614312826142ab565b604082019050919050565b60006020820190508181036000830152614336816142fa565b9050919050565b600060a08201905061435260008301886133eb565b61435f60208301876133eb565b61436c6040830186612b93565b6143796060830185612b93565b818103608083015261438b8184614071565b90509695505050505050565b7f455243313135353a206275726e20616d6f756e74206578636565647320746f7460008201527f616c537570706c79000000000000000000000000000000000000000000000000602082015250565b60006143f3602883612cb0565b91506143fe82614397565b604082019050919050565b60006020820190508181036000830152614422816143e6565b905091905056fea264697066735822122046fee2ddf57c5a8b08047ca430b1cbad23dc536b0e20850782e0cd86fbe16e3064736f6c63430008090033",
  "linkReferences": {},
  "deployedLinkReferences": {}
}