{
  "_format": "hh-sol-artifact-1",
  "contractName": "Hashies",
  "sourceName": "contracts/Hashies.sol",
  "abi": [
    {
      "inputs": [],
      "stateMutability": "nonpayable",
      "type": "constructor"
    },
    {
      "inputs": [],
      "name": "EmptyName",
      "type": "error"
    },
    {
      "inputs": [],
      "name": "EndingTimestampTooEarly",
      "type": "error"
    },
    {
      "inputs": [
        {
          "internalType": "uint256",
          "name": "expected",
          "type": "uint256"
        },
        {
          "internalType": "uint256",
          "name": "received",
          "type": "uint256"
        }
      ],
      "name": "InsufficientPayment",
      "type": "error"
    },
    {
      "inputs": [],
      "name": "MintLimitReached",
      "type": "error"
    },
    {
      "inputs": [],
      "name": "MintingActive",
      "type": "error"
    },
    {
      "inputs": [],
      "name": "MintingDisabled",
      "type": "error"
    },
    {
      "inputs": [],
      "name": "NotBurnable",
      "type": "error"
    },
    {
      "inputs": [],
      "name": "NotSupported",
      "type": "error"
    },
    {
      "inputs": [],
      "name": "NotTransferable",
      "type": "error"
    },
    {
      "inputs": [],
      "name": "OnlyCollectionOwner",
      "type": "error"
    },
    {
      "inputs": [
        {
          "internalType": "address",
          "name": "minter",
          "type": "address"
        },
        {
          "internalType": "uint256",
          "name": "collectionId",
          "type": "uint256"
        }
      ],
      "name": "OnlyOneAllowedPerAddress",
      "type": "error"
    },
    {
      "inputs": [],
      "name": "OutsideOfMintingTimeRange",
      "type": "error"
    },
    {
      "inputs": [],
      "name": "TimestampsOutOfOrder",
      "type": "error"
    },
    {
      "inputs": [],
      "name": "UnknownCollection",
      "type": "error"
    },
    {
      "anonymous": false,
      "inputs": [
        {
          "indexed": true,
          "internalType": "address",
          "name": "account",
          "type": "address"
        },
        {
          "indexed": true,
          "internalType": "address",
          "name": "operator",
          "type": "address"
        },
        {
          "indexed": false,
          "internalType": "bool",
          "name": "approved",
          "type": "bool"
        }
      ],
      "name": "ApprovalForAll",
      "type": "event"
    },
    {
      "anonymous": false,
      "inputs": [
        {
          "indexed": false,
          "internalType": "address",
          "name": "owner",
          "type": "address"
        },
        {
          "indexed": false,
          "internalType": "uint256",
          "name": "collectionId",
          "type": "uint256"
        }
      ],
      "name": "CollectionCreated",
      "type": "event"
    },
    {
      "anonymous": false,
      "inputs": [
        {
          "indexed": false,
          "internalType": "uint8",
          "name": "version",
          "type": "uint8"
        }
      ],
      "name": "Initialized",
      "type": "event"
    },
    {
      "anonymous": false,
      "inputs": [
        {
          "indexed": false,
          "internalType": "uint256",
          "name": "collectionId",
          "type": "uint256"
        }
      ],
      "name": "MintingPaused",
      "type": "event"
    },
    {
      "anonymous": false,
      "inputs": [
        {
          "indexed": false,
          "internalType": "uint256",
          "name": "collectionId",
          "type": "uint256"
        }
      ],
      "name": "MintingResumed",
      "type": "event"
    },
    {
      "anonymous": false,
      "inputs": [
        {
          "indexed": true,
          "internalType": "address",
          "name": "previousOwner",
          "type": "address"
        },
        {
          "indexed": true,
          "internalType": "address",
          "name": "newOwner",
          "type": "address"
        }
      ],
      "name": "OwnershipTransferred",
      "type": "event"
    },
    {
      "anonymous": false,
      "inputs": [
        {
          "indexed": false,
          "internalType": "uint256",
          "name": "collectionId",
          "type": "uint256"
        },
        {
          "indexed": false,
          "internalType": "address",
          "name": "payee",
          "type": "address"
        },
        {
          "indexed": false,
          "internalType": "uint256",
          "name": "amount",
          "type": "uint256"
        }
      ],
      "name": "PaymentReceived",
      "type": "event"
    },
    {
      "anonymous": false,
      "inputs": [
        {
          "indexed": true,
          "internalType": "address",
          "name": "operator",
          "type": "address"
        },
        {
          "indexed": true,
          "internalType": "address",
          "name": "from",
          "type": "address"
        },
        {
          "indexed": true,
          "internalType": "address",
          "name": "to",
          "type": "address"
        },
        {
          "indexed": false,
          "internalType": "uint256[]",
          "name": "ids",
          "type": "uint256[]"
        },
        {
          "indexed": false,
          "internalType": "uint256[]",
          "name": "values",
          "type": "uint256[]"
        }
      ],
      "name": "TransferBatch",
      "type": "event"
    },
    {
      "anonymous": false,
      "inputs": [
        {
          "indexed": true,
          "internalType": "address",
          "name": "operator",
          "type": "address"
        },
        {
          "indexed": true,
          "internalType": "address",
          "name": "from",
          "type": "address"
        },
        {
          "indexed": true,
          "internalType": "address",
          "name": "to",
          "type": "address"
        },
        {
          "indexed": false,
          "internalType": "uint256",
          "name": "id",
          "type": "uint256"
        },
        {
          "indexed": false,
          "internalType": "uint256",
          "name": "value",
          "type": "uint256"
        }
      ],
      "name": "TransferSingle",
      "type": "event"
    },
    {
      "anonymous": false,
      "inputs": [
        {
          "indexed": false,
          "internalType": "string",
          "name": "value",
          "type": "string"
        },
        {
          "indexed": true,
          "internalType": "uint256",
          "name": "id",
          "type": "uint256"
        }
      ],
      "name": "URI",
      "type": "event"
    },
    {
      "inputs": [
        {
          "internalType": "address",
          "name": "account",
          "type": "address"
        },
        {
          "internalType": "uint256",
          "name": "id",
          "type": "uint256"
        }
      ],
      "name": "balanceOf",
      "outputs": [
        {
          "internalType": "uint256",
          "name": "",
          "type": "uint256"
        }
      ],
      "stateMutability": "view",
      "type": "function"
    },
    {
      "inputs": [
        {
          "internalType": "address[]",
          "name": "accounts",
          "type": "address[]"
        },
        {
          "internalType": "uint256[]",
          "name": "ids",
          "type": "uint256[]"
        }
      ],
      "name": "balanceOfBatch",
      "outputs": [
        {
          "internalType": "uint256[]",
          "name": "",
          "type": "uint256[]"
        }
      ],
      "stateMutability": "view",
      "type": "function"
    },
    {
      "inputs": [
        {
          "internalType": "address",
          "name": "account",
          "type": "address"
        },
        {
          "internalType": "uint256",
          "name": "collectionId",
          "type": "uint256"
        },
        {
          "internalType": "uint256",
          "name": "",
          "type": "uint256"
        }
      ],
      "name": "burn",
      "outputs": [],
      "stateMutability": "nonpayable",
      "type": "function"
    },
    {
      "inputs": [
        {
          "internalType": "address",
          "name": "",
          "type": "address"
        },
        {
          "internalType": "uint256[]",
          "name": "",
          "type": "uint256[]"
        },
        {
          "internalType": "uint256[]",
          "name": "",
          "type": "uint256[]"
        }
      ],
      "name": "burnBatch",
      "outputs": [],
      "stateMutability": "nonpayable",
      "type": "function"
    },
    {
      "inputs": [
        {
          "internalType": "uint256",
          "name": "",
          "type": "uint256"
        }
      ],
      "name": "collections",
      "outputs": [
        {
          "internalType": "address",
          "name": "owner",
          "type": "address"
        },
        {
          "internalType": "string",
          "name": "name",
          "type": "string"
        },
        {
          "internalType": "string",
          "name": "uri",
          "type": "string"
        },
        {
          "internalType": "uint256",
          "name": "maxSupply",
          "type": "uint256"
        },
        {
          "internalType": "uint256",
          "name": "earliestMintTimestamp",
          "type": "uint256"
        },
        {
          "internalType": "uint256",
          "name": "latestMintTimestamp",
          "type": "uint256"
        },
        {
          "internalType": "uint256",
          "name": "requiredPayment",
          "type": "uint256"
        },
        {
          "internalType": "uint256",
          "name": "flags",
          "type": "uint256"
        }
      ],
      "stateMutability": "view",
      "type": "function"
    },
    {
      "inputs": [],
      "name": "collectionsCount",
      "outputs": [
        {
          "internalType": "uint256",
          "name": "",
          "type": "uint256"
        }
      ],
      "stateMutability": "view",
      "type": "function"
    },
    {
      "inputs": [
        {
          "internalType": "string",
          "name": "name",
          "type": "string"
        },
        {
          "internalType": "string",
          "name": "uri_",
          "type": "string"
        },
        {
          "internalType": "uint256",
          "name": "maxSupply",
          "type": "uint256"
        },
        {
          "internalType": "uint256",
          "name": "earliestMintTimestamp",
          "type": "uint256"
        },
        {
          "internalType": "uint256",
          "name": "latestMintTimestamp",
          "type": "uint256"
        },
        {
          "internalType": "uint256",
          "name": "requiredPayment",
          "type": "uint256"
        },
        {
          "internalType": "uint256",
          "name": "flags",
          "type": "uint256"
        }
      ],
      "name": "createCollection",
      "outputs": [],
      "stateMutability": "nonpayable",
      "type": "function"
    },
    {
      "inputs": [
        {
          "internalType": "uint256",
          "name": "id",
          "type": "uint256"
        }
      ],
      "name": "exists",
      "outputs": [
        {
          "internalType": "bool",
          "name": "",
          "type": "bool"
        }
      ],
      "stateMutability": "view",
      "type": "function"
    },
    {
      "inputs": [],
      "name": "getVersion",
      "outputs": [
        {
          "internalType": "string",
          "name": "version",
          "type": "string"
        }
      ],
      "stateMutability": "pure",
      "type": "function"
    },
    {
      "inputs": [],
      "name": "initialize",
      "outputs": [],
      "stateMutability": "nonpayable",
      "type": "function"
    },
    {
      "inputs": [
        {
          "internalType": "address",
          "name": "account",
          "type": "address"
        },
        {
          "internalType": "address",
          "name": "operator",
          "type": "address"
        }
      ],
      "name": "isApprovedForAll",
      "outputs": [
        {
          "internalType": "bool",
          "name": "",
          "type": "bool"
        }
      ],
      "stateMutability": "view",
      "type": "function"
    },
    {
      "inputs": [
        {
          "internalType": "uint256",
          "name": "collectionId",
          "type": "uint256"
        }
      ],
      "name": "mint",
      "outputs": [],
      "stateMutability": "payable",
      "type": "function"
    },
    {
      "inputs": [
        {
          "internalType": "address",
          "name": "owner",
          "type": "address"
        }
      ],
      "name": "ownedCollections",
      "outputs": [
        {
          "internalType": "uint256[]",
          "name": "ids",
          "type": "uint256[]"
        }
      ],
      "stateMutability": "view",
      "type": "function"
    },
    {
      "inputs": [
        {
          "internalType": "address",
          "name": "owner",
          "type": "address"
        }
      ],
      "name": "ownedTokens",
      "outputs": [
        {
          "internalType": "uint256[]",
          "name": "ids",
          "type": "uint256[]"
        }
      ],
      "stateMutability": "view",
      "type": "function"
    },
    {
      "inputs": [],
      "name": "owner",
      "outputs": [
        {
          "internalType": "address",
          "name": "",
          "type": "address"
        }
      ],
      "stateMutability": "view",
      "type": "function"
    },
    {
      "inputs": [
        {
          "internalType": "uint256",
          "name": "collectionId",
          "type": "uint256"
        }
      ],
      "name": "pauseMinting",
      "outputs": [],
      "stateMutability": "nonpayable",
      "type": "function"
    },
    {
      "inputs": [],
      "name": "renounceOwnership",
      "outputs": [],
      "stateMutability": "nonpayable",
      "type": "function"
    },
    {
      "inputs": [
        {
          "internalType": "uint256",
          "name": "collectionId",
          "type": "uint256"
        }
      ],
      "name": "resumeMinting",
      "outputs": [],
      "stateMutability": "nonpayable",
      "type": "function"
    },
    {
      "inputs": [
        {
          "internalType": "address",
          "name": "",
          "type": "address"
        },
        {
          "internalType": "address",
          "name": "",
          "type": "address"
        },
        {
          "internalType": "uint256[]",
          "name": "",
          "type": "uint256[]"
        },
        {
          "internalType": "uint256[]",
          "name": "",
          "type": "uint256[]"
        },
        {
          "internalType": "bytes",
          "name": "",
          "type": "bytes"
        }
      ],
      "name": "safeBatchTransferFrom",
      "outputs": [],
      "stateMutability": "nonpayable",
      "type": "function"
    },
    {
      "inputs": [
        {
          "internalType": "address",
          "name": "from",
          "type": "address"
        },
        {
          "internalType": "address",
          "name": "to",
          "type": "address"
        },
        {
          "internalType": "uint256",
          "name": "id",
          "type": "uint256"
        },
        {
          "internalType": "uint256",
          "name": "",
          "type": "uint256"
        },
        {
          "internalType": "bytes",
          "name": "data",
          "type": "bytes"
        }
      ],
      "name": "safeTransferFrom",
      "outputs": [],
      "stateMutability": "nonpayable",
      "type": "function"
    },
    {
      "inputs": [
        {
          "internalType": "address",
          "name": "operator",
          "type": "address"
        },
        {
          "internalType": "bool",
          "name": "approved",
          "type": "bool"
        }
      ],
      "name": "setApprovalForAll",
      "outputs": [],
      "stateMutability": "nonpayable",
      "type": "function"
    },
    {
      "inputs": [
        {
          "internalType": "bytes4",
          "name": "interfaceId",
          "type": "bytes4"
        }
      ],
      "name": "supportsInterface",
      "outputs": [
        {
          "internalType": "bool",
          "name": "",
          "type": "bool"
        }
      ],
      "stateMutability": "view",
      "type": "function"
    },
    {
      "inputs": [
        {
          "internalType": "uint256",
          "name": "id",
          "type": "uint256"
        }
      ],
      "name": "totalSupply",
      "outputs": [
        {
          "internalType": "uint256",
          "name": "",
          "type": "uint256"
        }
      ],
      "stateMutability": "view",
      "type": "function"
    },
    {
      "inputs": [
        {
          "internalType": "address",
          "name": "newOwner",
          "type": "address"
        }
      ],
      "name": "transferOwnership",
      "outputs": [],
      "stateMutability": "nonpayable",
      "type": "function"
    },
    {
      "inputs": [
        {
          "internalType": "uint256",
          "name": "collectionId",
          "type": "uint256"
        }
      ],
      "name": "uri",
      "outputs": [
        {
          "internalType": "string",
          "name": "uri_",
          "type": "string"
        }
      ],
      "stateMutability": "view",
      "type": "function"
    }
  ],
  "bytecode": "0x60806040523480156200001157600080fd5b50620000226200002860201b60201c565b620001d3565b600060019054906101000a900460ff16156200007b576040517f08c379a0000000000000000000000000000000000000000000000000000000008152600401620000729062000176565b60405180910390fd5b60ff801660008054906101000a900460ff1660ff161015620000ed5760ff6000806101000a81548160ff021916908360ff1602179055507f7f26b83ff96e1f2b6a682f133852f6798a09c465da95921460cefb384740249860ff604051620000e49190620001b6565b60405180910390a15b565b600082825260208201905092915050565b7f496e697469616c697a61626c653a20636f6e747261637420697320696e69746960008201527f616c697a696e6700000000000000000000000000000000000000000000000000602082015250565b60006200015e602783620000ef565b91506200016b8262000100565b604082019050919050565b6000602082019050818103600083015262000191816200014f565b9050919050565b600060ff82169050919050565b620001b08162000198565b82525050565b6000602082019050620001cd6000830184620001a5565b92915050565b614bcf80620001e36000396000f3fe6080604052600436106101655760003560e01c80638da5cb5b116100d1578063bd4f6cf41161008a578063f242432a11610064578063f242432a14610550578063f2fde38b14610579578063f5298aca146105a2578063fdbda0ec146105cb57610165565b8063bd4f6cf4146104ad578063bd85b039146104d6578063e985e9c51461051357610165565b80638da5cb5b1461039a578063992d5898146103c5578063a0712d6814610402578063a22cb4651461041e578063a7f2393d14610447578063b12ab40f1461047057610165565b80634e1273f4116101235780634e1273f4146102a05780634f558e79146102dd57806364393a901461031a5780636b20c45414610343578063715018a61461036c5780638129fc1c1461038357610165565b8062fdd58e1461016a57806301ffc9a7146101a75780630d8e6e2c146101e45780630e89341c1461020f57806324cc06621461024c5780632eb2c2d614610277575b600080fd5b34801561017657600080fd5b50610191600480360381019061018c919061326a565b61060f565b60405161019e91906132b9565b60405180910390f35b3480156101b357600080fd5b506101ce60048036038101906101c9919061332c565b6106d9565b6040516101db9190613374565b60405180910390f35b3480156101f057600080fd5b506101f96107bb565b6040516102069190613428565b60405180910390f35b34801561021b57600080fd5b506102366004803603810190610231919061344a565b6107f8565b6040516102439190613428565b60405180910390f35b34801561025857600080fd5b506102616108a1565b60405161026e91906132b9565b60405180910390f35b34801561028357600080fd5b5061029e60048036038101906102999190613674565b6108a8565b005b3480156102ac57600080fd5b506102c760048036038101906102c29190613806565b6108da565b6040516102d4919061393c565b60405180910390f35b3480156102e957600080fd5b5061030460048036038101906102ff919061344a565b6109f3565b6040516103119190613374565b60405180910390f35b34801561032657600080fd5b50610341600480360381019061033c91906139ff565b610a07565b005b34801561034f57600080fd5b5061036a60048036038101906103659190613ad9565b610ce6565b005b34801561037857600080fd5b50610381610d18565b005b34801561038f57600080fd5b50610398610d2c565b005b3480156103a657600080fd5b506103af610e9a565b6040516103bc9190613b73565b60405180910390f35b3480156103d157600080fd5b506103ec60048036038101906103e79190613b8e565b610ec4565b6040516103f9919061393c565b60405180910390f35b61041c6004803603810190610417919061344a565b610f15565b005b34801561042a57600080fd5b5061044560048036038101906104409190613be7565b6112bd565b005b34801561045357600080fd5b5061046e6004803603810190610469919061344a565b6112d3565b005b34801561047c57600080fd5b5061049760048036038101906104929190613b8e565b6114ab565b6040516104a4919061393c565b60405180910390f35b3480156104b957600080fd5b506104d460048036038101906104cf919061344a565b6114fc565b005b3480156104e257600080fd5b506104fd60048036038101906104f8919061344a565b6116d5565b60405161050a91906132b9565b60405180910390f35b34801561051f57600080fd5b5061053a60048036038101906105359190613c27565b6116f2565b6040516105479190613374565b60405180910390f35b34801561055c57600080fd5b5061057760048036038101906105729190613c67565b611786565b005b34801561058557600080fd5b506105a0600480360381019061059b9190613b8e565b6117fb565b005b3480156105ae57600080fd5b506105c960048036038101906105c49190613cfe565b61187f565b005b3480156105d757600080fd5b506105f260048036038101906105ed919061344a565b61194e565b604051610606989796959493929190613d51565b60405180910390f35b60008073ffffffffffffffffffffffffffffffffffffffff168373ffffffffffffffffffffffffffffffffffffffff161415610680576040517f08c379a000000000000000000000000000000000000000000000000000000000815260040161067790613e4f565b60405180910390fd5b6065600083815260200190815260200160002060008473ffffffffffffffffffffffffffffffffffffffff1673ffffffffffffffffffffffffffffffffffffffff16815260200190815260200160002054905092915050565b60007fd9b67a26000000000000000000000000000000000000000000000000000000007bffffffffffffffffffffffffffffffffffffffffffffffffffffffff1916827bffffffffffffffffffffffffffffffffffffffffffffffffffffffff191614806107a457507f0e89341c000000000000000000000000000000000000000000000000000000007bffffffffffffffffffffffffffffffffffffffffffffffffffffffff1916827bffffffffffffffffffffffffffffffffffffffffffffffffffffffff1916145b806107b457506107b382611ac7565b5b9050919050565b60606040518060400160405280600581526020017f302e312e30000000000000000000000000000000000000000000000000000000815250905090565b606061015f6000838152602001908152602001600020600201805461081c90613e9e565b80601f016020809104026020016040519081016040528092919081815260200182805461084890613e9e565b80156108955780601f1061086a57610100808354040283529160200191610895565b820191906000526020600020905b81548152906001019060200180831161087857829003601f168201915b50505050509050919050565b6101605481565b6040517fa038794000000000000000000000000000000000000000000000000000000000815260040160405180910390fd5b60608151835114610920576040517f08c379a000000000000000000000000000000000000000000000000000000000815260040161091790613f42565b60405180910390fd5b6000835167ffffffffffffffff81111561093d5761093c61347c565b5b60405190808252806020026020018201604052801561096b5781602001602082028036833780820191505090505b50905060005b84518110156109e8576109b88582815181106109905761098f613f62565b5b60200260200101518583815181106109ab576109aa613f62565b5b602002602001015161060f565b8282815181106109cb576109ca613f62565b5b602002602001018181525050806109e190613fc0565b9050610971565b508091505092915050565b6000806109ff836116d5565b119050919050565b86600081511415610a44576040517f2ef1310500000000000000000000000000000000000000000000000000000000815260040160405180910390fd5b8360008114158015610a5557504281105b15610a8c576040517fa0d7fe2700000000000000000000000000000000000000000000000000000000815260040160405180910390fd5b858560008214158015610aa0575060008114155b8015610aab57508082115b15610ae2576040517f262efcda00000000000000000000000000000000000000000000000000000000815260040160405180910390fd5b6000610160549050610af26130c4565b33816000019073ffffffffffffffffffffffffffffffffffffffff16908173ffffffffffffffffffffffffffffffffffffffff16815250508c81602001819052508b81604001819052508a81606001818152505089816080018181525050888160a0018181525050878160c0018181525050868160e00181815250508061015f600084815260200190815260200160002060008201518160000160006101000a81548173ffffffffffffffffffffffffffffffffffffffff021916908373ffffffffffffffffffffffffffffffffffffffff1602179055506020820151816001019080519060200190610be692919061311f565b506040820151816002019080519060200190610c0392919061311f565b50606082015181600301556080820151816004015560a0820151816005015560c0820151816006015560e0820151816007015590505060016101606000828254610c4d9190614009565b92505081905550610c9d61016160003373ffffffffffffffffffffffffffffffffffffffff1673ffffffffffffffffffffffffffffffffffffffff16815260200190815260200160002083611b31565b507fae66da0f1658d46bfee58255b370697fedca10e984d310c30f2579d377a042553383604051610ccf92919061405f565b60405180910390a150505050505050505050505050565b6040517fa038794000000000000000000000000000000000000000000000000000000000815260040160405180910390fd5b610d20611b4b565b610d2a6000611bc9565b565b60008060019054906101000a900460ff16159050808015610d5d5750600160008054906101000a900460ff1660ff16105b80610d8a5750610d6c30611c8f565b158015610d895750600160008054906101000a900460ff1660ff16145b5b610dc9576040517f08c379a0000000000000000000000000000000000000000000000000000000008152600401610dc0906140fa565b60405180910390fd5b60016000806101000a81548160ff021916908360ff1602179055508015610e06576001600060016101000a81548160ff0219169083151502179055505b610e1e60405180602001604052806000815250611cb2565b610e26611d0d565b610e2e611d5e565b610e36611db7565b610e3e611e08565b8015610e975760008060016101000a81548160ff0219169083151502179055507f7f26b83ff96e1f2b6a682f133852f6798a09c465da95921460cefb38474024986001604051610e8e919061416c565b60405180910390a15b50565b600060c960009054906101000a900473ffffffffffffffffffffffffffffffffffffffff16905090565b6060610f0e61016160008473ffffffffffffffffffffffffffffffffffffffff1673ffffffffffffffffffffffffffffffffffffffff168152602001908152602001600020611e59565b9050919050565b806000610f22338361060f565b14610f665733816040517f6af3345f000000000000000000000000000000000000000000000000000000008152600401610f5d92919061405f565b60405180910390fd5b81600061015f60008381526020019081526020016000206001018054610f8b90613e9e565b90501415610fc5576040517f6f684e7200000000000000000000000000000000000000000000000000000000815260040160405180910390fd5b82600061015f600083815260200190815260200160002060030154905060008114158015610ffb575080610ff8836116d5565b10155b15611032576040517f303b682f00000000000000000000000000000000000000000000000000000000815260040160405180910390fd5b84600061015f60008381526020019081526020016000206004015490506000811415801561105f57504281115b15611096576040517f6713fbad00000000000000000000000000000000000000000000000000000000815260040160405180910390fd5b86600061015f6000838152602001908152602001600020600501549050600081141580156110c357504281105b156110fa576040517f6713fbad00000000000000000000000000000000000000000000000000000000815260040160405180910390fd5b88600061015f60008381526020019081526020016000206006015490506000811415801561112757508034105b1561116b5780346040517fb99e2ab7000000000000000000000000000000000000000000000000000000008152600401611162929190614187565b60405180910390fd5b8a60008060036001901b61015f600085815260200190815260200160002060070154161415905080156111ca576040517faf79b43700000000000000000000000000000000000000000000000000000000815260040160405180910390fd5b6000341461129257600061015f60008f815260200190815260200160002060000160009054906101000a900473ffffffffffffffffffffffffffffffffffffffff1690508073ffffffffffffffffffffffffffffffffffffffff166108fc349081150290604051600060405180830381858888f19350505050158015611254573d6000803e3d6000fd5b507f4d3f6d68b42e1e039d6e7323b2b8bdeaf223f453882ce17a5984f4d6aabbdb338e823460405161128893929190614205565b60405180910390a1505b6112ae338e600160405180602001604052806000815250611e7a565b50505050505050505050505050565b6112cf6112c861202c565b8383612034565b5050565b80600061015f600083815260200190815260200160002060010180546112f890613e9e565b90501415611332576040517f6f684e7200000000000000000000000000000000000000000000000000000000815260040160405180910390fd5b8160003373ffffffffffffffffffffffffffffffffffffffff1661015f600084815260200190815260200160002060000160009054906101000a900473ffffffffffffffffffffffffffffffffffffffff1673ffffffffffffffffffffffffffffffffffffffff16149050806113d4576040517f0e8f55e200000000000000000000000000000000000000000000000000000000815260040160405180910390fd5b8360008060036001901b61015f600085815260200190815260200160002060070154161415905080611432576040517ffc6754a400000000000000000000000000000000000000000000000000000000815260040160405180910390fd5b60036001901b61015f6000888152602001908152602001600020600701541861015f6000888152602001908152602001600020600701819055507f9d2d8147b5731741d391b322cd29b577dfc5b42bdf7c2a1ab1eee566547b72e78660405161149b91906132b9565b60405180910390a1505050505050565b60606114f561012d60008473ffffffffffffffffffffffffffffffffffffffff1673ffffffffffffffffffffffffffffffffffffffff168152602001908152602001600020611e59565b9050919050565b80600061015f6000838152602001908152602001600020600101805461152190613e9e565b9050141561155b576040517f6f684e7200000000000000000000000000000000000000000000000000000000815260040160405180910390fd5b8160003373ffffffffffffffffffffffffffffffffffffffff1661015f600084815260200190815260200160002060000160009054906101000a900473ffffffffffffffffffffffffffffffffffffffff1673ffffffffffffffffffffffffffffffffffffffff16149050806115fd576040517f0e8f55e200000000000000000000000000000000000000000000000000000000815260040160405180910390fd5b8360008060036001901b61015f6000858152602001908152602001600020600701541614159050801561165c576040517faf79b43700000000000000000000000000000000000000000000000000000000815260040160405180910390fd5b60036001901b61015f6000888152602001908152602001600020600701541761015f6000888152602001908152602001600020600701819055507f38d4174e7163889d8e9bd4aa2078c460fd3a1964ad51aef8de1467ee4b29ae11866040516116c591906132b9565b60405180910390a1505050505050565b600060fb6000838152602001908152602001600020549050919050565b6000606660008473ffffffffffffffffffffffffffffffffffffffff1673ffffffffffffffffffffffffffffffffffffffff16815260200190815260200160002060008373ffffffffffffffffffffffffffffffffffffffff1673ffffffffffffffffffffffffffffffffffffffff16815260200190815260200160002060009054906101000a900460ff16905092915050565b8260008060006001901b61015f6000858152602001908152602001600020600701541614159050806117e4576040517fdc8d8db700000000000000000000000000000000000000000000000000000000815260040160405180910390fd5b6117f28787876001876121a1565b50505050505050565b611803611b4b565b600073ffffffffffffffffffffffffffffffffffffffff168173ffffffffffffffffffffffffffffffffffffffff161415611873576040517f08c379a000000000000000000000000000000000000000000000000000000000815260040161186a906142ae565b60405180910390fd5b61187c81611bc9565b50565b81600061015f600083815260200190815260200160002060010180546118a490613e9e565b905014156118de576040517f6f684e7200000000000000000000000000000000000000000000000000000000815260040160405180910390fd5b826000806001801b61015f60008581526020019081526020016000206007015416141590508061193a576040517fda38f01000000000000000000000000000000000000000000000000000000000815260040160405180910390fd5b61194686866001612242565b505050505050565b61015f6020528060005260406000206000915090508060000160009054906101000a900473ffffffffffffffffffffffffffffffffffffffff169080600101805461199890613e9e565b80601f01602080910402602001604051908101604052809291908181526020018280546119c490613e9e565b8015611a115780601f106119e657610100808354040283529160200191611a11565b820191906000526020600020905b8154815290600101906020018083116119f457829003601f168201915b505050505090806002018054611a2690613e9e565b80601f0160208091040260200160405190810160405280929190818152602001828054611a5290613e9e565b8015611a9f5780601f10611a7457610100808354040283529160200191611a9f565b820191906000526020600020905b815481529060010190602001808311611a8257829003601f168201915b5050505050908060030154908060040154908060050154908060060154908060070154905088565b60007f01ffc9a7000000000000000000000000000000000000000000000000000000007bffffffffffffffffffffffffffffffffffffffffffffffffffffffff1916827bffffffffffffffffffffffffffffffffffffffffffffffffffffffff1916149050919050565b6000611b43836000018360001b6122df565b905092915050565b611b5361202c565b73ffffffffffffffffffffffffffffffffffffffff16611b71610e9a565b73ffffffffffffffffffffffffffffffffffffffff1614611bc7576040517f08c379a0000000000000000000000000000000000000000000000000000000008152600401611bbe9061431a565b60405180910390fd5b565b600060c960009054906101000a900473ffffffffffffffffffffffffffffffffffffffff1690508160c960006101000a81548173ffffffffffffffffffffffffffffffffffffffff021916908373ffffffffffffffffffffffffffffffffffffffff1602179055508173ffffffffffffffffffffffffffffffffffffffff168173ffffffffffffffffffffffffffffffffffffffff167f8be0079c531659141344cd1fd0a4f28419497f9722a3daafe3b4186f6b6457e060405160405180910390a35050565b6000808273ffffffffffffffffffffffffffffffffffffffff163b119050919050565b600060019054906101000a900460ff16611d01576040517f08c379a0000000000000000000000000000000000000000000000000000000008152600401611cf8906143ac565b60405180910390fd5b611d0a8161234f565b50565b600060019054906101000a900460ff16611d5c576040517f08c379a0000000000000000000000000000000000000000000000000000000008152600401611d53906143ac565b60405180910390fd5b565b600060019054906101000a900460ff16611dad576040517f08c379a0000000000000000000000000000000000000000000000000000000008152600401611da4906143ac565b60405180910390fd5b611db56123aa565b565b600060019054906101000a900460ff16611e06576040517f08c379a0000000000000000000000000000000000000000000000000000000008152600401611dfd906143ac565b60405180910390fd5b565b600060019054906101000a900460ff16611e57576040517f08c379a0000000000000000000000000000000000000000000000000000000008152600401611e4e906143ac565b60405180910390fd5b565b60606000611e698360000161240b565b905060608190508092505050919050565b600073ffffffffffffffffffffffffffffffffffffffff168473ffffffffffffffffffffffffffffffffffffffff161415611eea576040517f08c379a0000000000000000000000000000000000000000000000000000000008152600401611ee19061443e565b60405180910390fd5b6000611ef461202c565b90506000611f0185612467565b90506000611f0e85612467565b9050611f1f836000898585896124e1565b846065600088815260200190815260200160002060008973ffffffffffffffffffffffffffffffffffffffff1673ffffffffffffffffffffffffffffffffffffffff1681526020019081526020016000206000828254611f7f9190614009565b925050819055508673ffffffffffffffffffffffffffffffffffffffff16600073ffffffffffffffffffffffffffffffffffffffff168473ffffffffffffffffffffffffffffffffffffffff167fc3d58168c5ae7397731d063d5bbf3d657854427343f4c083240f7aacaa2d0f628989604051611ffd929190614187565b60405180910390a4612014836000898585896124f7565b612023836000898989896124ff565b50505050505050565b600033905090565b8173ffffffffffffffffffffffffffffffffffffffff168373ffffffffffffffffffffffffffffffffffffffff1614156120a3576040517f08c379a000000000000000000000000000000000000000000000000000000000815260040161209a906144d0565b60405180910390fd5b80606660008573ffffffffffffffffffffffffffffffffffffffff1673ffffffffffffffffffffffffffffffffffffffff16815260200190815260200160002060008473ffffffffffffffffffffffffffffffffffffffff1673ffffffffffffffffffffffffffffffffffffffff16815260200190815260200160002060006101000a81548160ff0219169083151502179055508173ffffffffffffffffffffffffffffffffffffffff168373ffffffffffffffffffffffffffffffffffffffff167f17307eab39ab6107e8899845ad3d59bd9653f200f220920489ca2b5937696c31836040516121949190613374565b60405180910390a3505050565b6121a961202c565b73ffffffffffffffffffffffffffffffffffffffff168573ffffffffffffffffffffffffffffffffffffffff1614806121ef57506121ee856121e961202c565b6116f2565b5b61222e576040517f08c379a000000000000000000000000000000000000000000000000000000000815260040161222590614562565b60405180910390fd5b61223b85858585856126e6565b5050505050565b61224a61202c565b73ffffffffffffffffffffffffffffffffffffffff168373ffffffffffffffffffffffffffffffffffffffff161480612290575061228f8361228a61202c565b6116f2565b5b6122cf576040517f08c379a00000000000000000000000000000000000000000000000000000000081526004016122c690614562565b60405180910390fd5b6122da838383612985565b505050565b60006122eb8383612bce565b612344578260000182908060018154018082558091505060019003906000526020600020016000909190919091505582600001805490508360010160008481526020019081526020016000208190555060019050612349565b600090505b92915050565b600060019054906101000a900460ff1661239e576040517f08c379a0000000000000000000000000000000000000000000000000000000008152600401612395906143ac565b60405180910390fd5b6123a781612bf1565b50565b600060019054906101000a900460ff166123f9576040517f08c379a00000000000000000000000000000000000000000000000000000000081526004016123f0906143ac565b60405180910390fd5b61240961240461202c565b611bc9565b565b60608160000180548060200260200160405190810160405280929190818152602001828054801561245b57602002820191906000526020600020905b815481526020019060010190808311612447575b50505050509050919050565b60606000600167ffffffffffffffff8111156124865761248561347c565b5b6040519080825280602002602001820160405280156124b45781602001602082028036833780820191505090505b50905082816000815181106124cc576124cb613f62565b5b60200260200101818152505080915050919050565b6124ef868686868686612c0b565b505050505050565b505050505050565b61251e8473ffffffffffffffffffffffffffffffffffffffff16611c8f565b156126de578373ffffffffffffffffffffffffffffffffffffffff1663f23a6e6187878686866040518663ffffffff1660e01b81526004016125649594939291906145d7565b602060405180830381600087803b15801561257e57600080fd5b505af19250505080156125af57506040513d601f19601f820116820180604052508101906125ac9190614646565b60015b612655576125bb614680565b806308c379a0141561261857506125d06146a2565b806125db575061261a565b806040517f08c379a000000000000000000000000000000000000000000000000000000000815260040161260f9190613428565b60405180910390fd5b505b6040517f08c379a000000000000000000000000000000000000000000000000000000000815260040161264c906147aa565b60405180910390fd5b63f23a6e6160e01b7bffffffffffffffffffffffffffffffffffffffffffffffffffffffff1916817bffffffffffffffffffffffffffffffffffffffffffffffffffffffff1916146126dc576040517f08c379a00000000000000000000000000000000000000000000000000000000081526004016126d39061483c565b60405180910390fd5b505b505050505050565b600073ffffffffffffffffffffffffffffffffffffffff168473ffffffffffffffffffffffffffffffffffffffff161415612756576040517f08c379a000000000000000000000000000000000000000000000000000000000815260040161274d906148ce565b60405180910390fd5b600061276061202c565b9050600061276d85612467565b9050600061277a85612467565b905061278a8389898585896124e1565b60006065600088815260200190815260200160002060008a73ffffffffffffffffffffffffffffffffffffffff1673ffffffffffffffffffffffffffffffffffffffff16815260200190815260200160002054905085811015612822576040517f08c379a000000000000000000000000000000000000000000000000000000000815260040161281990614960565b60405180910390fd5b8581036065600089815260200190815260200160002060008b73ffffffffffffffffffffffffffffffffffffffff1673ffffffffffffffffffffffffffffffffffffffff16815260200190815260200160002081905550856065600089815260200190815260200160002060008a73ffffffffffffffffffffffffffffffffffffffff1673ffffffffffffffffffffffffffffffffffffffff16815260200190815260200160002060008282546128d99190614009565b925050819055508773ffffffffffffffffffffffffffffffffffffffff168973ffffffffffffffffffffffffffffffffffffffff168573ffffffffffffffffffffffffffffffffffffffff167fc3d58168c5ae7397731d063d5bbf3d657854427343f4c083240f7aacaa2d0f628a8a604051612956929190614187565b60405180910390a461296c848a8a86868a6124f7565b61297a848a8a8a8a8a6124ff565b505050505050505050565b600073ffffffffffffffffffffffffffffffffffffffff168373ffffffffffffffffffffffffffffffffffffffff1614156129f5576040517f08c379a00000000000000000000000000000000000000000000000000000000081526004016129ec906149f2565b60405180910390fd5b60006129ff61202c565b90506000612a0c84612467565b90506000612a1984612467565b9050612a39838760008585604051806020016040528060008152506124e1565b60006065600087815260200190815260200160002060008873ffffffffffffffffffffffffffffffffffffffff1673ffffffffffffffffffffffffffffffffffffffff16815260200190815260200160002054905084811015612ad1576040517f08c379a0000000000000000000000000000000000000000000000000000000008152600401612ac890614a84565b60405180910390fd5b8481036065600088815260200190815260200160002060008973ffffffffffffffffffffffffffffffffffffffff1673ffffffffffffffffffffffffffffffffffffffff16815260200190815260200160002081905550600073ffffffffffffffffffffffffffffffffffffffff168773ffffffffffffffffffffffffffffffffffffffff168573ffffffffffffffffffffffffffffffffffffffff167fc3d58168c5ae7397731d063d5bbf3d657854427343f4c083240f7aacaa2d0f628989604051612b9f929190614187565b60405180910390a4612bc5848860008686604051806020016040528060008152506124f7565b50505050505050565b600080836001016000848152602001908152602001600020541415905092915050565b8060679080519060200190612c0792919061311f565b5050565b612c19868686868686612dbc565b60005b8351811015612db357600073ffffffffffffffffffffffffffffffffffffffff168673ffffffffffffffffffffffffffffffffffffffff1614158015612c9f5750828181518110612c7057612c6f613f62565b5b6020026020010151612c9c87868481518110612c8f57612c8e613f62565b5b602002602001015161060f565b11155b15612d0957612d0761012d60008873ffffffffffffffffffffffffffffffffffffffff1673ffffffffffffffffffffffffffffffffffffffff168152602001908152602001600020858381518110612cfa57612cf9613f62565b5b6020026020010151612f8e565b505b600073ffffffffffffffffffffffffffffffffffffffff168573ffffffffffffffffffffffffffffffffffffffff1614612da257612da061012d60008773ffffffffffffffffffffffffffffffffffffffff1673ffffffffffffffffffffffffffffffffffffffff168152602001908152602001600020858381518110612d9357612d92613f62565b5b6020026020010151611b31565b505b80612dac90613fc0565b9050612c1c565b50505050505050565b612dca868686868686612fa8565b600073ffffffffffffffffffffffffffffffffffffffff168573ffffffffffffffffffffffffffffffffffffffff161415612e7c5760005b8351811015612e7a57828181518110612e1e57612e1d613f62565b5b602002602001015160fb6000868481518110612e3d57612e3c613f62565b5b602002602001015181526020019081526020016000206000828254612e629190614009565b9250508190555080612e7390613fc0565b9050612e02565b505b600073ffffffffffffffffffffffffffffffffffffffff168473ffffffffffffffffffffffffffffffffffffffff161415612f865760005b8351811015612f84576000848281518110612ed257612ed1613f62565b5b602002602001015190506000848381518110612ef157612ef0613f62565b5b60200260200101519050600060fb600084815260200190815260200160002054905081811015612f56576040517f08c379a0000000000000000000000000000000000000000000000000000000008152600401612f4d90614b16565b60405180910390fd5b81810360fb60008581526020019081526020016000208190555050505080612f7d90613fc0565b9050612eb4565b505b505050505050565b6000612fa0836000018360001b612fb0565b905092915050565b505050505050565b600080836001016000848152602001908152602001600020549050600081146130b8576000600182612fe29190614b36565b9050600060018660000180549050612ffa9190614b36565b905081811461306957600086600001828154811061301b5761301a613f62565b5b906000526020600020015490508087600001848154811061303f5761303e613f62565b5b90600052602060002001819055508387600101600083815260200190815260200160002081905550505b8560000180548061307d5761307c614b6a565b5b6001900381819060005260206000200160009055905585600101600086815260200190815260200160002060009055600193505050506130be565b60009150505b92915050565b604051806101000160405280600073ffffffffffffffffffffffffffffffffffffffff168152602001606081526020016060815260200160008152602001600081526020016000815260200160008152602001600081525090565b82805461312b90613e9e565b90600052602060002090601f01602090048101928261314d5760008555613194565b82601f1061316657805160ff1916838001178555613194565b82800160010185558215613194579182015b82811115613193578251825591602001919060010190613178565b5b5090506131a191906131a5565b5090565b5b808211156131be5760008160009055506001016131a6565b5090565b6000604051905090565b600080fd5b600080fd5b600073ffffffffffffffffffffffffffffffffffffffff82169050919050565b6000613201826131d6565b9050919050565b613211816131f6565b811461321c57600080fd5b50565b60008135905061322e81613208565b92915050565b6000819050919050565b61324781613234565b811461325257600080fd5b50565b6000813590506132648161323e565b92915050565b60008060408385031215613281576132806131cc565b5b600061328f8582860161321f565b92505060206132a085828601613255565b9150509250929050565b6132b381613234565b82525050565b60006020820190506132ce60008301846132aa565b92915050565b60007fffffffff0000000000000000000000000000000000000000000000000000000082169050919050565b613309816132d4565b811461331457600080fd5b50565b60008135905061332681613300565b92915050565b600060208284031215613342576133416131cc565b5b600061335084828501613317565b91505092915050565b60008115159050919050565b61336e81613359565b82525050565b60006020820190506133896000830184613365565b92915050565b600081519050919050565b600082825260208201905092915050565b60005b838110156133c95780820151818401526020810190506133ae565b838111156133d8576000848401525b50505050565b6000601f19601f8301169050919050565b60006133fa8261338f565b613404818561339a565b93506134148185602086016133ab565b61341d816133de565b840191505092915050565b6000602082019050818103600083015261344281846133ef565b905092915050565b6000602082840312156134605761345f6131cc565b5b600061346e84828501613255565b91505092915050565b600080fd5b7f4e487b7100000000000000000000000000000000000000000000000000000000600052604160045260246000fd5b6134b4826133de565b810181811067ffffffffffffffff821117156134d3576134d261347c565b5b80604052505050565b60006134e66131c2565b90506134f282826134ab565b919050565b600067ffffffffffffffff8211156135125761351161347c565b5b602082029050602081019050919050565b600080fd5b600061353b613536846134f7565b6134dc565b9050808382526020820190506020840283018581111561355e5761355d613523565b5b835b8181101561358757806135738882613255565b845260208401935050602081019050613560565b5050509392505050565b600082601f8301126135a6576135a5613477565b5b81356135b6848260208601613528565b91505092915050565b600080fd5b600067ffffffffffffffff8211156135df576135de61347c565b5b6135e8826133de565b9050602081019050919050565b82818337600083830152505050565b6000613617613612846135c4565b6134dc565b905082815260208101848484011115613633576136326135bf565b5b61363e8482856135f5565b509392505050565b600082601f83011261365b5761365a613477565b5b813561366b848260208601613604565b91505092915050565b600080600080600060a086880312156136905761368f6131cc565b5b600061369e8882890161321f565b95505060206136af8882890161321f565b945050604086013567ffffffffffffffff8111156136d0576136cf6131d1565b5b6136dc88828901613591565b935050606086013567ffffffffffffffff8111156136fd576136fc6131d1565b5b61370988828901613591565b925050608086013567ffffffffffffffff81111561372a576137296131d1565b5b61373688828901613646565b9150509295509295909350565b600067ffffffffffffffff82111561375e5761375d61347c565b5b602082029050602081019050919050565b600061378261377d84613743565b6134dc565b905080838252602082019050602084028301858111156137a5576137a4613523565b5b835b818110156137ce57806137ba888261321f565b8452602084019350506020810190506137a7565b5050509392505050565b600082601f8301126137ed576137ec613477565b5b81356137fd84826020860161376f565b91505092915050565b6000806040838503121561381d5761381c6131cc565b5b600083013567ffffffffffffffff81111561383b5761383a6131d1565b5b613847858286016137d8565b925050602083013567ffffffffffffffff811115613868576138676131d1565b5b61387485828601613591565b9150509250929050565b600081519050919050565b600082825260208201905092915050565b6000819050602082019050919050565b6138b381613234565b82525050565b60006138c583836138aa565b60208301905092915050565b6000602082019050919050565b60006138e98261387e565b6138f38185613889565b93506138fe8361389a565b8060005b8381101561392f57815161391688826138b9565b9750613921836138d1565b925050600181019050613902565b5085935050505092915050565b6000602082019050818103600083015261395681846138de565b905092915050565b600067ffffffffffffffff8211156139795761397861347c565b5b613982826133de565b9050602081019050919050565b60006139a261399d8461395e565b6134dc565b9050828152602081018484840111156139be576139bd6135bf565b5b6139c98482856135f5565b509392505050565b600082601f8301126139e6576139e5613477565b5b81356139f684826020860161398f565b91505092915050565b600080600080600080600060e0888a031215613a1e57613a1d6131cc565b5b600088013567ffffffffffffffff811115613a3c57613a3b6131d1565b5b613a488a828b016139d1565b975050602088013567ffffffffffffffff811115613a6957613a686131d1565b5b613a758a828b016139d1565b9650506040613a868a828b01613255565b9550506060613a978a828b01613255565b9450506080613aa88a828b01613255565b93505060a0613ab98a828b01613255565b92505060c0613aca8a828b01613255565b91505092959891949750929550565b600080600060608486031215613af257613af16131cc565b5b6000613b008682870161321f565b935050602084013567ffffffffffffffff811115613b2157613b206131d1565b5b613b2d86828701613591565b925050604084013567ffffffffffffffff811115613b4e57613b4d6131d1565b5b613b5a86828701613591565b9150509250925092565b613b6d816131f6565b82525050565b6000602082019050613b886000830184613b64565b92915050565b600060208284031215613ba457613ba36131cc565b5b6000613bb28482850161321f565b91505092915050565b613bc481613359565b8114613bcf57600080fd5b50565b600081359050613be181613bbb565b92915050565b60008060408385031215613bfe57613bfd6131cc565b5b6000613c0c8582860161321f565b9250506020613c1d85828601613bd2565b9150509250929050565b60008060408385031215613c3e57613c3d6131cc565b5b6000613c4c8582860161321f565b9250506020613c5d8582860161321f565b9150509250929050565b600080600080600060a08688031215613c8357613c826131cc565b5b6000613c918882890161321f565b9550506020613ca28882890161321f565b9450506040613cb388828901613255565b9350506060613cc488828901613255565b925050608086013567ffffffffffffffff811115613ce557613ce46131d1565b5b613cf188828901613646565b9150509295509295909350565b600080600060608486031215613d1757613d166131cc565b5b6000613d258682870161321f565b9350506020613d3686828701613255565b9250506040613d4786828701613255565b9150509250925092565b600061010082019050613d67600083018b613b64565b8181036020830152613d79818a6133ef565b90508181036040830152613d8d81896133ef565b9050613d9c60608301886132aa565b613da960808301876132aa565b613db660a08301866132aa565b613dc360c08301856132aa565b613dd060e08301846132aa565b9998505050505050505050565b7f455243313135353a2061646472657373207a65726f206973206e6f742061207660008201527f616c6964206f776e657200000000000000000000000000000000000000000000602082015250565b6000613e39602a8361339a565b9150613e4482613ddd565b604082019050919050565b60006020820190508181036000830152613e6881613e2c565b9050919050565b7f4e487b7100000000000000000000000000000000000000000000000000000000600052602260045260246000fd5b60006002820490506001821680613eb657607f821691505b60208210811415613eca57613ec9613e6f565b5b50919050565b7f455243313135353a206163636f756e747320616e6420696473206c656e67746860008201527f206d69736d617463680000000000000000000000000000000000000000000000602082015250565b6000613f2c60298361339a565b9150613f3782613ed0565b604082019050919050565b60006020820190508181036000830152613f5b81613f1f565b9050919050565b7f4e487b7100000000000000000000000000000000000000000000000000000000600052603260045260246000fd5b7f4e487b7100000000000000000000000000000000000000000000000000000000600052601160045260246000fd5b6000613fcb82613234565b91507fffffffffffffffffffffffffffffffffffffffffffffffffffffffffffffffff821415613ffe57613ffd613f91565b5b600182019050919050565b600061401482613234565b915061401f83613234565b9250827fffffffffffffffffffffffffffffffffffffffffffffffffffffffffffffffff0382111561405457614053613f91565b5b828201905092915050565b60006040820190506140746000830185613b64565b61408160208301846132aa565b9392505050565b7f496e697469616c697a61626c653a20636f6e747261637420697320616c72656160008201527f647920696e697469616c697a6564000000000000000000000000000000000000602082015250565b60006140e4602e8361339a565b91506140ef82614088565b604082019050919050565b60006020820190508181036000830152614113816140d7565b9050919050565b6000819050919050565b600060ff82169050919050565b6000819050919050565b600061415661415161414c8461411a565b614131565b614124565b9050919050565b6141668161413b565b82525050565b6000602082019050614181600083018461415d565b92915050565b600060408201905061419c60008301856132aa565b6141a960208301846132aa565b9392505050565b60006141cb6141c66141c1846131d6565b614131565b6131d6565b9050919050565b60006141dd826141b0565b9050919050565b60006141ef826141d2565b9050919050565b6141ff816141e4565b82525050565b600060608201905061421a60008301866132aa565b61422760208301856141f6565b61423460408301846132aa565b949350505050565b7f4f776e61626c653a206e6577206f776e657220697320746865207a65726f206160008201527f6464726573730000000000000000000000000000000000000000000000000000602082015250565b600061429860268361339a565b91506142a38261423c565b604082019050919050565b600060208201905081810360008301526142c78161428b565b9050919050565b7f4f776e61626c653a2063616c6c6572206973206e6f7420746865206f776e6572600082015250565b600061430460208361339a565b915061430f826142ce565b602082019050919050565b60006020820190508181036000830152614333816142f7565b9050919050565b7f496e697469616c697a61626c653a20636f6e7472616374206973206e6f74206960008201527f6e697469616c697a696e67000000000000000000000000000000000000000000602082015250565b6000614396602b8361339a565b91506143a18261433a565b604082019050919050565b600060208201905081810360008301526143c581614389565b9050919050565b7f455243313135353a206d696e7420746f20746865207a65726f2061646472657360008201527f7300000000000000000000000000000000000000000000000000000000000000602082015250565b600061442860218361339a565b9150614433826143cc565b604082019050919050565b600060208201905081810360008301526144578161441b565b9050919050565b7f455243313135353a2073657474696e6720617070726f76616c2073746174757360008201527f20666f722073656c660000000000000000000000000000000000000000000000602082015250565b60006144ba60298361339a565b91506144c58261445e565b604082019050919050565b600060208201905081810360008301526144e9816144ad565b9050919050565b7f455243313135353a2063616c6c6572206973206e6f7420746f6b656e206f776e60008201527f6572206f7220617070726f766564000000000000000000000000000000000000602082015250565b600061454c602e8361339a565b9150614557826144f0565b604082019050919050565b6000602082019050818103600083015261457b8161453f565b9050919050565b600081519050919050565b600082825260208201905092915050565b60006145a982614582565b6145b3818561458d565b93506145c38185602086016133ab565b6145cc816133de565b840191505092915050565b600060a0820190506145ec6000830188613b64565b6145f96020830187613b64565b61460660408301866132aa565b61461360608301856132aa565b8181036080830152614625818461459e565b90509695505050505050565b60008151905061464081613300565b92915050565b60006020828403121561465c5761465b6131cc565b5b600061466a84828501614631565b91505092915050565b60008160e01c9050919050565b600060033d111561469f5760046000803e61469c600051614673565b90505b90565b600060443d10156146b257614735565b6146ba6131c2565b60043d036004823e80513d602482011167ffffffffffffffff821117156146e2575050614735565b808201805167ffffffffffffffff8111156147005750505050614735565b80602083010160043d03850181111561471d575050505050614735565b61472c826020018501866134ab565b82955050505050505b90565b7f455243313135353a207472616e7366657220746f206e6f6e2d4552433131353560008201527f526563656976657220696d706c656d656e746572000000000000000000000000602082015250565b600061479460348361339a565b915061479f82614738565b604082019050919050565b600060208201905081810360008301526147c381614787565b9050919050565b7f455243313135353a204552433131353552656365697665722072656a6563746560008201527f6420746f6b656e73000000000000000000000000000000000000000000000000602082015250565b600061482660288361339a565b9150614831826147ca565b604082019050919050565b6000602082019050818103600083015261485581614819565b9050919050565b7f455243313135353a207472616e7366657220746f20746865207a65726f20616460008201527f6472657373000000000000000000000000000000000000000000000000000000602082015250565b60006148b860258361339a565b91506148c38261485c565b604082019050919050565b600060208201905081810360008301526148e7816148ab565b9050919050565b7f455243313135353a20696e73756666696369656e742062616c616e636520666f60008201527f72207472616e7366657200000000000000000000000000000000000000000000602082015250565b600061494a602a8361339a565b9150614955826148ee565b604082019050919050565b600060208201905081810360008301526149798161493d565b9050919050565b7f455243313135353a206275726e2066726f6d20746865207a65726f206164647260008201527f6573730000000000000000000000000000000000000000000000000000000000602082015250565b60006149dc60238361339a565b91506149e782614980565b604082019050919050565b60006020820190508181036000830152614a0b816149cf565b9050919050565b7f455243313135353a206275726e20616d6f756e7420657863656564732062616c60008201527f616e636500000000000000000000000000000000000000000000000000000000602082015250565b6000614a6e60248361339a565b9150614a7982614a12565b604082019050919050565b60006020820190508181036000830152614a9d81614a61565b9050919050565b7f455243313135353a206275726e20616d6f756e74206578636565647320746f7460008201527f616c537570706c79000000000000000000000000000000000000000000000000602082015250565b6000614b0060288361339a565b9150614b0b82614aa4565b604082019050919050565b60006020820190508181036000830152614b2f81614af3565b9050919050565b6000614b4182613234565b9150614b4c83613234565b925082821015614b5f57614b5e613f91565b5b828203905092915050565b7f4e487b7100000000000000000000000000000000000000000000000000000000600052603160045260246000fdfea26469706673582212205e7a79f1709e418bb9de518e4acf0939d5e60d0ea937f037ab6b51a13d36c85364736f6c63430008090033",
  "linkReferences": {},
  "deployedLinkReferences": {}
}