{
  "_format": "hh-sol-artifact-1",
  "contractName": "Hashies",
  "sourceName": "contracts/Hashies.sol",
  "abi": [
    {
      "inputs": [],
      "stateMutability": "nonpayable",
      "type": "constructor"
    },
    {
      "inputs": [],
      "name": "EmptyName",
      "type": "error"
    },
    {
      "inputs": [],
      "name": "EndingTimestampTooEarly",
      "type": "error"
    },
    {
      "inputs": [
        {
          "internalType": "uint256",
          "name": "expected",
          "type": "uint256"
        },
        {
          "internalType": "uint256",
          "name": "received",
          "type": "uint256"
        }
      ],
      "name": "InsufficientPayment",
      "type": "error"
    },
    {
      "inputs": [],
      "name": "MintLimitReached",
      "type": "error"
    },
    {
      "inputs": [
        {
          "internalType": "address",
          "name": "minter",
          "type": "address"
        },
        {
          "internalType": "uint256",
          "name": "collectionId",
          "type": "uint256"
        }
      ],
      "name": "OnlyOneAllowedPerAddress",
      "type": "error"
    },
    {
      "inputs": [],
      "name": "OutsideOfMintingTimeRange",
      "type": "error"
    },
    {
      "inputs": [],
      "name": "TimestampsOutOfOrder",
      "type": "error"
    },
    {
      "inputs": [],
      "name": "UnknownCollection",
      "type": "error"
    },
    {
      "anonymous": false,
      "inputs": [
        {
          "indexed": true,
          "internalType": "address",
          "name": "account",
          "type": "address"
        },
        {
          "indexed": true,
          "internalType": "address",
          "name": "operator",
          "type": "address"
        },
        {
          "indexed": false,
          "internalType": "bool",
          "name": "approved",
          "type": "bool"
        }
      ],
      "name": "ApprovalForAll",
      "type": "event"
    },
    {
      "anonymous": false,
      "inputs": [
        {
          "indexed": false,
          "internalType": "address",
          "name": "owner",
          "type": "address"
        },
        {
          "indexed": false,
          "internalType": "uint256",
          "name": "collectionId",
          "type": "uint256"
        }
      ],
      "name": "CollectionCreated",
      "type": "event"
    },
    {
      "anonymous": false,
      "inputs": [
        {
          "indexed": false,
          "internalType": "uint8",
          "name": "version",
          "type": "uint8"
        }
      ],
      "name": "Initialized",
      "type": "event"
    },
    {
      "anonymous": false,
      "inputs": [
        {
          "indexed": true,
          "internalType": "address",
          "name": "previousOwner",
          "type": "address"
        },
        {
          "indexed": true,
          "internalType": "address",
          "name": "newOwner",
          "type": "address"
        }
      ],
      "name": "OwnershipTransferred",
      "type": "event"
    },
    {
      "anonymous": false,
      "inputs": [
        {
          "indexed": true,
          "internalType": "address",
          "name": "operator",
          "type": "address"
        },
        {
          "indexed": true,
          "internalType": "address",
          "name": "from",
          "type": "address"
        },
        {
          "indexed": true,
          "internalType": "address",
          "name": "to",
          "type": "address"
        },
        {
          "indexed": false,
          "internalType": "uint256[]",
          "name": "ids",
          "type": "uint256[]"
        },
        {
          "indexed": false,
          "internalType": "uint256[]",
          "name": "values",
          "type": "uint256[]"
        }
      ],
      "name": "TransferBatch",
      "type": "event"
    },
    {
      "anonymous": false,
      "inputs": [
        {
          "indexed": true,
          "internalType": "address",
          "name": "operator",
          "type": "address"
        },
        {
          "indexed": true,
          "internalType": "address",
          "name": "from",
          "type": "address"
        },
        {
          "indexed": true,
          "internalType": "address",
          "name": "to",
          "type": "address"
        },
        {
          "indexed": false,
          "internalType": "uint256",
          "name": "id",
          "type": "uint256"
        },
        {
          "indexed": false,
          "internalType": "uint256",
          "name": "value",
          "type": "uint256"
        }
      ],
      "name": "TransferSingle",
      "type": "event"
    },
    {
      "anonymous": false,
      "inputs": [
        {
          "indexed": false,
          "internalType": "string",
          "name": "value",
          "type": "string"
        },
        {
          "indexed": true,
          "internalType": "uint256",
          "name": "id",
          "type": "uint256"
        }
      ],
      "name": "URI",
      "type": "event"
    },
    {
      "inputs": [
        {
          "internalType": "address",
          "name": "account",
          "type": "address"
        },
        {
          "internalType": "uint256",
          "name": "id",
          "type": "uint256"
        }
      ],
      "name": "balanceOf",
      "outputs": [
        {
          "internalType": "uint256",
          "name": "",
          "type": "uint256"
        }
      ],
      "stateMutability": "view",
      "type": "function"
    },
    {
      "inputs": [
        {
          "internalType": "address[]",
          "name": "accounts",
          "type": "address[]"
        },
        {
          "internalType": "uint256[]",
          "name": "ids",
          "type": "uint256[]"
        }
      ],
      "name": "balanceOfBatch",
      "outputs": [
        {
          "internalType": "uint256[]",
          "name": "",
          "type": "uint256[]"
        }
      ],
      "stateMutability": "view",
      "type": "function"
    },
    {
      "inputs": [
        {
          "internalType": "address",
          "name": "account",
          "type": "address"
        },
        {
          "internalType": "uint256",
          "name": "id",
          "type": "uint256"
        },
        {
          "internalType": "uint256",
          "name": "value",
          "type": "uint256"
        }
      ],
      "name": "burn",
      "outputs": [],
      "stateMutability": "nonpayable",
      "type": "function"
    },
    {
      "inputs": [
        {
          "internalType": "address",
          "name": "account",
          "type": "address"
        },
        {
          "internalType": "uint256[]",
          "name": "ids",
          "type": "uint256[]"
        },
        {
          "internalType": "uint256[]",
          "name": "values",
          "type": "uint256[]"
        }
      ],
      "name": "burnBatch",
      "outputs": [],
      "stateMutability": "nonpayable",
      "type": "function"
    },
    {
      "inputs": [
        {
          "internalType": "uint256",
          "name": "",
          "type": "uint256"
        }
      ],
      "name": "collections",
      "outputs": [
        {
          "internalType": "address",
          "name": "owner",
          "type": "address"
        },
        {
          "internalType": "string",
          "name": "name",
          "type": "string"
        },
        {
          "internalType": "string",
          "name": "uri",
          "type": "string"
        },
        {
          "internalType": "uint256",
          "name": "maxSupply",
          "type": "uint256"
        },
        {
          "internalType": "uint256",
          "name": "earliestMintTimestamp",
          "type": "uint256"
        },
        {
          "internalType": "uint256",
          "name": "latestMintTimestamp",
          "type": "uint256"
        },
        {
          "internalType": "uint256",
          "name": "requiredPayment",
          "type": "uint256"
        }
      ],
      "stateMutability": "view",
      "type": "function"
    },
    {
      "inputs": [],
      "name": "collectionsCount",
      "outputs": [
        {
          "internalType": "uint256",
          "name": "",
          "type": "uint256"
        }
      ],
      "stateMutability": "view",
      "type": "function"
    },
    {
      "inputs": [
        {
          "internalType": "string",
          "name": "name",
          "type": "string"
        },
        {
          "internalType": "string",
          "name": "uri_",
          "type": "string"
        },
        {
          "internalType": "uint256",
          "name": "maxSupply",
          "type": "uint256"
        },
        {
          "internalType": "uint256",
          "name": "earliestMintTimestamp",
          "type": "uint256"
        },
        {
          "internalType": "uint256",
          "name": "latestMintTimestamp",
          "type": "uint256"
        },
        {
          "internalType": "uint256",
          "name": "requiredPayment",
          "type": "uint256"
        }
      ],
      "name": "createCollection",
      "outputs": [],
      "stateMutability": "nonpayable",
      "type": "function"
    },
    {
      "inputs": [
        {
          "internalType": "uint256",
          "name": "id",
          "type": "uint256"
        }
      ],
      "name": "exists",
      "outputs": [
        {
          "internalType": "bool",
          "name": "",
          "type": "bool"
        }
      ],
      "stateMutability": "view",
      "type": "function"
    },
    {
      "inputs": [],
      "name": "initialize",
      "outputs": [],
      "stateMutability": "nonpayable",
      "type": "function"
    },
    {
      "inputs": [
        {
          "internalType": "address",
          "name": "account",
          "type": "address"
        },
        {
          "internalType": "address",
          "name": "operator",
          "type": "address"
        }
      ],
      "name": "isApprovedForAll",
      "outputs": [
        {
          "internalType": "bool",
          "name": "",
          "type": "bool"
        }
      ],
      "stateMutability": "view",
      "type": "function"
    },
    {
      "inputs": [
        {
          "internalType": "uint256",
          "name": "collectionId",
          "type": "uint256"
        }
      ],
      "name": "mint",
      "outputs": [],
      "stateMutability": "payable",
      "type": "function"
    },
    {
      "inputs": [
        {
          "internalType": "address",
          "name": "owner",
          "type": "address"
        }
      ],
      "name": "ownedTokens",
      "outputs": [
        {
          "internalType": "uint256[]",
          "name": "ids",
          "type": "uint256[]"
        }
      ],
      "stateMutability": "view",
      "type": "function"
    },
    {
      "inputs": [],
      "name": "owner",
      "outputs": [
        {
          "internalType": "address",
          "name": "",
          "type": "address"
        }
      ],
      "stateMutability": "view",
      "type": "function"
    },
    {
      "inputs": [],
      "name": "renounceOwnership",
      "outputs": [],
      "stateMutability": "nonpayable",
      "type": "function"
    },
    {
      "inputs": [
        {
          "internalType": "address",
          "name": "from",
          "type": "address"
        },
        {
          "internalType": "address",
          "name": "to",
          "type": "address"
        },
        {
          "internalType": "uint256[]",
          "name": "ids",
          "type": "uint256[]"
        },
        {
          "internalType": "uint256[]",
          "name": "amounts",
          "type": "uint256[]"
        },
        {
          "internalType": "bytes",
          "name": "data",
          "type": "bytes"
        }
      ],
      "name": "safeBatchTransferFrom",
      "outputs": [],
      "stateMutability": "nonpayable",
      "type": "function"
    },
    {
      "inputs": [
        {
          "internalType": "address",
          "name": "from",
          "type": "address"
        },
        {
          "internalType": "address",
          "name": "to",
          "type": "address"
        },
        {
          "internalType": "uint256",
          "name": "id",
          "type": "uint256"
        },
        {
          "internalType": "uint256",
          "name": "amount",
          "type": "uint256"
        },
        {
          "internalType": "bytes",
          "name": "data",
          "type": "bytes"
        }
      ],
      "name": "safeTransferFrom",
      "outputs": [],
      "stateMutability": "nonpayable",
      "type": "function"
    },
    {
      "inputs": [
        {
          "internalType": "address",
          "name": "operator",
          "type": "address"
        },
        {
          "internalType": "bool",
          "name": "approved",
          "type": "bool"
        }
      ],
      "name": "setApprovalForAll",
      "outputs": [],
      "stateMutability": "nonpayable",
      "type": "function"
    },
    {
      "inputs": [
        {
          "internalType": "bytes4",
          "name": "interfaceId",
          "type": "bytes4"
        }
      ],
      "name": "supportsInterface",
      "outputs": [
        {
          "internalType": "bool",
          "name": "",
          "type": "bool"
        }
      ],
      "stateMutability": "view",
      "type": "function"
    },
    {
      "inputs": [
        {
          "internalType": "uint256",
          "name": "id",
          "type": "uint256"
        }
      ],
      "name": "totalSupply",
      "outputs": [
        {
          "internalType": "uint256",
          "name": "",
          "type": "uint256"
        }
      ],
      "stateMutability": "view",
      "type": "function"
    },
    {
      "inputs": [
        {
          "internalType": "address",
          "name": "newOwner",
          "type": "address"
        }
      ],
      "name": "transferOwnership",
      "outputs": [],
      "stateMutability": "nonpayable",
      "type": "function"
    },
    {
      "inputs": [
        {
          "internalType": "uint256",
          "name": "collectionId",
          "type": "uint256"
        }
      ],
      "name": "uri",
      "outputs": [
        {
          "internalType": "string",
          "name": "uri_",
          "type": "string"
        }
      ],
      "stateMutability": "view",
      "type": "function"
    }
  ],
  "bytecode": "0x60806040523480156200001157600080fd5b50620000226200002860201b60201c565b620001d3565b600060019054906101000a900460ff16156200007b576040517f08c379a0000000000000000000000000000000000000000000000000000000008152600401620000729062000176565b60405180910390fd5b60ff801660008054906101000a900460ff1660ff161015620000ed5760ff6000806101000a81548160ff021916908360ff1602179055507f7f26b83ff96e1f2b6a682f133852f6798a09c465da95921460cefb384740249860ff604051620000e49190620001b6565b60405180910390a15b565b600082825260208201905092915050565b7f496e697469616c697a61626c653a20636f6e747261637420697320696e69746960008201527f616c697a696e6700000000000000000000000000000000000000000000000000602082015250565b60006200015e602783620000ef565b91506200016b8262000100565b604082019050919050565b6000602082019050818103600083015262000191816200014f565b9050919050565b600060ff82169050919050565b620001b08162000198565b82525050565b6000602082019050620001cd6000830184620001a5565b92915050565b614d2b80620001e36000396000f3fe6080604052600436106101295760003560e01c80638129fc1c116100ab578063bd85b0391161006f578063bd85b039146103e0578063e985e9c51461041d578063f242432a1461045a578063f2fde38b14610483578063f5298aca146104ac578063fdbda0ec146104d557610129565b80638129fc1c1461031c5780638da5cb5b14610333578063a0712d681461035e578063a22cb4651461037a578063b12ab40f146103a357610129565b80634e1273f4116100f25780634e1273f4146102395780634f558e79146102765780636b20c454146102b3578063715018a6146102dc578063788da8d1146102f357610129565b8062fdd58e1461012e57806301ffc9a71461016b5780630e89341c146101a857806324cc0662146101e55780632eb2c2d614610210575b600080fd5b34801561013a57600080fd5b5061015560048036038101906101509190613345565b610518565b6040516101629190613394565b60405180910390f35b34801561017757600080fd5b50610192600480360381019061018d9190613407565b6105e2565b60405161019f919061344f565b60405180910390f35b3480156101b457600080fd5b506101cf60048036038101906101ca919061346a565b6106c4565b6040516101dc9190613530565b60405180910390f35b3480156101f157600080fd5b506101fa61076d565b6040516102079190613394565b60405180910390f35b34801561021c57600080fd5b506102376004803603810190610232919061374f565b610774565b005b34801561024557600080fd5b50610260600480360381019061025b91906138e1565b610815565b60405161026d9190613a17565b60405180910390f35b34801561028257600080fd5b5061029d6004803603810190610298919061346a565b61092e565b6040516102aa919061344f565b60405180910390f35b3480156102bf57600080fd5b506102da60048036038101906102d59190613a39565b610942565b005b3480156102e857600080fd5b506102f16109df565b005b3480156102ff57600080fd5b5061031a60048036038101906103159190613b65565b6109f3565b005b34801561032857600080fd5b50610331610c73565b005b34801561033f57600080fd5b50610348610dd9565b6040516103559190613c39565b60405180910390f35b6103786004803603810190610373919061346a565b610e03565b005b34801561038657600080fd5b506103a1600480360381019061039c9190613c80565b61110f565b005b3480156103af57600080fd5b506103ca60048036038101906103c59190613cc0565b611125565b6040516103d79190613a17565b60405180910390f35b3480156103ec57600080fd5b506104076004803603810190610402919061346a565b611176565b6040516104149190613394565b60405180910390f35b34801561042957600080fd5b50610444600480360381019061043f9190613ced565b611193565b604051610451919061344f565b60405180910390f35b34801561046657600080fd5b50610481600480360381019061047c9190613d2d565b611227565b005b34801561048f57600080fd5b506104aa60048036038101906104a59190613cc0565b6112c8565b005b3480156104b857600080fd5b506104d360048036038101906104ce9190613dc4565b61134c565b005b3480156104e157600080fd5b506104fc60048036038101906104f7919061346a565b6113e9565b60405161050f9796959493929190613e17565b60405180910390f35b60008073ffffffffffffffffffffffffffffffffffffffff168373ffffffffffffffffffffffffffffffffffffffff161415610589576040517f08c379a000000000000000000000000000000000000000000000000000000000815260040161058090613f06565b60405180910390fd5b6065600083815260200190815260200160002060008473ffffffffffffffffffffffffffffffffffffffff1673ffffffffffffffffffffffffffffffffffffffff16815260200190815260200160002054905092915050565b60007fd9b67a26000000000000000000000000000000000000000000000000000000007bffffffffffffffffffffffffffffffffffffffffffffffffffffffff1916827bffffffffffffffffffffffffffffffffffffffffffffffffffffffff191614806106ad57507f0e89341c000000000000000000000000000000000000000000000000000000007bffffffffffffffffffffffffffffffffffffffffffffffffffffffff1916827bffffffffffffffffffffffffffffffffffffffffffffffffffffffff1916145b806106bd57506106bc8261155c565b5b9050919050565b606061015f600083815260200190815260200160002060020180546106e890613f55565b80601f016020809104026020016040519081016040528092919081815260200182805461071490613f55565b80156107615780601f1061073657610100808354040283529160200191610761565b820191906000526020600020905b81548152906001019060200180831161074457829003601f168201915b50505050509050919050565b6101605481565b61077c6115c6565b73ffffffffffffffffffffffffffffffffffffffff168573ffffffffffffffffffffffffffffffffffffffff1614806107c257506107c1856107bc6115c6565b611193565b5b610801576040517f08c379a00000000000000000000000000000000000000000000000000000000081526004016107f890613ff9565b60405180910390fd5b61080e85858585856115ce565b5050505050565b6060815183511461085b576040517f08c379a00000000000000000000000000000000000000000000000000000000081526004016108529061408b565b60405180910390fd5b6000835167ffffffffffffffff81111561087857610877613557565b5b6040519080825280602002602001820160405280156108a65781602001602082028036833780820191505090505b50905060005b8451811015610923576108f38582815181106108cb576108ca6140ab565b5b60200260200101518583815181106108e6576108e56140ab565b5b6020026020010151610518565b828281518110610906576109056140ab565b5b6020026020010181815250508061091c90614109565b90506108ac565b508091505092915050565b60008061093a83611176565b119050919050565b61094a6115c6565b73ffffffffffffffffffffffffffffffffffffffff168373ffffffffffffffffffffffffffffffffffffffff161480610990575061098f8361098a6115c6565b611193565b5b6109cf576040517f08c379a00000000000000000000000000000000000000000000000000000000081526004016109c690613ff9565b60405180910390fd5b6109da8383836118f3565b505050565b6109e7611bc4565b6109f16000611c42565b565b85600081511415610a30576040517f2ef1310500000000000000000000000000000000000000000000000000000000815260040160405180910390fd5b8260008114158015610a4157504281105b15610a78576040517fa0d7fe2700000000000000000000000000000000000000000000000000000000815260040160405180910390fd5b848460008214158015610a8c575060008114155b8015610a9757508082115b15610ace576040517f262efcda00000000000000000000000000000000000000000000000000000000815260040160405180910390fd5b6000610160549050610ade6131a7565b33816000019073ffffffffffffffffffffffffffffffffffffffff16908173ffffffffffffffffffffffffffffffffffffffff16815250508b81602001819052508a81604001819052508981606001818152505088816080018181525050878160a0018181525050868160c00181815250508061015f600084815260200190815260200160002060008201518160000160006101000a81548173ffffffffffffffffffffffffffffffffffffffff021916908373ffffffffffffffffffffffffffffffffffffffff1602179055506020820151816001019080519060200190610bc89291906131fa565b506040820151816002019080519060200190610be59291906131fa565b50606082015181600301556080820151816004015560a0820151816005015560c0820151816006015590505060016101606000828254610c259190614152565b925050819055507fae66da0f1658d46bfee58255b370697fedca10e984d310c30f2579d377a042553383604051610c5d9291906141a8565b60405180910390a1505050505050505050505050565b60008060019054906101000a900460ff16159050808015610ca45750600160008054906101000a900460ff1660ff16105b80610cd15750610cb330611d08565b158015610cd05750600160008054906101000a900460ff1660ff16145b5b610d10576040517f08c379a0000000000000000000000000000000000000000000000000000000008152600401610d0790614243565b60405180910390fd5b60016000806101000a81548160ff021916908360ff1602179055508015610d4d576001600060016101000a81548160ff0219169083151502179055505b610d6560405180602001604052806000815250611d2b565b610d6d611d86565b610d75611dd7565b610d7d611e30565b8015610dd65760008060016101000a81548160ff0219169083151502179055507f7f26b83ff96e1f2b6a682f133852f6798a09c465da95921460cefb38474024986001604051610dcd91906142b5565b60405180910390a15b50565b600060c960009054906101000a900473ffffffffffffffffffffffffffffffffffffffff16905090565b806000610e103383610518565b14610e545733816040517f6af3345f000000000000000000000000000000000000000000000000000000008152600401610e4b9291906141a8565b60405180910390fd5b81600061015f60008381526020019081526020016000206001018054610e7990613f55565b90501415610eb3576040517f6f684e7200000000000000000000000000000000000000000000000000000000815260040160405180910390fd5b82600061015f600083815260200190815260200160002060030154905060008114158015610ee9575080610ee683611176565b10155b15610f20576040517f303b682f00000000000000000000000000000000000000000000000000000000815260040160405180910390fd5b84600061015f600083815260200190815260200160002060040154905060008114158015610f4d57504281115b15610f84576040517f6713fbad00000000000000000000000000000000000000000000000000000000815260040160405180910390fd5b86600061015f600083815260200190815260200160002060050154905060008114158015610fb157504281105b15610fe8576040517f6713fbad00000000000000000000000000000000000000000000000000000000815260040160405180910390fd5b88600061015f60008381526020019081526020016000206006015490506000811415801561101557508034105b156110595780346040517fb99e2ab70000000000000000000000000000000000000000000000000000000081526004016110509291906142d0565b60405180910390fd5b600034146110e657600061015f60008d815260200190815260200160002060000160009054906101000a900473ffffffffffffffffffffffffffffffffffffffff1690508073ffffffffffffffffffffffffffffffffffffffff166108fc349081150290604051600060405180830381858888f193505050501580156110e3573d6000803e3d6000fd5b50505b611102338c600160405180602001604052806000815250611e81565b5050505050505050505050565b61112161111a6115c6565b8383612033565b5050565b606061116f61012d60008473ffffffffffffffffffffffffffffffffffffffff1673ffffffffffffffffffffffffffffffffffffffff1681526020019081526020016000206121a0565b9050919050565b600060fb6000838152602001908152602001600020549050919050565b6000606660008473ffffffffffffffffffffffffffffffffffffffff1673ffffffffffffffffffffffffffffffffffffffff16815260200190815260200160002060008373ffffffffffffffffffffffffffffffffffffffff1673ffffffffffffffffffffffffffffffffffffffff16815260200190815260200160002060009054906101000a900460ff16905092915050565b61122f6115c6565b73ffffffffffffffffffffffffffffffffffffffff168573ffffffffffffffffffffffffffffffffffffffff16148061127557506112748561126f6115c6565b611193565b5b6112b4576040517f08c379a00000000000000000000000000000000000000000000000000000000081526004016112ab90613ff9565b60405180910390fd5b6112c185858585856121c1565b5050505050565b6112d0611bc4565b600073ffffffffffffffffffffffffffffffffffffffff168173ffffffffffffffffffffffffffffffffffffffff161415611340576040517f08c379a00000000000000000000000000000000000000000000000000000000081526004016113379061436b565b60405180910390fd5b61134981611c42565b50565b6113546115c6565b73ffffffffffffffffffffffffffffffffffffffff168373ffffffffffffffffffffffffffffffffffffffff16148061139a5750611399836113946115c6565b611193565b5b6113d9576040517f08c379a00000000000000000000000000000000000000000000000000000000081526004016113d090613ff9565b60405180910390fd5b6113e4838383612460565b505050565b61015f6020528060005260406000206000915090508060000160009054906101000a900473ffffffffffffffffffffffffffffffffffffffff169080600101805461143390613f55565b80601f016020809104026020016040519081016040528092919081815260200182805461145f90613f55565b80156114ac5780601f10611481576101008083540402835291602001916114ac565b820191906000526020600020905b81548152906001019060200180831161148f57829003601f168201915b5050505050908060020180546114c190613f55565b80601f01602080910402602001604051908101604052809291908181526020018280546114ed90613f55565b801561153a5780601f1061150f5761010080835404028352916020019161153a565b820191906000526020600020905b81548152906001019060200180831161151d57829003601f168201915b5050505050908060030154908060040154908060050154908060060154905087565b60007f01ffc9a7000000000000000000000000000000000000000000000000000000007bffffffffffffffffffffffffffffffffffffffffffffffffffffffff1916827bffffffffffffffffffffffffffffffffffffffffffffffffffffffff1916149050919050565b600033905090565b8151835114611612576040517f08c379a0000000000000000000000000000000000000000000000000000000008152600401611609906143fd565b60405180910390fd5b600073ffffffffffffffffffffffffffffffffffffffff168473ffffffffffffffffffffffffffffffffffffffff161415611682576040517f08c379a00000000000000000000000000000000000000000000000000000000081526004016116799061448f565b60405180910390fd5b600061168c6115c6565b905061169c8187878787876126a9565b60005b84518110156118505760008582815181106116bd576116bc6140ab565b5b6020026020010151905060008583815181106116dc576116db6140ab565b5b6020026020010151905060006065600084815260200190815260200160002060008b73ffffffffffffffffffffffffffffffffffffffff1673ffffffffffffffffffffffffffffffffffffffff1681526020019081526020016000205490508181101561177e576040517f08c379a000000000000000000000000000000000000000000000000000000000815260040161177590614521565b60405180910390fd5b8181036065600085815260200190815260200160002060008c73ffffffffffffffffffffffffffffffffffffffff1673ffffffffffffffffffffffffffffffffffffffff16815260200190815260200160002081905550816065600085815260200190815260200160002060008b73ffffffffffffffffffffffffffffffffffffffff1673ffffffffffffffffffffffffffffffffffffffff16815260200190815260200160002060008282546118359190614152565b925050819055505050508061184990614109565b905061169f565b508473ffffffffffffffffffffffffffffffffffffffff168673ffffffffffffffffffffffffffffffffffffffff168273ffffffffffffffffffffffffffffffffffffffff167f4a39dc06d4c0dbc64b70af90fd698a233a518aa5d07e595d983b8c0526c8f7fb87876040516118c7929190614541565b60405180910390a46118dd8187878787876126bf565b6118eb8187878787876126c7565b505050505050565b600073ffffffffffffffffffffffffffffffffffffffff168373ffffffffffffffffffffffffffffffffffffffff161415611963576040517f08c379a000000000000000000000000000000000000000000000000000000000815260040161195a906145ea565b60405180910390fd5b80518251146119a7576040517f08c379a000000000000000000000000000000000000000000000000000000000815260040161199e906143fd565b60405180910390fd5b60006119b16115c6565b90506119d1818560008686604051806020016040528060008152506126a9565b60005b8351811015611b205760008482815181106119f2576119f16140ab565b5b602002602001015190506000848381518110611a1157611a106140ab565b5b6020026020010151905060006065600084815260200190815260200160002060008973ffffffffffffffffffffffffffffffffffffffff1673ffffffffffffffffffffffffffffffffffffffff16815260200190815260200160002054905081811015611ab3576040517f08c379a0000000000000000000000000000000000000000000000000000000008152600401611aaa9061467c565b60405180910390fd5b8181036065600085815260200190815260200160002060008a73ffffffffffffffffffffffffffffffffffffffff1673ffffffffffffffffffffffffffffffffffffffff168152602001908152602001600020819055505050508080611b1890614109565b9150506119d4565b50600073ffffffffffffffffffffffffffffffffffffffff168473ffffffffffffffffffffffffffffffffffffffff168273ffffffffffffffffffffffffffffffffffffffff167f4a39dc06d4c0dbc64b70af90fd698a233a518aa5d07e595d983b8c0526c8f7fb8686604051611b98929190614541565b60405180910390a4611bbe818560008686604051806020016040528060008152506126bf565b50505050565b611bcc6115c6565b73ffffffffffffffffffffffffffffffffffffffff16611bea610dd9565b73ffffffffffffffffffffffffffffffffffffffff1614611c40576040517f08c379a0000000000000000000000000000000000000000000000000000000008152600401611c37906146e8565b60405180910390fd5b565b600060c960009054906101000a900473ffffffffffffffffffffffffffffffffffffffff1690508160c960006101000a81548173ffffffffffffffffffffffffffffffffffffffff021916908373ffffffffffffffffffffffffffffffffffffffff1602179055508173ffffffffffffffffffffffffffffffffffffffff168173ffffffffffffffffffffffffffffffffffffffff167f8be0079c531659141344cd1fd0a4f28419497f9722a3daafe3b4186f6b6457e060405160405180910390a35050565b6000808273ffffffffffffffffffffffffffffffffffffffff163b119050919050565b600060019054906101000a900460ff16611d7a576040517f08c379a0000000000000000000000000000000000000000000000000000000008152600401611d719061477a565b60405180910390fd5b611d83816128ae565b50565b600060019054906101000a900460ff16611dd5576040517f08c379a0000000000000000000000000000000000000000000000000000000008152600401611dcc9061477a565b60405180910390fd5b565b600060019054906101000a900460ff16611e26576040517f08c379a0000000000000000000000000000000000000000000000000000000008152600401611e1d9061477a565b60405180910390fd5b611e2e612909565b565b600060019054906101000a900460ff16611e7f576040517f08c379a0000000000000000000000000000000000000000000000000000000008152600401611e769061477a565b60405180910390fd5b565b600073ffffffffffffffffffffffffffffffffffffffff168473ffffffffffffffffffffffffffffffffffffffff161415611ef1576040517f08c379a0000000000000000000000000000000000000000000000000000000008152600401611ee89061480c565b60405180910390fd5b6000611efb6115c6565b90506000611f088561296a565b90506000611f158561296a565b9050611f26836000898585896126a9565b846065600088815260200190815260200160002060008973ffffffffffffffffffffffffffffffffffffffff1673ffffffffffffffffffffffffffffffffffffffff1681526020019081526020016000206000828254611f869190614152565b925050819055508673ffffffffffffffffffffffffffffffffffffffff16600073ffffffffffffffffffffffffffffffffffffffff168473ffffffffffffffffffffffffffffffffffffffff167fc3d58168c5ae7397731d063d5bbf3d657854427343f4c083240f7aacaa2d0f6289896040516120049291906142d0565b60405180910390a461201b836000898585896126bf565b61202a836000898989896129e4565b50505050505050565b8173ffffffffffffffffffffffffffffffffffffffff168373ffffffffffffffffffffffffffffffffffffffff1614156120a2576040517f08c379a00000000000000000000000000000000000000000000000000000000081526004016120999061489e565b60405180910390fd5b80606660008573ffffffffffffffffffffffffffffffffffffffff1673ffffffffffffffffffffffffffffffffffffffff16815260200190815260200160002060008473ffffffffffffffffffffffffffffffffffffffff1673ffffffffffffffffffffffffffffffffffffffff16815260200190815260200160002060006101000a81548160ff0219169083151502179055508173ffffffffffffffffffffffffffffffffffffffff168373ffffffffffffffffffffffffffffffffffffffff167f17307eab39ab6107e8899845ad3d59bd9653f200f220920489ca2b5937696c3183604051612193919061344f565b60405180910390a3505050565b606060006121b083600001612bcb565b905060608190508092505050919050565b600073ffffffffffffffffffffffffffffffffffffffff168473ffffffffffffffffffffffffffffffffffffffff161415612231576040517f08c379a00000000000000000000000000000000000000000000000000000000081526004016122289061448f565b60405180910390fd5b600061223b6115c6565b905060006122488561296a565b905060006122558561296a565b90506122658389898585896126a9565b60006065600088815260200190815260200160002060008a73ffffffffffffffffffffffffffffffffffffffff1673ffffffffffffffffffffffffffffffffffffffff168152602001908152602001600020549050858110156122fd576040517f08c379a00000000000000000000000000000000000000000000000000000000081526004016122f490614521565b60405180910390fd5b8581036065600089815260200190815260200160002060008b73ffffffffffffffffffffffffffffffffffffffff1673ffffffffffffffffffffffffffffffffffffffff16815260200190815260200160002081905550856065600089815260200190815260200160002060008a73ffffffffffffffffffffffffffffffffffffffff1673ffffffffffffffffffffffffffffffffffffffff16815260200190815260200160002060008282546123b49190614152565b925050819055508773ffffffffffffffffffffffffffffffffffffffff168973ffffffffffffffffffffffffffffffffffffffff168573ffffffffffffffffffffffffffffffffffffffff167fc3d58168c5ae7397731d063d5bbf3d657854427343f4c083240f7aacaa2d0f628a8a6040516124319291906142d0565b60405180910390a4612447848a8a86868a6126bf565b612455848a8a8a8a8a6129e4565b505050505050505050565b600073ffffffffffffffffffffffffffffffffffffffff168373ffffffffffffffffffffffffffffffffffffffff1614156124d0576040517f08c379a00000000000000000000000000000000000000000000000000000000081526004016124c7906145ea565b60405180910390fd5b60006124da6115c6565b905060006124e78461296a565b905060006124f48461296a565b9050612514838760008585604051806020016040528060008152506126a9565b60006065600087815260200190815260200160002060008873ffffffffffffffffffffffffffffffffffffffff1673ffffffffffffffffffffffffffffffffffffffff168152602001908152602001600020549050848110156125ac576040517f08c379a00000000000000000000000000000000000000000000000000000000081526004016125a39061467c565b60405180910390fd5b8481036065600088815260200190815260200160002060008973ffffffffffffffffffffffffffffffffffffffff1673ffffffffffffffffffffffffffffffffffffffff16815260200190815260200160002081905550600073ffffffffffffffffffffffffffffffffffffffff168773ffffffffffffffffffffffffffffffffffffffff168573ffffffffffffffffffffffffffffffffffffffff167fc3d58168c5ae7397731d063d5bbf3d657854427343f4c083240f7aacaa2d0f62898960405161267a9291906142d0565b60405180910390a46126a0848860008686604051806020016040528060008152506126bf565b50505050505050565b6126b7868686868686612c27565b505050505050565b505050505050565b6126e68473ffffffffffffffffffffffffffffffffffffffff16611d08565b156128a6578373ffffffffffffffffffffffffffffffffffffffff1663bc197c8187878686866040518663ffffffff1660e01b815260040161272c959493929190614913565b602060405180830381600087803b15801561274657600080fd5b505af192505050801561277757506040513d601f19601f820116820180604052508101906127749190614990565b60015b61281d576127836149ca565b806308c379a014156127e057506127986149ec565b806127a357506127e2565b806040517f08c379a00000000000000000000000000000000000000000000000000000000081526004016127d79190613530565b60405180910390fd5b505b6040517f08c379a000000000000000000000000000000000000000000000000000000000815260040161281490614af4565b60405180910390fd5b63bc197c8160e01b7bffffffffffffffffffffffffffffffffffffffffffffffffffffffff1916817bffffffffffffffffffffffffffffffffffffffffffffffffffffffff1916146128a4576040517f08c379a000000000000000000000000000000000000000000000000000000000815260040161289b90614b86565b60405180910390fd5b505b505050505050565b600060019054906101000a900460ff166128fd576040517f08c379a00000000000000000000000000000000000000000000000000000000081526004016128f49061477a565b60405180910390fd5b61290681612dd8565b50565b600060019054906101000a900460ff16612958576040517f08c379a000000000000000000000000000000000000000000000000000000000815260040161294f9061477a565b60405180910390fd5b6129686129636115c6565b611c42565b565b60606000600167ffffffffffffffff81111561298957612988613557565b5b6040519080825280602002602001820160405280156129b75781602001602082028036833780820191505090505b50905082816000815181106129cf576129ce6140ab565b5b60200260200101818152505080915050919050565b612a038473ffffffffffffffffffffffffffffffffffffffff16611d08565b15612bc3578373ffffffffffffffffffffffffffffffffffffffff1663f23a6e6187878686866040518663ffffffff1660e01b8152600401612a49959493929190614ba6565b602060405180830381600087803b158015612a6357600080fd5b505af1925050508015612a9457506040513d601f19601f82011682018060405250810190612a919190614990565b60015b612b3a57612aa06149ca565b806308c379a01415612afd5750612ab56149ec565b80612ac05750612aff565b806040517f08c379a0000000000000000000000000000000000000000000000000000000008152600401612af49190613530565b60405180910390fd5b505b6040517f08c379a0000000000000000000000000000000000000000000000000000000008152600401612b3190614af4565b60405180910390fd5b63f23a6e6160e01b7bffffffffffffffffffffffffffffffffffffffffffffffffffffffff1916817bffffffffffffffffffffffffffffffffffffffffffffffffffffffff191614612bc1576040517f08c379a0000000000000000000000000000000000000000000000000000000008152600401612bb890614b86565b60405180910390fd5b505b505050505050565b606081600001805480602002602001604051908101604052809291908181526020018280548015612c1b57602002820191906000526020600020905b815481526020019060010190808311612c07575b50505050509050919050565b612c35868686868686612df2565b60005b8351811015612dcf57600073ffffffffffffffffffffffffffffffffffffffff168673ffffffffffffffffffffffffffffffffffffffff1614158015612cbb5750828181518110612c8c57612c8b6140ab565b5b6020026020010151612cb887868481518110612cab57612caa6140ab565b5b6020026020010151610518565b11155b15612d2557612d2361012d60008873ffffffffffffffffffffffffffffffffffffffff1673ffffffffffffffffffffffffffffffffffffffff168152602001908152602001600020858381518110612d1657612d156140ab565b5b6020026020010151612fc4565b505b600073ffffffffffffffffffffffffffffffffffffffff168573ffffffffffffffffffffffffffffffffffffffff1614612dbe57612dbc61012d60008773ffffffffffffffffffffffffffffffffffffffff1673ffffffffffffffffffffffffffffffffffffffff168152602001908152602001600020858381518110612daf57612dae6140ab565b5b6020026020010151612fde565b505b80612dc890614109565b9050612c38565b50505050505050565b8060679080519060200190612dee9291906131fa565b5050565b612e00868686868686612ff8565b600073ffffffffffffffffffffffffffffffffffffffff168573ffffffffffffffffffffffffffffffffffffffff161415612eb25760005b8351811015612eb057828181518110612e5457612e536140ab565b5b602002602001015160fb6000868481518110612e7357612e726140ab565b5b602002602001015181526020019081526020016000206000828254612e989190614152565b9250508190555080612ea990614109565b9050612e38565b505b600073ffffffffffffffffffffffffffffffffffffffff168473ffffffffffffffffffffffffffffffffffffffff161415612fbc5760005b8351811015612fba576000848281518110612f0857612f076140ab565b5b602002602001015190506000848381518110612f2757612f266140ab565b5b60200260200101519050600060fb600084815260200190815260200160002054905081811015612f8c576040517f08c379a0000000000000000000000000000000000000000000000000000000008152600401612f8390614c72565b60405180910390fd5b81810360fb60008581526020019081526020016000208190555050505080612fb390614109565b9050612eea565b505b505050505050565b6000612fd6836000018360001b613000565b905092915050565b6000612ff0836000018360001b613114565b905092915050565b505050505050565b600080836001016000848152602001908152602001600020549050600081146131085760006001826130329190614c92565b905060006001866000018054905061304a9190614c92565b90508181146130b957600086600001828154811061306b5761306a6140ab565b5b906000526020600020015490508087600001848154811061308f5761308e6140ab565b5b90600052602060002001819055508387600101600083815260200190815260200160002081905550505b856000018054806130cd576130cc614cc6565b5b60019003818190600052602060002001600090559055856001016000868152602001908152602001600020600090556001935050505061310e565b60009150505b92915050565b60006131208383613184565b61317957826000018290806001815401808255809150506001900390600052602060002001600090919091909150558260000180549050836001016000848152602001908152602001600020819055506001905061317e565b600090505b92915050565b600080836001016000848152602001908152602001600020541415905092915050565b6040518060e00160405280600073ffffffffffffffffffffffffffffffffffffffff1681526020016060815260200160608152602001600081526020016000815260200160008152602001600081525090565b82805461320690613f55565b90600052602060002090601f016020900481019282613228576000855561326f565b82601f1061324157805160ff191683800117855561326f565b8280016001018555821561326f579182015b8281111561326e578251825591602001919060010190613253565b5b50905061327c9190613280565b5090565b5b80821115613299576000816000905550600101613281565b5090565b6000604051905090565b600080fd5b600080fd5b600073ffffffffffffffffffffffffffffffffffffffff82169050919050565b60006132dc826132b1565b9050919050565b6132ec816132d1565b81146132f757600080fd5b50565b600081359050613309816132e3565b92915050565b6000819050919050565b6133228161330f565b811461332d57600080fd5b50565b60008135905061333f81613319565b92915050565b6000806040838503121561335c5761335b6132a7565b5b600061336a858286016132fa565b925050602061337b85828601613330565b9150509250929050565b61338e8161330f565b82525050565b60006020820190506133a96000830184613385565b92915050565b60007fffffffff0000000000000000000000000000000000000000000000000000000082169050919050565b6133e4816133af565b81146133ef57600080fd5b50565b600081359050613401816133db565b92915050565b60006020828403121561341d5761341c6132a7565b5b600061342b848285016133f2565b91505092915050565b60008115159050919050565b61344981613434565b82525050565b60006020820190506134646000830184613440565b92915050565b6000602082840312156134805761347f6132a7565b5b600061348e84828501613330565b91505092915050565b600081519050919050565b600082825260208201905092915050565b60005b838110156134d15780820151818401526020810190506134b6565b838111156134e0576000848401525b50505050565b6000601f19601f8301169050919050565b600061350282613497565b61350c81856134a2565b935061351c8185602086016134b3565b613525816134e6565b840191505092915050565b6000602082019050818103600083015261354a81846134f7565b905092915050565b600080fd5b7f4e487b7100000000000000000000000000000000000000000000000000000000600052604160045260246000fd5b61358f826134e6565b810181811067ffffffffffffffff821117156135ae576135ad613557565b5b80604052505050565b60006135c161329d565b90506135cd8282613586565b919050565b600067ffffffffffffffff8211156135ed576135ec613557565b5b602082029050602081019050919050565b600080fd5b6000613616613611846135d2565b6135b7565b90508083825260208201905060208402830185811115613639576136386135fe565b5b835b81811015613662578061364e8882613330565b84526020840193505060208101905061363b565b5050509392505050565b600082601f83011261368157613680613552565b5b8135613691848260208601613603565b91505092915050565b600080fd5b600067ffffffffffffffff8211156136ba576136b9613557565b5b6136c3826134e6565b9050602081019050919050565b82818337600083830152505050565b60006136f26136ed8461369f565b6135b7565b90508281526020810184848401111561370e5761370d61369a565b5b6137198482856136d0565b509392505050565b600082601f83011261373657613735613552565b5b81356137468482602086016136df565b91505092915050565b600080600080600060a0868803121561376b5761376a6132a7565b5b6000613779888289016132fa565b955050602061378a888289016132fa565b945050604086013567ffffffffffffffff8111156137ab576137aa6132ac565b5b6137b78882890161366c565b935050606086013567ffffffffffffffff8111156137d8576137d76132ac565b5b6137e48882890161366c565b925050608086013567ffffffffffffffff811115613805576138046132ac565b5b61381188828901613721565b9150509295509295909350565b600067ffffffffffffffff82111561383957613838613557565b5b602082029050602081019050919050565b600061385d6138588461381e565b6135b7565b905080838252602082019050602084028301858111156138805761387f6135fe565b5b835b818110156138a9578061389588826132fa565b845260208401935050602081019050613882565b5050509392505050565b600082601f8301126138c8576138c7613552565b5b81356138d884826020860161384a565b91505092915050565b600080604083850312156138f8576138f76132a7565b5b600083013567ffffffffffffffff811115613916576139156132ac565b5b613922858286016138b3565b925050602083013567ffffffffffffffff811115613943576139426132ac565b5b61394f8582860161366c565b9150509250929050565b600081519050919050565b600082825260208201905092915050565b6000819050602082019050919050565b61398e8161330f565b82525050565b60006139a08383613985565b60208301905092915050565b6000602082019050919050565b60006139c482613959565b6139ce8185613964565b93506139d983613975565b8060005b83811015613a0a5781516139f18882613994565b97506139fc836139ac565b9250506001810190506139dd565b5085935050505092915050565b60006020820190508181036000830152613a3181846139b9565b905092915050565b600080600060608486031215613a5257613a516132a7565b5b6000613a60868287016132fa565b935050602084013567ffffffffffffffff811115613a8157613a806132ac565b5b613a8d8682870161366c565b925050604084013567ffffffffffffffff811115613aae57613aad6132ac565b5b613aba8682870161366c565b9150509250925092565b600067ffffffffffffffff821115613adf57613ade613557565b5b613ae8826134e6565b9050602081019050919050565b6000613b08613b0384613ac4565b6135b7565b905082815260208101848484011115613b2457613b2361369a565b5b613b2f8482856136d0565b509392505050565b600082601f830112613b4c57613b4b613552565b5b8135613b5c848260208601613af5565b91505092915050565b60008060008060008060c08789031215613b8257613b816132a7565b5b600087013567ffffffffffffffff811115613ba057613b9f6132ac565b5b613bac89828a01613b37565b965050602087013567ffffffffffffffff811115613bcd57613bcc6132ac565b5b613bd989828a01613b37565b9550506040613bea89828a01613330565b9450506060613bfb89828a01613330565b9350506080613c0c89828a01613330565b92505060a0613c1d89828a01613330565b9150509295509295509295565b613c33816132d1565b82525050565b6000602082019050613c4e6000830184613c2a565b92915050565b613c5d81613434565b8114613c6857600080fd5b50565b600081359050613c7a81613c54565b92915050565b60008060408385031215613c9757613c966132a7565b5b6000613ca5858286016132fa565b9250506020613cb685828601613c6b565b9150509250929050565b600060208284031215613cd657613cd56132a7565b5b6000613ce4848285016132fa565b91505092915050565b60008060408385031215613d0457613d036132a7565b5b6000613d12858286016132fa565b9250506020613d23858286016132fa565b9150509250929050565b600080600080600060a08688031215613d4957613d486132a7565b5b6000613d57888289016132fa565b9550506020613d68888289016132fa565b9450506040613d7988828901613330565b9350506060613d8a88828901613330565b925050608086013567ffffffffffffffff811115613dab57613daa6132ac565b5b613db788828901613721565b9150509295509295909350565b600080600060608486031215613ddd57613ddc6132a7565b5b6000613deb868287016132fa565b9350506020613dfc86828701613330565b9250506040613e0d86828701613330565b9150509250925092565b600060e082019050613e2c600083018a613c2a565b8181036020830152613e3e81896134f7565b90508181036040830152613e5281886134f7565b9050613e616060830187613385565b613e6e6080830186613385565b613e7b60a0830185613385565b613e8860c0830184613385565b98975050505050505050565b7f455243313135353a2061646472657373207a65726f206973206e6f742061207660008201527f616c6964206f776e657200000000000000000000000000000000000000000000602082015250565b6000613ef0602a836134a2565b9150613efb82613e94565b604082019050919050565b60006020820190508181036000830152613f1f81613ee3565b9050919050565b7f4e487b7100000000000000000000000000000000000000000000000000000000600052602260045260246000fd5b60006002820490506001821680613f6d57607f821691505b60208210811415613f8157613f80613f26565b5b50919050565b7f455243313135353a2063616c6c6572206973206e6f7420746f6b656e206f776e60008201527f6572206f7220617070726f766564000000000000000000000000000000000000602082015250565b6000613fe3602e836134a2565b9150613fee82613f87565b604082019050919050565b6000602082019050818103600083015261401281613fd6565b9050919050565b7f455243313135353a206163636f756e747320616e6420696473206c656e67746860008201527f206d69736d617463680000000000000000000000000000000000000000000000602082015250565b60006140756029836134a2565b915061408082614019565b604082019050919050565b600060208201905081810360008301526140a481614068565b9050919050565b7f4e487b7100000000000000000000000000000000000000000000000000000000600052603260045260246000fd5b7f4e487b7100000000000000000000000000000000000000000000000000000000600052601160045260246000fd5b60006141148261330f565b91507fffffffffffffffffffffffffffffffffffffffffffffffffffffffffffffffff821415614147576141466140da565b5b600182019050919050565b600061415d8261330f565b91506141688361330f565b9250827fffffffffffffffffffffffffffffffffffffffffffffffffffffffffffffffff0382111561419d5761419c6140da565b5b828201905092915050565b60006040820190506141bd6000830185613c2a565b6141ca6020830184613385565b9392505050565b7f496e697469616c697a61626c653a20636f6e747261637420697320616c72656160008201527f647920696e697469616c697a6564000000000000000000000000000000000000602082015250565b600061422d602e836134a2565b9150614238826141d1565b604082019050919050565b6000602082019050818103600083015261425c81614220565b9050919050565b6000819050919050565b600060ff82169050919050565b6000819050919050565b600061429f61429a61429584614263565b61427a565b61426d565b9050919050565b6142af81614284565b82525050565b60006020820190506142ca60008301846142a6565b92915050565b60006040820190506142e56000830185613385565b6142f26020830184613385565b9392505050565b7f4f776e61626c653a206e6577206f776e657220697320746865207a65726f206160008201527f6464726573730000000000000000000000000000000000000000000000000000602082015250565b60006143556026836134a2565b9150614360826142f9565b604082019050919050565b6000602082019050818103600083015261438481614348565b9050919050565b7f455243313135353a2069647320616e6420616d6f756e7473206c656e6774682060008201527f6d69736d61746368000000000000000000000000000000000000000000000000602082015250565b60006143e76028836134a2565b91506143f28261438b565b604082019050919050565b60006020820190508181036000830152614416816143da565b9050919050565b7f455243313135353a207472616e7366657220746f20746865207a65726f20616460008201527f6472657373000000000000000000000000000000000000000000000000000000602082015250565b60006144796025836134a2565b91506144848261441d565b604082019050919050565b600060208201905081810360008301526144a88161446c565b9050919050565b7f455243313135353a20696e73756666696369656e742062616c616e636520666f60008201527f72207472616e7366657200000000000000000000000000000000000000000000602082015250565b600061450b602a836134a2565b9150614516826144af565b604082019050919050565b6000602082019050818103600083015261453a816144fe565b9050919050565b6000604082019050818103600083015261455b81856139b9565b9050818103602083015261456f81846139b9565b90509392505050565b7f455243313135353a206275726e2066726f6d20746865207a65726f206164647260008201527f6573730000000000000000000000000000000000000000000000000000000000602082015250565b60006145d46023836134a2565b91506145df82614578565b604082019050919050565b60006020820190508181036000830152614603816145c7565b9050919050565b7f455243313135353a206275726e20616d6f756e7420657863656564732062616c60008201527f616e636500000000000000000000000000000000000000000000000000000000602082015250565b60006146666024836134a2565b91506146718261460a565b604082019050919050565b6000602082019050818103600083015261469581614659565b9050919050565b7f4f776e61626c653a2063616c6c6572206973206e6f7420746865206f776e6572600082015250565b60006146d26020836134a2565b91506146dd8261469c565b602082019050919050565b60006020820190508181036000830152614701816146c5565b9050919050565b7f496e697469616c697a61626c653a20636f6e7472616374206973206e6f74206960008201527f6e697469616c697a696e67000000000000000000000000000000000000000000602082015250565b6000614764602b836134a2565b915061476f82614708565b604082019050919050565b6000602082019050818103600083015261479381614757565b9050919050565b7f455243313135353a206d696e7420746f20746865207a65726f2061646472657360008201527f7300000000000000000000000000000000000000000000000000000000000000602082015250565b60006147f66021836134a2565b91506148018261479a565b604082019050919050565b60006020820190508181036000830152614825816147e9565b9050919050565b7f455243313135353a2073657474696e6720617070726f76616c2073746174757360008201527f20666f722073656c660000000000000000000000000000000000000000000000602082015250565b60006148886029836134a2565b91506148938261482c565b604082019050919050565b600060208201905081810360008301526148b78161487b565b9050919050565b600081519050919050565b600082825260208201905092915050565b60006148e5826148be565b6148ef81856148c9565b93506148ff8185602086016134b3565b614908816134e6565b840191505092915050565b600060a0820190506149286000830188613c2a565b6149356020830187613c2a565b818103604083015261494781866139b9565b9050818103606083015261495b81856139b9565b9050818103608083015261496f81846148da565b90509695505050505050565b60008151905061498a816133db565b92915050565b6000602082840312156149a6576149a56132a7565b5b60006149b48482850161497b565b91505092915050565b60008160e01c9050919050565b600060033d11156149e95760046000803e6149e66000516149bd565b90505b90565b600060443d10156149fc57614a7f565b614a0461329d565b60043d036004823e80513d602482011167ffffffffffffffff82111715614a2c575050614a7f565b808201805167ffffffffffffffff811115614a4a5750505050614a7f565b80602083010160043d038501811115614a67575050505050614a7f565b614a7682602001850186613586565b82955050505050505b90565b7f455243313135353a207472616e7366657220746f206e6f6e2d4552433131353560008201527f526563656976657220696d706c656d656e746572000000000000000000000000602082015250565b6000614ade6034836134a2565b9150614ae982614a82565b604082019050919050565b60006020820190508181036000830152614b0d81614ad1565b9050919050565b7f455243313135353a204552433131353552656365697665722072656a6563746560008201527f6420746f6b656e73000000000000000000000000000000000000000000000000602082015250565b6000614b706028836134a2565b9150614b7b82614b14565b604082019050919050565b60006020820190508181036000830152614b9f81614b63565b9050919050565b600060a082019050614bbb6000830188613c2a565b614bc86020830187613c2a565b614bd56040830186613385565b614be26060830185613385565b8181036080830152614bf481846148da565b90509695505050505050565b7f455243313135353a206275726e20616d6f756e74206578636565647320746f7460008201527f616c537570706c79000000000000000000000000000000000000000000000000602082015250565b6000614c5c6028836134a2565b9150614c6782614c00565b604082019050919050565b60006020820190508181036000830152614c8b81614c4f565b9050919050565b6000614c9d8261330f565b9150614ca88361330f565b925082821015614cbb57614cba6140da565b5b828203905092915050565b7f4e487b7100000000000000000000000000000000000000000000000000000000600052603160045260246000fdfea26469706673582212202f42cd4e257bcb3487515eba20c36a18c350cd577b389770ce0aad3339d5a1b764736f6c63430008090033",
  "linkReferences": {},
  "deployedLinkReferences": {}
}