{
  "_format": "hh-sol-artifact-1",
  "contractName": "Hashies",
  "sourceName": "contracts/Hashies.sol",
  "abi": [
    {
      "inputs": [],
      "stateMutability": "nonpayable",
      "type": "constructor"
    },
    {
      "inputs": [],
      "name": "EmptyName",
      "type": "error"
    },
    {
      "inputs": [],
      "name": "EndingTimestampTooEarly",
      "type": "error"
    },
    {
      "inputs": [
        {
          "internalType": "uint256",
          "name": "expected",
          "type": "uint256"
        },
        {
          "internalType": "uint256",
          "name": "received",
          "type": "uint256"
        }
      ],
      "name": "InsufficientPayment",
      "type": "error"
    },
    {
      "inputs": [],
      "name": "MintLimitReached",
      "type": "error"
    },
    {
      "inputs": [],
      "name": "MintingActive",
      "type": "error"
    },
    {
      "inputs": [],
      "name": "MintingDisabled",
      "type": "error"
    },
    {
      "inputs": [],
      "name": "NotBurnable",
      "type": "error"
    },
    {
      "inputs": [],
      "name": "NotSupported",
      "type": "error"
    },
    {
      "inputs": [],
      "name": "NotTransferable",
      "type": "error"
    },
    {
      "inputs": [],
      "name": "OnlyCollectionOwner",
      "type": "error"
    },
    {
      "inputs": [
        {
          "internalType": "address",
          "name": "minter",
          "type": "address"
        },
        {
          "internalType": "uint256",
          "name": "collectionId",
          "type": "uint256"
        }
      ],
      "name": "OnlyOneAllowedPerAddress",
      "type": "error"
    },
    {
      "inputs": [],
      "name": "OutsideOfMintingTimeRange",
      "type": "error"
    },
    {
      "inputs": [],
      "name": "TimestampsOutOfOrder",
      "type": "error"
    },
    {
      "inputs": [],
      "name": "UnknownCollection",
      "type": "error"
    },
    {
      "anonymous": false,
      "inputs": [
        {
          "indexed": true,
          "internalType": "address",
          "name": "account",
          "type": "address"
        },
        {
          "indexed": true,
          "internalType": "address",
          "name": "operator",
          "type": "address"
        },
        {
          "indexed": false,
          "internalType": "bool",
          "name": "approved",
          "type": "bool"
        }
      ],
      "name": "ApprovalForAll",
      "type": "event"
    },
    {
      "anonymous": false,
      "inputs": [
        {
          "indexed": false,
          "internalType": "address",
          "name": "owner",
          "type": "address"
        },
        {
          "indexed": false,
          "internalType": "uint256",
          "name": "collectionId",
          "type": "uint256"
        }
      ],
      "name": "CollectionCreated",
      "type": "event"
    },
    {
      "anonymous": false,
      "inputs": [
        {
          "indexed": false,
          "internalType": "uint8",
          "name": "version",
          "type": "uint8"
        }
      ],
      "name": "Initialized",
      "type": "event"
    },
    {
      "anonymous": false,
      "inputs": [
        {
          "indexed": false,
          "internalType": "uint256",
          "name": "collectionId",
          "type": "uint256"
        }
      ],
      "name": "MintingPaused",
      "type": "event"
    },
    {
      "anonymous": false,
      "inputs": [
        {
          "indexed": false,
          "internalType": "uint256",
          "name": "collectionId",
          "type": "uint256"
        }
      ],
      "name": "MintingResumed",
      "type": "event"
    },
    {
      "anonymous": false,
      "inputs": [
        {
          "indexed": true,
          "internalType": "address",
          "name": "previousOwner",
          "type": "address"
        },
        {
          "indexed": true,
          "internalType": "address",
          "name": "newOwner",
          "type": "address"
        }
      ],
      "name": "OwnershipTransferred",
      "type": "event"
    },
    {
      "anonymous": false,
      "inputs": [
        {
          "indexed": false,
          "internalType": "uint256",
          "name": "collectionId",
          "type": "uint256"
        },
        {
          "indexed": false,
          "internalType": "address",
          "name": "payee",
          "type": "address"
        },
        {
          "indexed": false,
          "internalType": "uint256",
          "name": "amount",
          "type": "uint256"
        }
      ],
      "name": "PaymentReceived",
      "type": "event"
    },
    {
      "anonymous": false,
      "inputs": [
        {
          "indexed": true,
          "internalType": "address",
          "name": "operator",
          "type": "address"
        },
        {
          "indexed": true,
          "internalType": "address",
          "name": "from",
          "type": "address"
        },
        {
          "indexed": true,
          "internalType": "address",
          "name": "to",
          "type": "address"
        },
        {
          "indexed": false,
          "internalType": "uint256[]",
          "name": "ids",
          "type": "uint256[]"
        },
        {
          "indexed": false,
          "internalType": "uint256[]",
          "name": "values",
          "type": "uint256[]"
        }
      ],
      "name": "TransferBatch",
      "type": "event"
    },
    {
      "anonymous": false,
      "inputs": [
        {
          "indexed": true,
          "internalType": "address",
          "name": "operator",
          "type": "address"
        },
        {
          "indexed": true,
          "internalType": "address",
          "name": "from",
          "type": "address"
        },
        {
          "indexed": true,
          "internalType": "address",
          "name": "to",
          "type": "address"
        },
        {
          "indexed": false,
          "internalType": "uint256",
          "name": "id",
          "type": "uint256"
        },
        {
          "indexed": false,
          "internalType": "uint256",
          "name": "value",
          "type": "uint256"
        }
      ],
      "name": "TransferSingle",
      "type": "event"
    },
    {
      "anonymous": false,
      "inputs": [
        {
          "indexed": false,
          "internalType": "string",
          "name": "value",
          "type": "string"
        },
        {
          "indexed": true,
          "internalType": "uint256",
          "name": "id",
          "type": "uint256"
        }
      ],
      "name": "URI",
      "type": "event"
    },
    {
      "inputs": [
        {
          "internalType": "address",
          "name": "account",
          "type": "address"
        },
        {
          "internalType": "uint256",
          "name": "id",
          "type": "uint256"
        }
      ],
      "name": "balanceOf",
      "outputs": [
        {
          "internalType": "uint256",
          "name": "",
          "type": "uint256"
        }
      ],
      "stateMutability": "view",
      "type": "function"
    },
    {
      "inputs": [
        {
          "internalType": "address[]",
          "name": "accounts",
          "type": "address[]"
        },
        {
          "internalType": "uint256[]",
          "name": "ids",
          "type": "uint256[]"
        }
      ],
      "name": "balanceOfBatch",
      "outputs": [
        {
          "internalType": "uint256[]",
          "name": "",
          "type": "uint256[]"
        }
      ],
      "stateMutability": "view",
      "type": "function"
    },
    {
      "inputs": [
        {
          "internalType": "address",
          "name": "account",
          "type": "address"
        },
        {
          "internalType": "uint256",
          "name": "collectionId",
          "type": "uint256"
        },
        {
          "internalType": "uint256",
          "name": "",
          "type": "uint256"
        }
      ],
      "name": "burn",
      "outputs": [],
      "stateMutability": "nonpayable",
      "type": "function"
    },
    {
      "inputs": [
        {
          "internalType": "address",
          "name": "",
          "type": "address"
        },
        {
          "internalType": "uint256[]",
          "name": "",
          "type": "uint256[]"
        },
        {
          "internalType": "uint256[]",
          "name": "",
          "type": "uint256[]"
        }
      ],
      "name": "burnBatch",
      "outputs": [],
      "stateMutability": "nonpayable",
      "type": "function"
    },
    {
      "inputs": [
        {
          "internalType": "uint256",
          "name": "",
          "type": "uint256"
        }
      ],
      "name": "collections",
      "outputs": [
        {
          "internalType": "address",
          "name": "owner",
          "type": "address"
        },
        {
          "internalType": "string",
          "name": "name",
          "type": "string"
        },
        {
          "internalType": "string",
          "name": "uri",
          "type": "string"
        },
        {
          "internalType": "uint256",
          "name": "maxSupply",
          "type": "uint256"
        },
        {
          "internalType": "uint256",
          "name": "earliestMintTimestamp",
          "type": "uint256"
        },
        {
          "internalType": "uint256",
          "name": "latestMintTimestamp",
          "type": "uint256"
        },
        {
          "internalType": "uint256",
          "name": "requiredPayment",
          "type": "uint256"
        },
        {
          "internalType": "uint256",
          "name": "flags",
          "type": "uint256"
        }
      ],
      "stateMutability": "view",
      "type": "function"
    },
    {
      "inputs": [],
      "name": "collectionsCount",
      "outputs": [
        {
          "internalType": "uint256",
          "name": "",
          "type": "uint256"
        }
      ],
      "stateMutability": "view",
      "type": "function"
    },
    {
      "inputs": [
        {
          "internalType": "string",
          "name": "name",
          "type": "string"
        },
        {
          "internalType": "string",
          "name": "uri_",
          "type": "string"
        },
        {
          "internalType": "uint256",
          "name": "maxSupply",
          "type": "uint256"
        },
        {
          "internalType": "uint256",
          "name": "earliestMintTimestamp",
          "type": "uint256"
        },
        {
          "internalType": "uint256",
          "name": "latestMintTimestamp",
          "type": "uint256"
        },
        {
          "internalType": "uint256",
          "name": "requiredPayment",
          "type": "uint256"
        },
        {
          "internalType": "uint256",
          "name": "flags",
          "type": "uint256"
        }
      ],
      "name": "createCollection",
      "outputs": [],
      "stateMutability": "nonpayable",
      "type": "function"
    },
    {
      "inputs": [
        {
          "internalType": "uint256",
          "name": "id",
          "type": "uint256"
        }
      ],
      "name": "exists",
      "outputs": [
        {
          "internalType": "bool",
          "name": "",
          "type": "bool"
        }
      ],
      "stateMutability": "view",
      "type": "function"
    },
    {
      "inputs": [],
      "name": "initialize",
      "outputs": [],
      "stateMutability": "nonpayable",
      "type": "function"
    },
    {
      "inputs": [
        {
          "internalType": "address",
          "name": "account",
          "type": "address"
        },
        {
          "internalType": "address",
          "name": "operator",
          "type": "address"
        }
      ],
      "name": "isApprovedForAll",
      "outputs": [
        {
          "internalType": "bool",
          "name": "",
          "type": "bool"
        }
      ],
      "stateMutability": "view",
      "type": "function"
    },
    {
      "inputs": [
        {
          "internalType": "uint256",
          "name": "collectionId",
          "type": "uint256"
        }
      ],
      "name": "mint",
      "outputs": [],
      "stateMutability": "payable",
      "type": "function"
    },
    {
      "inputs": [
        {
          "internalType": "address",
          "name": "owner",
          "type": "address"
        }
      ],
      "name": "ownedCollections",
      "outputs": [
        {
          "internalType": "uint256[]",
          "name": "ids",
          "type": "uint256[]"
        }
      ],
      "stateMutability": "view",
      "type": "function"
    },
    {
      "inputs": [
        {
          "internalType": "address",
          "name": "owner",
          "type": "address"
        }
      ],
      "name": "ownedTokens",
      "outputs": [
        {
          "internalType": "uint256[]",
          "name": "ids",
          "type": "uint256[]"
        }
      ],
      "stateMutability": "view",
      "type": "function"
    },
    {
      "inputs": [],
      "name": "owner",
      "outputs": [
        {
          "internalType": "address",
          "name": "",
          "type": "address"
        }
      ],
      "stateMutability": "view",
      "type": "function"
    },
    {
      "inputs": [
        {
          "internalType": "uint256",
          "name": "collectionId",
          "type": "uint256"
        }
      ],
      "name": "pauseMinting",
      "outputs": [],
      "stateMutability": "nonpayable",
      "type": "function"
    },
    {
      "inputs": [],
      "name": "renounceOwnership",
      "outputs": [],
      "stateMutability": "nonpayable",
      "type": "function"
    },
    {
      "inputs": [
        {
          "internalType": "uint256",
          "name": "collectionId",
          "type": "uint256"
        }
      ],
      "name": "resumeMinting",
      "outputs": [],
      "stateMutability": "nonpayable",
      "type": "function"
    },
    {
      "inputs": [
        {
          "internalType": "address",
          "name": "",
          "type": "address"
        },
        {
          "internalType": "address",
          "name": "",
          "type": "address"
        },
        {
          "internalType": "uint256[]",
          "name": "",
          "type": "uint256[]"
        },
        {
          "internalType": "uint256[]",
          "name": "",
          "type": "uint256[]"
        },
        {
          "internalType": "bytes",
          "name": "",
          "type": "bytes"
        }
      ],
      "name": "safeBatchTransferFrom",
      "outputs": [],
      "stateMutability": "nonpayable",
      "type": "function"
    },
    {
      "inputs": [
        {
          "internalType": "address",
          "name": "from",
          "type": "address"
        },
        {
          "internalType": "address",
          "name": "to",
          "type": "address"
        },
        {
          "internalType": "uint256",
          "name": "id",
          "type": "uint256"
        },
        {
          "internalType": "uint256",
          "name": "",
          "type": "uint256"
        },
        {
          "internalType": "bytes",
          "name": "data",
          "type": "bytes"
        }
      ],
      "name": "safeTransferFrom",
      "outputs": [],
      "stateMutability": "nonpayable",
      "type": "function"
    },
    {
      "inputs": [
        {
          "internalType": "address",
          "name": "operator",
          "type": "address"
        },
        {
          "internalType": "bool",
          "name": "approved",
          "type": "bool"
        }
      ],
      "name": "setApprovalForAll",
      "outputs": [],
      "stateMutability": "nonpayable",
      "type": "function"
    },
    {
      "inputs": [
        {
          "internalType": "bytes4",
          "name": "interfaceId",
          "type": "bytes4"
        }
      ],
      "name": "supportsInterface",
      "outputs": [
        {
          "internalType": "bool",
          "name": "",
          "type": "bool"
        }
      ],
      "stateMutability": "view",
      "type": "function"
    },
    {
      "inputs": [
        {
          "internalType": "uint256",
          "name": "id",
          "type": "uint256"
        }
      ],
      "name": "totalSupply",
      "outputs": [
        {
          "internalType": "uint256",
          "name": "",
          "type": "uint256"
        }
      ],
      "stateMutability": "view",
      "type": "function"
    },
    {
      "inputs": [
        {
          "internalType": "address",
          "name": "newOwner",
          "type": "address"
        }
      ],
      "name": "transferOwnership",
      "outputs": [],
      "stateMutability": "nonpayable",
      "type": "function"
    },
    {
      "inputs": [
        {
          "internalType": "uint256",
          "name": "collectionId",
          "type": "uint256"
        }
      ],
      "name": "uri",
      "outputs": [
        {
          "internalType": "string",
          "name": "uri_",
          "type": "string"
        }
      ],
      "stateMutability": "view",
      "type": "function"
    }
  ],
  "bytecode": "0x60806040523480156200001157600080fd5b50620000226200002860201b60201c565b620001d3565b600060019054906101000a900460ff16156200007b576040517f08c379a0000000000000000000000000000000000000000000000000000000008152600401620000729062000176565b60405180910390fd5b60ff801660008054906101000a900460ff1660ff161015620000ed5760ff6000806101000a81548160ff021916908360ff1602179055507f7f26b83ff96e1f2b6a682f133852f6798a09c465da95921460cefb384740249860ff604051620000e49190620001b6565b60405180910390a15b565b600082825260208201905092915050565b7f496e697469616c697a61626c653a20636f6e747261637420697320696e69746960008201527f616c697a696e6700000000000000000000000000000000000000000000000000602082015250565b60006200015e602783620000ef565b91506200016b8262000100565b604082019050919050565b6000602082019050818103600083015262000191816200014f565b9050919050565b600060ff82169050919050565b620001b08162000198565b82525050565b6000602082019050620001cd6000830184620001a5565b92915050565b614b4c80620001e36000396000f3fe60806040526004361061014a5760003560e01c8063992d5898116100b6578063bd85b0391161006f578063bd85b03914610490578063e985e9c5146104cd578063f242432a1461050a578063f2fde38b14610533578063f5298aca1461055c578063fdbda0ec146105855761014a565b8063992d58981461037f578063a0712d68146103bc578063a22cb465146103d8578063a7f2393d14610401578063b12ab40f1461042a578063bd4f6cf4146104675761014a565b80634f558e79116101085780634f558e791461029757806364393a90146102d45780636b20c454146102fd578063715018a6146103265780638129fc1c1461033d5780638da5cb5b146103545761014a565b8062fdd58e1461014f57806301ffc9a71461018c5780630e89341c146101c957806324cc0662146102065780632eb2c2d6146102315780634e1273f41461025a575b600080fd5b34801561015b57600080fd5b50610176600480360381019061017191906131e7565b6105c9565b6040516101839190613236565b60405180910390f35b34801561019857600080fd5b506101b360048036038101906101ae91906132a9565b610693565b6040516101c091906132f1565b60405180910390f35b3480156101d557600080fd5b506101f060048036038101906101eb919061330c565b610775565b6040516101fd91906133d2565b60405180910390f35b34801561021257600080fd5b5061021b61081e565b6040516102289190613236565b60405180910390f35b34801561023d57600080fd5b50610258600480360381019061025391906135f1565b610825565b005b34801561026657600080fd5b50610281600480360381019061027c9190613783565b610857565b60405161028e91906138b9565b60405180910390f35b3480156102a357600080fd5b506102be60048036038101906102b9919061330c565b610970565b6040516102cb91906132f1565b60405180910390f35b3480156102e057600080fd5b506102fb60048036038101906102f6919061397c565b610984565b005b34801561030957600080fd5b50610324600480360381019061031f9190613a56565b610c63565b005b34801561033257600080fd5b5061033b610c95565b005b34801561034957600080fd5b50610352610ca9565b005b34801561036057600080fd5b50610369610e17565b6040516103769190613af0565b60405180910390f35b34801561038b57600080fd5b506103a660048036038101906103a19190613b0b565b610e41565b6040516103b391906138b9565b60405180910390f35b6103d660048036038101906103d1919061330c565b610e92565b005b3480156103e457600080fd5b506103ff60048036038101906103fa9190613b64565b61123a565b005b34801561040d57600080fd5b506104286004803603810190610423919061330c565b611250565b005b34801561043657600080fd5b50610451600480360381019061044c9190613b0b565b611428565b60405161045e91906138b9565b60405180910390f35b34801561047357600080fd5b5061048e6004803603810190610489919061330c565b611479565b005b34801561049c57600080fd5b506104b760048036038101906104b2919061330c565b611652565b6040516104c49190613236565b60405180910390f35b3480156104d957600080fd5b506104f460048036038101906104ef9190613ba4565b61166f565b60405161050191906132f1565b60405180910390f35b34801561051657600080fd5b50610531600480360381019061052c9190613be4565b611703565b005b34801561053f57600080fd5b5061055a60048036038101906105559190613b0b565b611778565b005b34801561056857600080fd5b50610583600480360381019061057e9190613c7b565b6117fc565b005b34801561059157600080fd5b506105ac60048036038101906105a7919061330c565b6118cb565b6040516105c0989796959493929190613cce565b60405180910390f35b60008073ffffffffffffffffffffffffffffffffffffffff168373ffffffffffffffffffffffffffffffffffffffff16141561063a576040517f08c379a000000000000000000000000000000000000000000000000000000000815260040161063190613dcc565b60405180910390fd5b6065600083815260200190815260200160002060008473ffffffffffffffffffffffffffffffffffffffff1673ffffffffffffffffffffffffffffffffffffffff16815260200190815260200160002054905092915050565b60007fd9b67a26000000000000000000000000000000000000000000000000000000007bffffffffffffffffffffffffffffffffffffffffffffffffffffffff1916827bffffffffffffffffffffffffffffffffffffffffffffffffffffffff1916148061075e57507f0e89341c000000000000000000000000000000000000000000000000000000007bffffffffffffffffffffffffffffffffffffffffffffffffffffffff1916827bffffffffffffffffffffffffffffffffffffffffffffffffffffffff1916145b8061076e575061076d82611a44565b5b9050919050565b606061015f6000838152602001908152602001600020600201805461079990613e1b565b80601f01602080910402602001604051908101604052809291908181526020018280546107c590613e1b565b80156108125780601f106107e757610100808354040283529160200191610812565b820191906000526020600020905b8154815290600101906020018083116107f557829003601f168201915b50505050509050919050565b6101605481565b6040517fa038794000000000000000000000000000000000000000000000000000000000815260040160405180910390fd5b6060815183511461089d576040517f08c379a000000000000000000000000000000000000000000000000000000000815260040161089490613ebf565b60405180910390fd5b6000835167ffffffffffffffff8111156108ba576108b96133f9565b5b6040519080825280602002602001820160405280156108e85781602001602082028036833780820191505090505b50905060005b84518110156109655761093585828151811061090d5761090c613edf565b5b602002602001015185838151811061092857610927613edf565b5b60200260200101516105c9565b82828151811061094857610947613edf565b5b6020026020010181815250508061095e90613f3d565b90506108ee565b508091505092915050565b60008061097c83611652565b119050919050565b866000815114156109c1576040517f2ef1310500000000000000000000000000000000000000000000000000000000815260040160405180910390fd5b83600081141580156109d257504281105b15610a09576040517fa0d7fe2700000000000000000000000000000000000000000000000000000000815260040160405180910390fd5b858560008214158015610a1d575060008114155b8015610a2857508082115b15610a5f576040517f262efcda00000000000000000000000000000000000000000000000000000000815260040160405180910390fd5b6000610160549050610a6f613041565b33816000019073ffffffffffffffffffffffffffffffffffffffff16908173ffffffffffffffffffffffffffffffffffffffff16815250508c81602001819052508b81604001819052508a81606001818152505089816080018181525050888160a0018181525050878160c0018181525050868160e00181815250508061015f600084815260200190815260200160002060008201518160000160006101000a81548173ffffffffffffffffffffffffffffffffffffffff021916908373ffffffffffffffffffffffffffffffffffffffff1602179055506020820151816001019080519060200190610b6392919061309c565b506040820151816002019080519060200190610b8092919061309c565b50606082015181600301556080820151816004015560a0820151816005015560c0820151816006015560e0820151816007015590505060016101606000828254610bca9190613f86565b92505081905550610c1a61016160003373ffffffffffffffffffffffffffffffffffffffff1673ffffffffffffffffffffffffffffffffffffffff16815260200190815260200160002083611aae565b507fae66da0f1658d46bfee58255b370697fedca10e984d310c30f2579d377a042553383604051610c4c929190613fdc565b60405180910390a150505050505050505050505050565b6040517fa038794000000000000000000000000000000000000000000000000000000000815260040160405180910390fd5b610c9d611ac8565b610ca76000611b46565b565b60008060019054906101000a900460ff16159050808015610cda5750600160008054906101000a900460ff1660ff16105b80610d075750610ce930611c0c565b158015610d065750600160008054906101000a900460ff1660ff16145b5b610d46576040517f08c379a0000000000000000000000000000000000000000000000000000000008152600401610d3d90614077565b60405180910390fd5b60016000806101000a81548160ff021916908360ff1602179055508015610d83576001600060016101000a81548160ff0219169083151502179055505b610d9b60405180602001604052806000815250611c2f565b610da3611c8a565b610dab611cdb565b610db3611d34565b610dbb611d85565b8015610e145760008060016101000a81548160ff0219169083151502179055507f7f26b83ff96e1f2b6a682f133852f6798a09c465da95921460cefb38474024986001604051610e0b91906140e9565b60405180910390a15b50565b600060c960009054906101000a900473ffffffffffffffffffffffffffffffffffffffff16905090565b6060610e8b61016160008473ffffffffffffffffffffffffffffffffffffffff1673ffffffffffffffffffffffffffffffffffffffff168152602001908152602001600020611dd6565b9050919050565b806000610e9f33836105c9565b14610ee35733816040517f6af3345f000000000000000000000000000000000000000000000000000000008152600401610eda929190613fdc565b60405180910390fd5b81600061015f60008381526020019081526020016000206001018054610f0890613e1b565b90501415610f42576040517f6f684e7200000000000000000000000000000000000000000000000000000000815260040160405180910390fd5b82600061015f600083815260200190815260200160002060030154905060008114158015610f78575080610f7583611652565b10155b15610faf576040517f303b682f00000000000000000000000000000000000000000000000000000000815260040160405180910390fd5b84600061015f600083815260200190815260200160002060040154905060008114158015610fdc57504281115b15611013576040517f6713fbad00000000000000000000000000000000000000000000000000000000815260040160405180910390fd5b86600061015f60008381526020019081526020016000206005015490506000811415801561104057504281105b15611077576040517f6713fbad00000000000000000000000000000000000000000000000000000000815260040160405180910390fd5b88600061015f6000838152602001908152602001600020600601549050600081141580156110a457508034105b156110e85780346040517fb99e2ab70000000000000000000000000000000000000000000000000000000081526004016110df929190614104565b60405180910390fd5b8a60008060036001901b61015f60008581526020019081526020016000206007015416141590508015611147576040517faf79b43700000000000000000000000000000000000000000000000000000000815260040160405180910390fd5b6000341461120f57600061015f60008f815260200190815260200160002060000160009054906101000a900473ffffffffffffffffffffffffffffffffffffffff1690508073ffffffffffffffffffffffffffffffffffffffff166108fc349081150290604051600060405180830381858888f193505050501580156111d1573d6000803e3d6000fd5b507f4d3f6d68b42e1e039d6e7323b2b8bdeaf223f453882ce17a5984f4d6aabbdb338e823460405161120593929190614182565b60405180910390a1505b61122b338e600160405180602001604052806000815250611df7565b50505050505050505050505050565b61124c611245611fa9565b8383611fb1565b5050565b80600061015f6000838152602001908152602001600020600101805461127590613e1b565b905014156112af576040517f6f684e7200000000000000000000000000000000000000000000000000000000815260040160405180910390fd5b8160003373ffffffffffffffffffffffffffffffffffffffff1661015f600084815260200190815260200160002060000160009054906101000a900473ffffffffffffffffffffffffffffffffffffffff1673ffffffffffffffffffffffffffffffffffffffff1614905080611351576040517f0e8f55e200000000000000000000000000000000000000000000000000000000815260040160405180910390fd5b8360008060036001901b61015f6000858152602001908152602001600020600701541614159050806113af576040517ffc6754a400000000000000000000000000000000000000000000000000000000815260040160405180910390fd5b60036001901b61015f6000888152602001908152602001600020600701541861015f6000888152602001908152602001600020600701819055507f9d2d8147b5731741d391b322cd29b577dfc5b42bdf7c2a1ab1eee566547b72e7866040516114189190613236565b60405180910390a1505050505050565b606061147261012d60008473ffffffffffffffffffffffffffffffffffffffff1673ffffffffffffffffffffffffffffffffffffffff168152602001908152602001600020611dd6565b9050919050565b80600061015f6000838152602001908152602001600020600101805461149e90613e1b565b905014156114d8576040517f6f684e7200000000000000000000000000000000000000000000000000000000815260040160405180910390fd5b8160003373ffffffffffffffffffffffffffffffffffffffff1661015f600084815260200190815260200160002060000160009054906101000a900473ffffffffffffffffffffffffffffffffffffffff1673ffffffffffffffffffffffffffffffffffffffff161490508061157a576040517f0e8f55e200000000000000000000000000000000000000000000000000000000815260040160405180910390fd5b8360008060036001901b61015f600085815260200190815260200160002060070154161415905080156115d9576040517faf79b43700000000000000000000000000000000000000000000000000000000815260040160405180910390fd5b60036001901b61015f6000888152602001908152602001600020600701541761015f6000888152602001908152602001600020600701819055507f38d4174e7163889d8e9bd4aa2078c460fd3a1964ad51aef8de1467ee4b29ae11866040516116429190613236565b60405180910390a1505050505050565b600060fb6000838152602001908152602001600020549050919050565b6000606660008473ffffffffffffffffffffffffffffffffffffffff1673ffffffffffffffffffffffffffffffffffffffff16815260200190815260200160002060008373ffffffffffffffffffffffffffffffffffffffff1673ffffffffffffffffffffffffffffffffffffffff16815260200190815260200160002060009054906101000a900460ff16905092915050565b8260008060006001901b61015f600085815260200190815260200160002060070154161415905080611761576040517fdc8d8db700000000000000000000000000000000000000000000000000000000815260040160405180910390fd5b61176f87878760018761211e565b50505050505050565b611780611ac8565b600073ffffffffffffffffffffffffffffffffffffffff168173ffffffffffffffffffffffffffffffffffffffff1614156117f0576040517f08c379a00000000000000000000000000000000000000000000000000000000081526004016117e79061422b565b60405180910390fd5b6117f981611b46565b50565b81600061015f6000838152602001908152602001600020600101805461182190613e1b565b9050141561185b576040517f6f684e7200000000000000000000000000000000000000000000000000000000815260040160405180910390fd5b826000806001801b61015f6000858152602001908152602001600020600701541614159050806118b7576040517fda38f01000000000000000000000000000000000000000000000000000000000815260040160405180910390fd5b6118c3868660016121bf565b505050505050565b61015f6020528060005260406000206000915090508060000160009054906101000a900473ffffffffffffffffffffffffffffffffffffffff169080600101805461191590613e1b565b80601f016020809104026020016040519081016040528092919081815260200182805461194190613e1b565b801561198e5780601f106119635761010080835404028352916020019161198e565b820191906000526020600020905b81548152906001019060200180831161197157829003601f168201915b5050505050908060020180546119a390613e1b565b80601f01602080910402602001604051908101604052809291908181526020018280546119cf90613e1b565b8015611a1c5780601f106119f157610100808354040283529160200191611a1c565b820191906000526020600020905b8154815290600101906020018083116119ff57829003601f168201915b5050505050908060030154908060040154908060050154908060060154908060070154905088565b60007f01ffc9a7000000000000000000000000000000000000000000000000000000007bffffffffffffffffffffffffffffffffffffffffffffffffffffffff1916827bffffffffffffffffffffffffffffffffffffffffffffffffffffffff1916149050919050565b6000611ac0836000018360001b61225c565b905092915050565b611ad0611fa9565b73ffffffffffffffffffffffffffffffffffffffff16611aee610e17565b73ffffffffffffffffffffffffffffffffffffffff1614611b44576040517f08c379a0000000000000000000000000000000000000000000000000000000008152600401611b3b90614297565b60405180910390fd5b565b600060c960009054906101000a900473ffffffffffffffffffffffffffffffffffffffff1690508160c960006101000a81548173ffffffffffffffffffffffffffffffffffffffff021916908373ffffffffffffffffffffffffffffffffffffffff1602179055508173ffffffffffffffffffffffffffffffffffffffff168173ffffffffffffffffffffffffffffffffffffffff167f8be0079c531659141344cd1fd0a4f28419497f9722a3daafe3b4186f6b6457e060405160405180910390a35050565b6000808273ffffffffffffffffffffffffffffffffffffffff163b119050919050565b600060019054906101000a900460ff16611c7e576040517f08c379a0000000000000000000000000000000000000000000000000000000008152600401611c7590614329565b60405180910390fd5b611c87816122cc565b50565b600060019054906101000a900460ff16611cd9576040517f08c379a0000000000000000000000000000000000000000000000000000000008152600401611cd090614329565b60405180910390fd5b565b600060019054906101000a900460ff16611d2a576040517f08c379a0000000000000000000000000000000000000000000000000000000008152600401611d2190614329565b60405180910390fd5b611d32612327565b565b600060019054906101000a900460ff16611d83576040517f08c379a0000000000000000000000000000000000000000000000000000000008152600401611d7a90614329565b60405180910390fd5b565b600060019054906101000a900460ff16611dd4576040517f08c379a0000000000000000000000000000000000000000000000000000000008152600401611dcb90614329565b60405180910390fd5b565b60606000611de683600001612388565b905060608190508092505050919050565b600073ffffffffffffffffffffffffffffffffffffffff168473ffffffffffffffffffffffffffffffffffffffff161415611e67576040517f08c379a0000000000000000000000000000000000000000000000000000000008152600401611e5e906143bb565b60405180910390fd5b6000611e71611fa9565b90506000611e7e856123e4565b90506000611e8b856123e4565b9050611e9c8360008985858961245e565b846065600088815260200190815260200160002060008973ffffffffffffffffffffffffffffffffffffffff1673ffffffffffffffffffffffffffffffffffffffff1681526020019081526020016000206000828254611efc9190613f86565b925050819055508673ffffffffffffffffffffffffffffffffffffffff16600073ffffffffffffffffffffffffffffffffffffffff168473ffffffffffffffffffffffffffffffffffffffff167fc3d58168c5ae7397731d063d5bbf3d657854427343f4c083240f7aacaa2d0f628989604051611f7a929190614104565b60405180910390a4611f9183600089858589612474565b611fa08360008989898961247c565b50505050505050565b600033905090565b8173ffffffffffffffffffffffffffffffffffffffff168373ffffffffffffffffffffffffffffffffffffffff161415612020576040517f08c379a00000000000000000000000000000000000000000000000000000000081526004016120179061444d565b60405180910390fd5b80606660008573ffffffffffffffffffffffffffffffffffffffff1673ffffffffffffffffffffffffffffffffffffffff16815260200190815260200160002060008473ffffffffffffffffffffffffffffffffffffffff1673ffffffffffffffffffffffffffffffffffffffff16815260200190815260200160002060006101000a81548160ff0219169083151502179055508173ffffffffffffffffffffffffffffffffffffffff168373ffffffffffffffffffffffffffffffffffffffff167f17307eab39ab6107e8899845ad3d59bd9653f200f220920489ca2b5937696c318360405161211191906132f1565b60405180910390a3505050565b612126611fa9565b73ffffffffffffffffffffffffffffffffffffffff168573ffffffffffffffffffffffffffffffffffffffff16148061216c575061216b85612166611fa9565b61166f565b5b6121ab576040517f08c379a00000000000000000000000000000000000000000000000000000000081526004016121a2906144df565b60405180910390fd5b6121b88585858585612663565b5050505050565b6121c7611fa9565b73ffffffffffffffffffffffffffffffffffffffff168373ffffffffffffffffffffffffffffffffffffffff16148061220d575061220c83612207611fa9565b61166f565b5b61224c576040517f08c379a0000000000000000000000000000000000000000000000000000000008152600401612243906144df565b60405180910390fd5b612257838383612902565b505050565b60006122688383612b4b565b6122c15782600001829080600181540180825580915050600190039060005260206000200160009091909190915055826000018054905083600101600084815260200190815260200160002081905550600190506122c6565b600090505b92915050565b600060019054906101000a900460ff1661231b576040517f08c379a000000000000000000000000000000000000000000000000000000000815260040161231290614329565b60405180910390fd5b61232481612b6e565b50565b600060019054906101000a900460ff16612376576040517f08c379a000000000000000000000000000000000000000000000000000000000815260040161236d90614329565b60405180910390fd5b612386612381611fa9565b611b46565b565b6060816000018054806020026020016040519081016040528092919081815260200182805480156123d857602002820191906000526020600020905b8154815260200190600101908083116123c4575b50505050509050919050565b60606000600167ffffffffffffffff811115612403576124026133f9565b5b6040519080825280602002602001820160405280156124315781602001602082028036833780820191505090505b509050828160008151811061244957612448613edf565b5b60200260200101818152505080915050919050565b61246c868686868686612b88565b505050505050565b505050505050565b61249b8473ffffffffffffffffffffffffffffffffffffffff16611c0c565b1561265b578373ffffffffffffffffffffffffffffffffffffffff1663f23a6e6187878686866040518663ffffffff1660e01b81526004016124e1959493929190614554565b602060405180830381600087803b1580156124fb57600080fd5b505af192505050801561252c57506040513d601f19601f8201168201806040525081019061252991906145c3565b60015b6125d2576125386145fd565b806308c379a01415612595575061254d61461f565b806125585750612597565b806040517f08c379a000000000000000000000000000000000000000000000000000000000815260040161258c91906133d2565b60405180910390fd5b505b6040517f08c379a00000000000000000000000000000000000000000000000000000000081526004016125c990614727565b60405180910390fd5b63f23a6e6160e01b7bffffffffffffffffffffffffffffffffffffffffffffffffffffffff1916817bffffffffffffffffffffffffffffffffffffffffffffffffffffffff191614612659576040517f08c379a0000000000000000000000000000000000000000000000000000000008152600401612650906147b9565b60405180910390fd5b505b505050505050565b600073ffffffffffffffffffffffffffffffffffffffff168473ffffffffffffffffffffffffffffffffffffffff1614156126d3576040517f08c379a00000000000000000000000000000000000000000000000000000000081526004016126ca9061484b565b60405180910390fd5b60006126dd611fa9565b905060006126ea856123e4565b905060006126f7856123e4565b905061270783898985858961245e565b60006065600088815260200190815260200160002060008a73ffffffffffffffffffffffffffffffffffffffff1673ffffffffffffffffffffffffffffffffffffffff1681526020019081526020016000205490508581101561279f576040517f08c379a0000000000000000000000000000000000000000000000000000000008152600401612796906148dd565b60405180910390fd5b8581036065600089815260200190815260200160002060008b73ffffffffffffffffffffffffffffffffffffffff1673ffffffffffffffffffffffffffffffffffffffff16815260200190815260200160002081905550856065600089815260200190815260200160002060008a73ffffffffffffffffffffffffffffffffffffffff1673ffffffffffffffffffffffffffffffffffffffff16815260200190815260200160002060008282546128569190613f86565b925050819055508773ffffffffffffffffffffffffffffffffffffffff168973ffffffffffffffffffffffffffffffffffffffff168573ffffffffffffffffffffffffffffffffffffffff167fc3d58168c5ae7397731d063d5bbf3d657854427343f4c083240f7aacaa2d0f628a8a6040516128d3929190614104565b60405180910390a46128e9848a8a86868a612474565b6128f7848a8a8a8a8a61247c565b505050505050505050565b600073ffffffffffffffffffffffffffffffffffffffff168373ffffffffffffffffffffffffffffffffffffffff161415612972576040517f08c379a00000000000000000000000000000000000000000000000000000000081526004016129699061496f565b60405180910390fd5b600061297c611fa9565b90506000612989846123e4565b90506000612996846123e4565b90506129b68387600085856040518060200160405280600081525061245e565b60006065600087815260200190815260200160002060008873ffffffffffffffffffffffffffffffffffffffff1673ffffffffffffffffffffffffffffffffffffffff16815260200190815260200160002054905084811015612a4e576040517f08c379a0000000000000000000000000000000000000000000000000000000008152600401612a4590614a01565b60405180910390fd5b8481036065600088815260200190815260200160002060008973ffffffffffffffffffffffffffffffffffffffff1673ffffffffffffffffffffffffffffffffffffffff16815260200190815260200160002081905550600073ffffffffffffffffffffffffffffffffffffffff168773ffffffffffffffffffffffffffffffffffffffff168573ffffffffffffffffffffffffffffffffffffffff167fc3d58168c5ae7397731d063d5bbf3d657854427343f4c083240f7aacaa2d0f628989604051612b1c929190614104565b60405180910390a4612b4284886000868660405180602001604052806000815250612474565b50505050505050565b600080836001016000848152602001908152602001600020541415905092915050565b8060679080519060200190612b8492919061309c565b5050565b612b96868686868686612d39565b60005b8351811015612d3057600073ffffffffffffffffffffffffffffffffffffffff168673ffffffffffffffffffffffffffffffffffffffff1614158015612c1c5750828181518110612bed57612bec613edf565b5b6020026020010151612c1987868481518110612c0c57612c0b613edf565b5b60200260200101516105c9565b11155b15612c8657612c8461012d60008873ffffffffffffffffffffffffffffffffffffffff1673ffffffffffffffffffffffffffffffffffffffff168152602001908152602001600020858381518110612c7757612c76613edf565b5b6020026020010151612f0b565b505b600073ffffffffffffffffffffffffffffffffffffffff168573ffffffffffffffffffffffffffffffffffffffff1614612d1f57612d1d61012d60008773ffffffffffffffffffffffffffffffffffffffff1673ffffffffffffffffffffffffffffffffffffffff168152602001908152602001600020858381518110612d1057612d0f613edf565b5b6020026020010151611aae565b505b80612d2990613f3d565b9050612b99565b50505050505050565b612d47868686868686612f25565b600073ffffffffffffffffffffffffffffffffffffffff168573ffffffffffffffffffffffffffffffffffffffff161415612df95760005b8351811015612df757828181518110612d9b57612d9a613edf565b5b602002602001015160fb6000868481518110612dba57612db9613edf565b5b602002602001015181526020019081526020016000206000828254612ddf9190613f86565b9250508190555080612df090613f3d565b9050612d7f565b505b600073ffffffffffffffffffffffffffffffffffffffff168473ffffffffffffffffffffffffffffffffffffffff161415612f035760005b8351811015612f01576000848281518110612e4f57612e4e613edf565b5b602002602001015190506000848381518110612e6e57612e6d613edf565b5b60200260200101519050600060fb600084815260200190815260200160002054905081811015612ed3576040517f08c379a0000000000000000000000000000000000000000000000000000000008152600401612eca90614a93565b60405180910390fd5b81810360fb60008581526020019081526020016000208190555050505080612efa90613f3d565b9050612e31565b505b505050505050565b6000612f1d836000018360001b612f2d565b905092915050565b505050505050565b60008083600101600084815260200190815260200160002054905060008114613035576000600182612f5f9190614ab3565b9050600060018660000180549050612f779190614ab3565b9050818114612fe6576000866000018281548110612f9857612f97613edf565b5b9060005260206000200154905080876000018481548110612fbc57612fbb613edf565b5b90600052602060002001819055508387600101600083815260200190815260200160002081905550505b85600001805480612ffa57612ff9614ae7565b5b60019003818190600052602060002001600090559055856001016000868152602001908152602001600020600090556001935050505061303b565b60009150505b92915050565b604051806101000160405280600073ffffffffffffffffffffffffffffffffffffffff168152602001606081526020016060815260200160008152602001600081526020016000815260200160008152602001600081525090565b8280546130a890613e1b565b90600052602060002090601f0160209004810192826130ca5760008555613111565b82601f106130e357805160ff1916838001178555613111565b82800160010185558215613111579182015b828111156131105782518255916020019190600101906130f5565b5b50905061311e9190613122565b5090565b5b8082111561313b576000816000905550600101613123565b5090565b6000604051905090565b600080fd5b600080fd5b600073ffffffffffffffffffffffffffffffffffffffff82169050919050565b600061317e82613153565b9050919050565b61318e81613173565b811461319957600080fd5b50565b6000813590506131ab81613185565b92915050565b6000819050919050565b6131c4816131b1565b81146131cf57600080fd5b50565b6000813590506131e1816131bb565b92915050565b600080604083850312156131fe576131fd613149565b5b600061320c8582860161319c565b925050602061321d858286016131d2565b9150509250929050565b613230816131b1565b82525050565b600060208201905061324b6000830184613227565b92915050565b60007fffffffff0000000000000000000000000000000000000000000000000000000082169050919050565b61328681613251565b811461329157600080fd5b50565b6000813590506132a38161327d565b92915050565b6000602082840312156132bf576132be613149565b5b60006132cd84828501613294565b91505092915050565b60008115159050919050565b6132eb816132d6565b82525050565b600060208201905061330660008301846132e2565b92915050565b60006020828403121561332257613321613149565b5b6000613330848285016131d2565b91505092915050565b600081519050919050565b600082825260208201905092915050565b60005b83811015613373578082015181840152602081019050613358565b83811115613382576000848401525b50505050565b6000601f19601f8301169050919050565b60006133a482613339565b6133ae8185613344565b93506133be818560208601613355565b6133c781613388565b840191505092915050565b600060208201905081810360008301526133ec8184613399565b905092915050565b600080fd5b7f4e487b7100000000000000000000000000000000000000000000000000000000600052604160045260246000fd5b61343182613388565b810181811067ffffffffffffffff821117156134505761344f6133f9565b5b80604052505050565b600061346361313f565b905061346f8282613428565b919050565b600067ffffffffffffffff82111561348f5761348e6133f9565b5b602082029050602081019050919050565b600080fd5b60006134b86134b384613474565b613459565b905080838252602082019050602084028301858111156134db576134da6134a0565b5b835b8181101561350457806134f088826131d2565b8452602084019350506020810190506134dd565b5050509392505050565b600082601f830112613523576135226133f4565b5b81356135338482602086016134a5565b91505092915050565b600080fd5b600067ffffffffffffffff82111561355c5761355b6133f9565b5b61356582613388565b9050602081019050919050565b82818337600083830152505050565b600061359461358f84613541565b613459565b9050828152602081018484840111156135b0576135af61353c565b5b6135bb848285613572565b509392505050565b600082601f8301126135d8576135d76133f4565b5b81356135e8848260208601613581565b91505092915050565b600080600080600060a0868803121561360d5761360c613149565b5b600061361b8882890161319c565b955050602061362c8882890161319c565b945050604086013567ffffffffffffffff81111561364d5761364c61314e565b5b6136598882890161350e565b935050606086013567ffffffffffffffff81111561367a5761367961314e565b5b6136868882890161350e565b925050608086013567ffffffffffffffff8111156136a7576136a661314e565b5b6136b3888289016135c3565b9150509295509295909350565b600067ffffffffffffffff8211156136db576136da6133f9565b5b602082029050602081019050919050565b60006136ff6136fa846136c0565b613459565b90508083825260208201905060208402830185811115613722576137216134a0565b5b835b8181101561374b5780613737888261319c565b845260208401935050602081019050613724565b5050509392505050565b600082601f83011261376a576137696133f4565b5b813561377a8482602086016136ec565b91505092915050565b6000806040838503121561379a57613799613149565b5b600083013567ffffffffffffffff8111156137b8576137b761314e565b5b6137c485828601613755565b925050602083013567ffffffffffffffff8111156137e5576137e461314e565b5b6137f18582860161350e565b9150509250929050565b600081519050919050565b600082825260208201905092915050565b6000819050602082019050919050565b613830816131b1565b82525050565b60006138428383613827565b60208301905092915050565b6000602082019050919050565b6000613866826137fb565b6138708185613806565b935061387b83613817565b8060005b838110156138ac5781516138938882613836565b975061389e8361384e565b92505060018101905061387f565b5085935050505092915050565b600060208201905081810360008301526138d3818461385b565b905092915050565b600067ffffffffffffffff8211156138f6576138f56133f9565b5b6138ff82613388565b9050602081019050919050565b600061391f61391a846138db565b613459565b90508281526020810184848401111561393b5761393a61353c565b5b613946848285613572565b509392505050565b600082601f830112613963576139626133f4565b5b813561397384826020860161390c565b91505092915050565b600080600080600080600060e0888a03121561399b5761399a613149565b5b600088013567ffffffffffffffff8111156139b9576139b861314e565b5b6139c58a828b0161394e565b975050602088013567ffffffffffffffff8111156139e6576139e561314e565b5b6139f28a828b0161394e565b9650506040613a038a828b016131d2565b9550506060613a148a828b016131d2565b9450506080613a258a828b016131d2565b93505060a0613a368a828b016131d2565b92505060c0613a478a828b016131d2565b91505092959891949750929550565b600080600060608486031215613a6f57613a6e613149565b5b6000613a7d8682870161319c565b935050602084013567ffffffffffffffff811115613a9e57613a9d61314e565b5b613aaa8682870161350e565b925050604084013567ffffffffffffffff811115613acb57613aca61314e565b5b613ad78682870161350e565b9150509250925092565b613aea81613173565b82525050565b6000602082019050613b056000830184613ae1565b92915050565b600060208284031215613b2157613b20613149565b5b6000613b2f8482850161319c565b91505092915050565b613b41816132d6565b8114613b4c57600080fd5b50565b600081359050613b5e81613b38565b92915050565b60008060408385031215613b7b57613b7a613149565b5b6000613b898582860161319c565b9250506020613b9a85828601613b4f565b9150509250929050565b60008060408385031215613bbb57613bba613149565b5b6000613bc98582860161319c565b9250506020613bda8582860161319c565b9150509250929050565b600080600080600060a08688031215613c0057613bff613149565b5b6000613c0e8882890161319c565b9550506020613c1f8882890161319c565b9450506040613c30888289016131d2565b9350506060613c41888289016131d2565b925050608086013567ffffffffffffffff811115613c6257613c6161314e565b5b613c6e888289016135c3565b9150509295509295909350565b600080600060608486031215613c9457613c93613149565b5b6000613ca28682870161319c565b9350506020613cb3868287016131d2565b9250506040613cc4868287016131d2565b9150509250925092565b600061010082019050613ce4600083018b613ae1565b8181036020830152613cf6818a613399565b90508181036040830152613d0a8189613399565b9050613d196060830188613227565b613d266080830187613227565b613d3360a0830186613227565b613d4060c0830185613227565b613d4d60e0830184613227565b9998505050505050505050565b7f455243313135353a2061646472657373207a65726f206973206e6f742061207660008201527f616c6964206f776e657200000000000000000000000000000000000000000000602082015250565b6000613db6602a83613344565b9150613dc182613d5a565b604082019050919050565b60006020820190508181036000830152613de581613da9565b9050919050565b7f4e487b7100000000000000000000000000000000000000000000000000000000600052602260045260246000fd5b60006002820490506001821680613e3357607f821691505b60208210811415613e4757613e46613dec565b5b50919050565b7f455243313135353a206163636f756e747320616e6420696473206c656e67746860008201527f206d69736d617463680000000000000000000000000000000000000000000000602082015250565b6000613ea9602983613344565b9150613eb482613e4d565b604082019050919050565b60006020820190508181036000830152613ed881613e9c565b9050919050565b7f4e487b7100000000000000000000000000000000000000000000000000000000600052603260045260246000fd5b7f4e487b7100000000000000000000000000000000000000000000000000000000600052601160045260246000fd5b6000613f48826131b1565b91507fffffffffffffffffffffffffffffffffffffffffffffffffffffffffffffffff821415613f7b57613f7a613f0e565b5b600182019050919050565b6000613f91826131b1565b9150613f9c836131b1565b9250827fffffffffffffffffffffffffffffffffffffffffffffffffffffffffffffffff03821115613fd157613fd0613f0e565b5b828201905092915050565b6000604082019050613ff16000830185613ae1565b613ffe6020830184613227565b9392505050565b7f496e697469616c697a61626c653a20636f6e747261637420697320616c72656160008201527f647920696e697469616c697a6564000000000000000000000000000000000000602082015250565b6000614061602e83613344565b915061406c82614005565b604082019050919050565b6000602082019050818103600083015261409081614054565b9050919050565b6000819050919050565b600060ff82169050919050565b6000819050919050565b60006140d36140ce6140c984614097565b6140ae565b6140a1565b9050919050565b6140e3816140b8565b82525050565b60006020820190506140fe60008301846140da565b92915050565b60006040820190506141196000830185613227565b6141266020830184613227565b9392505050565b600061414861414361413e84613153565b6140ae565b613153565b9050919050565b600061415a8261412d565b9050919050565b600061416c8261414f565b9050919050565b61417c81614161565b82525050565b60006060820190506141976000830186613227565b6141a46020830185614173565b6141b16040830184613227565b949350505050565b7f4f776e61626c653a206e6577206f776e657220697320746865207a65726f206160008201527f6464726573730000000000000000000000000000000000000000000000000000602082015250565b6000614215602683613344565b9150614220826141b9565b604082019050919050565b6000602082019050818103600083015261424481614208565b9050919050565b7f4f776e61626c653a2063616c6c6572206973206e6f7420746865206f776e6572600082015250565b6000614281602083613344565b915061428c8261424b565b602082019050919050565b600060208201905081810360008301526142b081614274565b9050919050565b7f496e697469616c697a61626c653a20636f6e7472616374206973206e6f74206960008201527f6e697469616c697a696e67000000000000000000000000000000000000000000602082015250565b6000614313602b83613344565b915061431e826142b7565b604082019050919050565b6000602082019050818103600083015261434281614306565b9050919050565b7f455243313135353a206d696e7420746f20746865207a65726f2061646472657360008201527f7300000000000000000000000000000000000000000000000000000000000000602082015250565b60006143a5602183613344565b91506143b082614349565b604082019050919050565b600060208201905081810360008301526143d481614398565b9050919050565b7f455243313135353a2073657474696e6720617070726f76616c2073746174757360008201527f20666f722073656c660000000000000000000000000000000000000000000000602082015250565b6000614437602983613344565b9150614442826143db565b604082019050919050565b600060208201905081810360008301526144668161442a565b9050919050565b7f455243313135353a2063616c6c6572206973206e6f7420746f6b656e206f776e60008201527f6572206f7220617070726f766564000000000000000000000000000000000000602082015250565b60006144c9602e83613344565b91506144d48261446d565b604082019050919050565b600060208201905081810360008301526144f8816144bc565b9050919050565b600081519050919050565b600082825260208201905092915050565b6000614526826144ff565b614530818561450a565b9350614540818560208601613355565b61454981613388565b840191505092915050565b600060a0820190506145696000830188613ae1565b6145766020830187613ae1565b6145836040830186613227565b6145906060830185613227565b81810360808301526145a2818461451b565b90509695505050505050565b6000815190506145bd8161327d565b92915050565b6000602082840312156145d9576145d8613149565b5b60006145e7848285016145ae565b91505092915050565b60008160e01c9050919050565b600060033d111561461c5760046000803e6146196000516145f0565b90505b90565b600060443d101561462f576146b2565b61463761313f565b60043d036004823e80513d602482011167ffffffffffffffff8211171561465f5750506146b2565b808201805167ffffffffffffffff81111561467d57505050506146b2565b80602083010160043d03850181111561469a5750505050506146b2565b6146a982602001850186613428565b82955050505050505b90565b7f455243313135353a207472616e7366657220746f206e6f6e2d4552433131353560008201527f526563656976657220696d706c656d656e746572000000000000000000000000602082015250565b6000614711603483613344565b915061471c826146b5565b604082019050919050565b6000602082019050818103600083015261474081614704565b9050919050565b7f455243313135353a204552433131353552656365697665722072656a6563746560008201527f6420746f6b656e73000000000000000000000000000000000000000000000000602082015250565b60006147a3602883613344565b91506147ae82614747565b604082019050919050565b600060208201905081810360008301526147d281614796565b9050919050565b7f455243313135353a207472616e7366657220746f20746865207a65726f20616460008201527f6472657373000000000000000000000000000000000000000000000000000000602082015250565b6000614835602583613344565b9150614840826147d9565b604082019050919050565b6000602082019050818103600083015261486481614828565b9050919050565b7f455243313135353a20696e73756666696369656e742062616c616e636520666f60008201527f72207472616e7366657200000000000000000000000000000000000000000000602082015250565b60006148c7602a83613344565b91506148d28261486b565b604082019050919050565b600060208201905081810360008301526148f6816148ba565b9050919050565b7f455243313135353a206275726e2066726f6d20746865207a65726f206164647260008201527f6573730000000000000000000000000000000000000000000000000000000000602082015250565b6000614959602383613344565b9150614964826148fd565b604082019050919050565b600060208201905081810360008301526149888161494c565b9050919050565b7f455243313135353a206275726e20616d6f756e7420657863656564732062616c60008201527f616e636500000000000000000000000000000000000000000000000000000000602082015250565b60006149eb602483613344565b91506149f68261498f565b604082019050919050565b60006020820190508181036000830152614a1a816149de565b9050919050565b7f455243313135353a206275726e20616d6f756e74206578636565647320746f7460008201527f616c537570706c79000000000000000000000000000000000000000000000000602082015250565b6000614a7d602883613344565b9150614a8882614a21565b604082019050919050565b60006020820190508181036000830152614aac81614a70565b9050919050565b6000614abe826131b1565b9150614ac9836131b1565b925082821015614adc57614adb613f0e565b5b828203905092915050565b7f4e487b7100000000000000000000000000000000000000000000000000000000600052603160045260246000fdfea26469706673582212205289584618647c426275c4acad7a634c66dfd97a1085d013edf8f5b83d5bb80164736f6c63430008090033",
  "linkReferences": {},
  "deployedLinkReferences": {}
}